{
  "_format": "hh-sol-artifact-1",
  "contractName": "ResourceToken",
  "sourceName": "contracts/RessourceToken.sol",
  "abi": [
    {
      "inputs": [
        {
          "internalType": "address",
          "name": "paymentTokenAddress",
          "type": "address"
        }
      ],
      "stateMutability": "nonpayable",
      "type": "constructor"
    },
    {
      "inputs": [],
      "name": "AlreadyOnSale",
      "type": "error"
    },
    {
      "inputs": [],
      "name": "CooldownActive",
      "type": "error"
    },
    {
      "inputs": [
        {
          "internalType": "address",
          "name": "sender",
          "type": "address"
        },
        {
          "internalType": "uint256",
          "name": "tokenId",
          "type": "uint256"
        },
        {
          "internalType": "address",
          "name": "owner",
          "type": "address"
        }
      ],
      "name": "ERC721IncorrectOwner",
      "type": "error"
    },
    {
      "inputs": [
        {
          "internalType": "address",
          "name": "operator",
          "type": "address"
        },
        {
          "internalType": "uint256",
          "name": "tokenId",
          "type": "uint256"
        }
      ],
      "name": "ERC721InsufficientApproval",
      "type": "error"
    },
    {
      "inputs": [
        {
          "internalType": "address",
          "name": "approver",
          "type": "address"
        }
      ],
      "name": "ERC721InvalidApprover",
      "type": "error"
    },
    {
      "inputs": [
        {
          "internalType": "address",
          "name": "operator",
          "type": "address"
        }
      ],
      "name": "ERC721InvalidOperator",
      "type": "error"
    },
    {
      "inputs": [
        {
          "internalType": "address",
          "name": "owner",
          "type": "address"
        }
      ],
      "name": "ERC721InvalidOwner",
      "type": "error"
    },
    {
      "inputs": [
        {
          "internalType": "address",
          "name": "receiver",
          "type": "address"
        }
      ],
      "name": "ERC721InvalidReceiver",
      "type": "error"
    },
    {
      "inputs": [
        {
          "internalType": "address",
          "name": "sender",
          "type": "address"
        }
      ],
      "name": "ERC721InvalidSender",
      "type": "error"
    },
    {
      "inputs": [
        {
          "internalType": "uint256",
          "name": "tokenId",
          "type": "uint256"
        }
      ],
      "name": "ERC721NonexistentToken",
      "type": "error"
    },
    {
      "inputs": [],
      "name": "InvalidToken",
      "type": "error"
    },
    {
      "inputs": [],
      "name": "NotAvailable",
      "type": "error"
    },
    {
      "inputs": [],
      "name": "PaymentFailed",
      "type": "error"
    },
    {
      "inputs": [],
      "name": "ReentrancyGuardReentrantCall",
      "type": "error"
    },
    {
      "inputs": [
        {
          "internalType": "address",
          "name": "token",
          "type": "address"
        }
      ],
      "name": "SafeERC20FailedOperation",
      "type": "error"
    },
    {
      "inputs": [],
      "name": "Unauthorized",
      "type": "error"
    },
    {
      "anonymous": false,
      "inputs": [
        {
          "indexed": true,
          "internalType": "address",
          "name": "owner",
          "type": "address"
        },
        {
          "indexed": true,
          "internalType": "address",
          "name": "approved",
          "type": "address"
        },
        {
          "indexed": true,
          "internalType": "uint256",
          "name": "tokenId",
          "type": "uint256"
        }
      ],
      "name": "Approval",
      "type": "event"
    },
    {
      "anonymous": false,
      "inputs": [
        {
          "indexed": true,
          "internalType": "address",
          "name": "owner",
          "type": "address"
        },
        {
          "indexed": true,
          "internalType": "address",
          "name": "operator",
          "type": "address"
        },
        {
          "indexed": false,
          "internalType": "bool",
          "name": "approved",
          "type": "bool"
        }
      ],
      "name": "ApprovalForAll",
      "type": "event"
    },
    {
      "anonymous": false,
      "inputs": [
        {
          "indexed": false,
          "internalType": "uint256",
          "name": "_fromTokenId",
          "type": "uint256"
        },
        {
          "indexed": false,
          "internalType": "uint256",
          "name": "_toTokenId",
          "type": "uint256"
        }
      ],
      "name": "BatchMetadataUpdate",
      "type": "event"
    },
    {
      "anonymous": false,
      "inputs": [
        {
          "indexed": true,
          "internalType": "uint256",
          "name": "tokenId",
          "type": "uint256"
        },
        {
          "indexed": false,
          "internalType": "uint256",
          "name": "value",
          "type": "uint256"
        }
      ],
      "name": "HouseListed",
      "type": "event"
    },
    {
      "anonymous": false,
      "inputs": [
        {
          "indexed": true,
          "internalType": "uint256",
          "name": "tokenId",
          "type": "uint256"
        },
        {
          "indexed": true,
          "internalType": "address",
          "name": "owner",
          "type": "address"
        },
        {
          "indexed": false,
          "internalType": "string",
          "name": "name",
          "type": "string"
        },
        {
          "indexed": false,
          "internalType": "enum ResourceToken.ResourceType",
          "name": "resourceType",
          "type": "uint8"
        },
        {
          "indexed": false,
          "internalType": "uint256",
          "name": "value",
          "type": "uint256"
        },
        {
          "indexed": false,
          "internalType": "string",
          "name": "ipfsHash",
          "type": "string"
        }
      ],
      "name": "HouseMinted",
      "type": "event"
    },
    {
      "anonymous": false,
      "inputs": [
        {
          "indexed": true,
          "internalType": "uint256",
          "name": "tokenId",
          "type": "uint256"
        },
        {
          "indexed": true,
          "internalType": "address",
          "name": "buyer",
          "type": "address"
        },
        {
          "indexed": false,
          "internalType": "uint256",
          "name": "value",
          "type": "uint256"
        }
      ],
      "name": "HousePurchased",
      "type": "event"
    },
    {
      "anonymous": false,
      "inputs": [
        {
          "indexed": false,
          "internalType": "uint256",
          "name": "_tokenId",
          "type": "uint256"
        }
      ],
      "name": "MetadataUpdate",
      "type": "event"
    },
    {
      "anonymous": false,
      "inputs": [
        {
          "indexed": true,
          "internalType": "address",
          "name": "from",
          "type": "address"
        },
        {
          "indexed": true,
          "internalType": "address",
          "name": "to",
          "type": "address"
        },
        {
          "indexed": true,
          "internalType": "uint256",
          "name": "tokenId",
          "type": "uint256"
        }
      ],
      "name": "Transfer",
      "type": "event"
    },
    {
      "inputs": [
        {
          "internalType": "address",
          "name": "to",
          "type": "address"
        },
        {
          "internalType": "uint256",
          "name": "tokenId",
          "type": "uint256"
        }
      ],
      "name": "approve",
      "outputs": [],
      "stateMutability": "nonpayable",
      "type": "function"
    },
    {
      "inputs": [
        {
          "internalType": "address",
          "name": "owner",
          "type": "address"
        }
      ],
      "name": "balanceOf",
      "outputs": [
        {
          "internalType": "uint256",
          "name": "",
          "type": "uint256"
        }
      ],
      "stateMutability": "view",
      "type": "function"
    },
    {
      "inputs": [
        {
          "internalType": "uint256",
          "name": "tokenId",
          "type": "uint256"
        }
      ],
      "name": "getApproved",
      "outputs": [
        {
          "internalType": "address",
          "name": "",
          "type": "address"
        }
      ],
      "stateMutability": "view",
      "type": "function"
    },
    {
      "inputs": [],
      "name": "getAvailableHouses",
      "outputs": [
        {
          "internalType": "uint256[]",
          "name": "",
          "type": "uint256[]"
        },
        {
          "internalType": "address[]",
          "name": "",
          "type": "address[]"
        }
      ],
      "stateMutability": "view",
      "type": "function"
    },
    {
      "inputs": [
        {
          "internalType": "uint256",
          "name": "tokenId",
          "type": "uint256"
        }
      ],
      "name": "getHouse",
      "outputs": [
        {
          "internalType": "string",
          "name": "name",
          "type": "string"
        },
        {
          "internalType": "string",
          "name": "resourceType",
          "type": "string"
        },
        {
          "internalType": "uint256",
          "name": "value",
          "type": "uint256"
        },
        {
          "internalType": "string",
          "name": "ipfsHash",
          "type": "string"
        },
        {
          "internalType": "uint256",
          "name": "createdAt",
          "type": "uint256"
        },
        {
          "internalType": "uint256",
          "name": "lastTransferAt",
          "type": "uint256"
        },
        {
          "internalType": "bool",
          "name": "available",
          "type": "bool"
        }
      ],
      "stateMutability": "view",
      "type": "function"
    },
    {
      "inputs": [],
      "name": "getMyHouses",
      "outputs": [
        {
          "internalType": "uint256[]",
          "name": "",
          "type": "uint256[]"
        }
      ],
      "stateMutability": "view",
      "type": "function"
    },
    {
      "inputs": [],
      "name": "getResourceTypes",
      "outputs": [
        {
          "internalType": "string[]",
          "name": "",
          "type": "string[]"
        }
      ],
      "stateMutability": "pure",
      "type": "function"
    },
    {
      "inputs": [
        {
          "internalType": "uint256",
          "name": "",
          "type": "uint256"
        }
      ],
      "name": "houses",
      "outputs": [
        {
          "internalType": "string",
          "name": "name",
          "type": "string"
        },
        {
          "internalType": "enum ResourceToken.ResourceType",
          "name": "resourceType",
          "type": "uint8"
        },
        {
          "internalType": "uint256",
          "name": "value",
          "type": "uint256"
        },
        {
          "internalType": "string",
          "name": "ipfsHash",
          "type": "string"
        },
        {
          "internalType": "uint256",
          "name": "createdAt",
          "type": "uint256"
        },
        {
          "internalType": "uint256",
          "name": "lastTransferAt",
          "type": "uint256"
        },
        {
          "internalType": "bool",
          "name": "available",
          "type": "bool"
        }
      ],
      "stateMutability": "view",
      "type": "function"
    },
    {
      "inputs": [
        {
          "internalType": "address",
          "name": "owner",
          "type": "address"
        },
        {
          "internalType": "address",
          "name": "operator",
          "type": "address"
        }
      ],
      "name": "isApprovedForAll",
      "outputs": [
        {
          "internalType": "bool",
          "name": "",
          "type": "bool"
        }
      ],
      "stateMutability": "view",
      "type": "function"
    },
    {
      "inputs": [
        {
          "internalType": "address",
          "name": "",
          "type": "address"
        }
      ],
      "name": "lastTransactionTime",
      "outputs": [
        {
          "internalType": "uint256",
          "name": "",
          "type": "uint256"
        }
      ],
      "stateMutability": "view",
      "type": "function"
    },
    {
      "inputs": [
        {
          "internalType": "uint256",
          "name": "tokenId",
          "type": "uint256"
        },
        {
          "internalType": "uint256",
          "name": "value",
          "type": "uint256"
        }
      ],
      "name": "listHouseForSale",
      "outputs": [],
      "stateMutability": "nonpayable",
      "type": "function"
    },
    {
      "inputs": [],
      "name": "maxOwnership",
      "outputs": [
        {
          "internalType": "uint256",
          "name": "",
          "type": "uint256"
        }
      ],
      "stateMutability": "view",
      "type": "function"
    },
    {
      "inputs": [
        {
          "internalType": "string",
          "name": "name",
          "type": "string"
        },
        {
          "internalType": "enum ResourceToken.ResourceType",
          "name": "resourceType",
          "type": "uint8"
        },
        {
          "internalType": "uint256",
          "name": "value",
          "type": "uint256"
        },
        {
          "internalType": "string",
          "name": "ipfsHash",
          "type": "string"
        }
      ],
      "name": "mintHouse",
      "outputs": [
        {
          "internalType": "uint256",
          "name": "",
          "type": "uint256"
        }
      ],
      "stateMutability": "nonpayable",
      "type": "function"
    },
    {
      "inputs": [],
      "name": "name",
      "outputs": [
        {
          "internalType": "string",
          "name": "",
          "type": "string"
        }
      ],
      "stateMutability": "view",
      "type": "function"
    },
    {
      "inputs": [
        {
          "internalType": "uint256",
          "name": "tokenId",
          "type": "uint256"
        }
      ],
      "name": "ownerOf",
      "outputs": [
        {
          "internalType": "address",
          "name": "",
          "type": "address"
        }
      ],
      "stateMutability": "view",
      "type": "function"
    },
    {
      "inputs": [
        {
          "internalType": "uint256",
          "name": "tokenId",
          "type": "uint256"
        }
      ],
      "name": "purchaseHouse",
      "outputs": [],
      "stateMutability": "nonpayable",
      "type": "function"
    },
    {
      "inputs": [
        {
          "internalType": "address",
          "name": "from",
          "type": "address"
        },
        {
          "internalType": "address",
          "name": "to",
          "type": "address"
        },
        {
          "internalType": "uint256",
          "name": "tokenId",
          "type": "uint256"
        }
      ],
      "name": "safeTransferFrom",
      "outputs": [],
      "stateMutability": "nonpayable",
      "type": "function"
    },
    {
      "inputs": [
        {
          "internalType": "address",
          "name": "from",
          "type": "address"
        },
        {
          "internalType": "address",
          "name": "to",
          "type": "address"
        },
        {
          "internalType": "uint256",
          "name": "tokenId",
          "type": "uint256"
        },
        {
          "internalType": "bytes",
          "name": "data",
          "type": "bytes"
        }
      ],
      "name": "safeTransferFrom",
      "outputs": [],
      "stateMutability": "nonpayable",
      "type": "function"
    },
    {
      "inputs": [
        {
          "internalType": "address",
          "name": "operator",
          "type": "address"
        },
        {
          "internalType": "bool",
          "name": "approved",
          "type": "bool"
        }
      ],
      "name": "setApprovalForAll",
      "outputs": [],
      "stateMutability": "nonpayable",
      "type": "function"
    },
    {
      "inputs": [
        {
          "internalType": "bytes4",
          "name": "interfaceId",
          "type": "bytes4"
        }
      ],
      "name": "supportsInterface",
      "outputs": [
        {
          "internalType": "bool",
          "name": "",
          "type": "bool"
        }
      ],
      "stateMutability": "view",
      "type": "function"
    },
    {
      "inputs": [],
      "name": "symbol",
      "outputs": [
        {
          "internalType": "string",
          "name": "",
          "type": "string"
        }
      ],
      "stateMutability": "view",
      "type": "function"
    },
    {
      "inputs": [
        {
          "internalType": "uint256",
          "name": "tokenId",
          "type": "uint256"
        }
      ],
      "name": "tokenURI",
      "outputs": [
        {
          "internalType": "string",
          "name": "",
          "type": "string"
        }
      ],
      "stateMutability": "view",
      "type": "function"
    },
    {
      "inputs": [],
      "name": "transactionCooldown",
      "outputs": [
        {
          "internalType": "uint256",
          "name": "",
          "type": "uint256"
        }
      ],
      "stateMutability": "view",
      "type": "function"
    },
    {
      "inputs": [
        {
          "internalType": "address",
          "name": "from",
          "type": "address"
        },
        {
          "internalType": "address",
          "name": "to",
          "type": "address"
        },
        {
          "internalType": "uint256",
          "name": "tokenId",
          "type": "uint256"
        }
      ],
      "name": "transferFrom",
      "outputs": [],
      "stateMutability": "nonpayable",
      "type": "function"
    }
  ],
  "bytecode": "0x60806040526004600a5561012c600b5534801561001b57600080fd5b5060405161460f38038061460f833981810160405281019061003d9190610185565b6040518060400160405280600d81526020017f5265736f75726365546f6b656e000000000000000000000000000000000000008152506040518060400160405280600381526020017f52544b000000000000000000000000000000000000000000000000000000000081525081600090816100b89190610402565b5080600190816100c89190610402565b5050506001600781905550600060088190555080600960006101000a81548173ffffffffffffffffffffffffffffffffffffffff021916908373ffffffffffffffffffffffffffffffffffffffff160217905550506104d4565b600080fd5b600073ffffffffffffffffffffffffffffffffffffffff82169050919050565b600061015282610127565b9050919050565b61016281610147565b811461016d57600080fd5b50565b60008151905061017f81610159565b92915050565b60006020828403121561019b5761019a610122565b5b60006101a984828501610170565b91505092915050565b600081519050919050565b7f4e487b7100000000000000000000000000000000000000000000000000000000600052604160045260246000fd5b7f4e487b7100000000000000000000000000000000000000000000000000000000600052602260045260246000fd5b6000600282049050600182168061023357607f821691505b602082108103610246576102456101ec565b5b50919050565b60008190508160005260206000209050919050565b60006020601f8301049050919050565b600082821b905092915050565b6000600883026102ae7fffffffffffffffffffffffffffffffffffffffffffffffffffffffffffffffff82610271565b6102b88683610271565b95508019841693508086168417925050509392505050565b6000819050919050565b6000819050919050565b60006102ff6102fa6102f5846102d0565b6102da565b6102d0565b9050919050565b6000819050919050565b610319836102e4565b61032d61032582610306565b84845461027e565b825550505050565b600090565b610342610335565b61034d818484610310565b505050565b5b818110156103715761036660008261033a565b600181019050610353565b5050565b601f8211156103b6576103878161024c565b61039084610261565b8101602085101561039f578190505b6103b36103ab85610261565b830182610352565b50505b505050565b600082821c905092915050565b60006103d9600019846008026103bb565b1980831691505092915050565b60006103f283836103c8565b9150826002028217905092915050565b61040b826101b2565b67ffffffffffffffff811115610424576104236101bd565b5b61042e825461021b565b610439828285610375565b600060209050601f83116001811461046c576000841561045a578287015190505b61046485826103e6565b8655506104cc565b601f19841661047a8661024c565b60005b828110156104a25784890151825560018201915060208501945060208101905061047d565b868310156104bf57848901516104bb601f8916826103c8565b8355505b6001600288020188555050505b505050505050565b61412c806104e36000396000f3fe608060405234801561001057600080fd5b50600436106101585760003560e01c80637e683845116100c3578063b88d4fde1161007c578063b88d4fde146103f9578063c87b56dd14610415578063c9fd96ad14610445578063d3691b0014610461578063e75b207314610480578063e985e9c5146104b057610158565b80637e6838451461031d578063923dcb8b1461034d57806395d89b411461036b578063a22cb46514610389578063aeda852f146103a5578063b14f1afd146103db57610158565b80633107c99d116101155780633107c99d1461022f578063395a221e1461026557806342842e0e146102835780636352211e1461029f57806365fda1f7146102cf57806370a08231146102ed57610158565b806301ffc9a71461015d57806306fdde031461018d578063081812fc146101ab578063095ea7b3146101db5780631775b534146101f757806323b872dd14610213575b600080fd5b61017760048036038101906101729190612e31565b6104e0565b6040516101849190612e79565b60405180910390f35b610195610541565b6040516101a29190612f24565b60405180910390f35b6101c560048036038101906101c09190612f7c565b6105d3565b6040516101d29190612fea565b60405180910390f35b6101f560048036038101906101f09190613031565b6105ef565b005b610211600480360381019061020c9190612f7c565b610605565b005b61022d60048036038101906102289190613071565b610a1d565b005b61024960048036038101906102449190612f7c565b610b1f565b60405161025c97969594939291906130d3565b60405180910390f35b61026d610cfd565b60405161027a9190613157565b60405180910390f35b61029d60048036038101906102989190613071565b610d03565b005b6102b960048036038101906102b49190612f7c565b610d23565b6040516102c69190612fea565b60405180910390f35b6102d7610d35565b6040516102e49190613157565b60405180910390f35b61030760048036038101906103029190613172565b610d3b565b6040516103149190613157565b60405180910390f35b610337600480360381019061033291906132f9565b610df5565b6040516103449190613157565b60405180910390f35b61035561103e565b60405161036291906134a4565b60405180910390f35b610373611199565b6040516103809190612f24565b60405180910390f35b6103a3600480360381019061039e91906134f2565b61122b565b005b6103bf60048036038101906103ba9190612f7c565b611241565b6040516103d297969594939291906135a9565b60405180910390f35b6103e36113ad565b6040516103f091906136e4565b60405180910390f35b610413600480360381019061040e91906137a7565b6114fa565b005b61042f600480360381019061042a9190612f7c565b61151f565b60405161043c9190612f24565b60405180910390f35b61045f600480360381019061045a919061382a565b611632565b005b610469611780565b604051610477929190613928565b60405180910390f35b61049a60048036038101906104959190613172565b61195b565b6040516104a79190613157565b60405180910390f35b6104ca60048036038101906104c5919061395f565b611973565b6040516104d79190612e79565b60405180910390f35b6000634906490660e01b7bffffffffffffffffffffffffffffffffffffffffffffffffffffffff1916827bffffffffffffffffffffffffffffffffffffffffffffffffffffffff1916148061053a575061053982611a07565b5b9050919050565b606060008054610550906139ce565b80601f016020809104026020016040519081016040528092919081815260200182805461057c906139ce565b80156105c95780601f1061059e576101008083540402835291602001916105c9565b820191906000526020600020905b8154815290600101906020018083116105ac57829003601f168201915b5050505050905090565b60006105de82611ae9565b506105e882611b71565b9050919050565b61060182826105fc611bae565b611bb6565b5050565b61060d611bc8565b600c600082815260200190815260200160002060070160009054906101000a900460ff16610667576040517fd9b9141900000000000000000000000000000000000000000000000000000000815260040160405180910390fd5b3373ffffffffffffffffffffffffffffffffffffffff1661068782610d23565b73ffffffffffffffffffffffffffffffffffffffff16036106d4576040517f82b4290000000000000000000000000000000000000000000000000000000000815260040160405180910390fd5b600b54600d60003373ffffffffffffffffffffffffffffffffffffffff1673ffffffffffffffffffffffffffffffffffffffff168152602001908152602001600020546107219190613a2e565b42101561075a576040517faa9a98df00000000000000000000000000000000000000000000000000000000815260040160405180910390fd5b600061076582610d23565b90506000600c600084815260200190815260200160002060020154905080600960009054906101000a900473ffffffffffffffffffffffffffffffffffffffff1673ffffffffffffffffffffffffffffffffffffffff1663dd62ed3e33306040518363ffffffff1660e01b81526004016107e0929190613a62565b602060405180830381865afa1580156107fd573d6000803e3d6000fd5b505050506040513d601f19601f820116820180604052508101906108219190613aa0565b1015610862576040517f08c379a000000000000000000000000000000000000000000000000000000000815260040161085990613b19565b60405180910390fd5b6108b1338383600960009054906101000a900473ffffffffffffffffffffffffffffffffffffffff1673ffffffffffffffffffffffffffffffffffffffff16611c0e909392919063ffffffff16565b6108bc823385611c90565b600c6000848152602001908152602001600020600401829080600181540180825580915050600190039060005260206000200160009091909190916101000a81548173ffffffffffffffffffffffffffffffffffffffff021916908373ffffffffffffffffffffffffffffffffffffffff16021790555042600c6000858152602001908152602001600020600601819055506000600c600085815260200190815260200160002060070160006101000a81548160ff02191690831515021790555042600d60003373ffffffffffffffffffffffffffffffffffffffff1673ffffffffffffffffffffffffffffffffffffffff168152602001908152602001600020819055503373ffffffffffffffffffffffffffffffffffffffff16837f2ad8a3868f4623be3d61a829e19c896cdf5d7a0c71e4341b4bc1a92e093b546983604051610a089190613157565b60405180910390a35050610a1a611dfd565b50565b600073ffffffffffffffffffffffffffffffffffffffff168273ffffffffffffffffffffffffffffffffffffffff1603610a8f5760006040517f64a0ae92000000000000000000000000000000000000000000000000000000008152600401610a869190612fea565b60405180910390fd5b6000610aa38383610a9e611bae565b611e07565b90508373ffffffffffffffffffffffffffffffffffffffff168173ffffffffffffffffffffffffffffffffffffffff1614610b19578382826040517f64283d7b000000000000000000000000000000000000000000000000000000008152600401610b1093929190613b39565b60405180910390fd5b50505050565b60608060006060600080600080881480610b3a575060085488115b15610b71576040517fc1ab6dc100000000000000000000000000000000000000000000000000000000815260040160405180910390fd5b6000600c60008a8152602001908152602001600020905080600001610ba68260010160009054906101000a900460ff16612021565b826002015483600301846005015485600601548660070160009054906101000a900460ff16868054610bd7906139ce565b80601f0160208091040260200160405190810160405280929190818152602001828054610c03906139ce565b8015610c505780601f10610c2557610100808354040283529160200191610c50565b820191906000526020600020905b815481529060010190602001808311610c3357829003601f168201915b50505050509650838054610c63906139ce565b80601f0160208091040260200160405190810160405280929190818152602001828054610c8f906139ce565b8015610cdc5780601f10610cb157610100808354040283529160200191610cdc565b820191906000526020600020905b815481529060010190602001808311610cbf57829003601f168201915b50505050509350975097509750975097509750975050919395979092949650565b600a5481565b610d1e838383604051806020016040528060008152506114fa565b505050565b6000610d2e82611ae9565b9050919050565b600b5481565b60008073ffffffffffffffffffffffffffffffffffffffff168273ffffffffffffffffffffffffffffffffffffffff1603610dae5760006040517f89c62b64000000000000000000000000000000000000000000000000000000008152600401610da59190612fea565b60405180910390fd5b600360008373ffffffffffffffffffffffffffffffffffffffff1673ffffffffffffffffffffffffffffffffffffffff168152602001908152602001600020549050919050565b6000600a54610e0333610d3b565b10610e43576040517f08c379a0000000000000000000000000000000000000000000000000000000008152600401610e3a90613bbc565b60405180910390fd5b600160086000828254610e569190613a2e565b9250508190555060006008549050610e6e3382612175565b610e78818461226e565b604051806101000160405280878152602001866002811115610e9d57610e9c613532565b5b8152602001858152602001848152602001600067ffffffffffffffff811115610ec957610ec86131a9565b5b604051908082528060200260200182016040528015610ef75781602001602082028036833780820191505090505b50815260200142815260200142815260200160011515815250600c60008381526020019081526020016000206000820151816000019081610f389190613d88565b5060208201518160010160006101000a81548160ff02191690836002811115610f6457610f63613532565b5b0217905550604082015181600201556060820151816003019081610f889190613d88565b506080820151816004019080519060200190610fa5929190612d1e565b5060a0820151816005015560c0820151816006015560e08201518160070160006101000a81548160ff0219169083151502179055509050503373ffffffffffffffffffffffffffffffffffffffff16817fbbee3cf746bddac78ee7bce599c3345323fbade680a8ba314f7374126f6ca8128888888860405161102a9493929190613e5a565b60405180910390a380915050949350505050565b60606000600367ffffffffffffffff81111561105d5761105c6131a9565b5b60405190808252806020026020018201604052801561109057816020015b606081526020019060019003908161107b5790505b5090506040518060400160405280600681526020017f4d4149534f4e0000000000000000000000000000000000000000000000000000815250816000815181106110dd576110dc613ead565b5b60200260200101819052506040518060400160405280600581526020017f56494c4c410000000000000000000000000000000000000000000000000000008152508160018151811061113257611131613ead565b5b60200260200101819052506040518060400160405280600581526020017f484f54454c0000000000000000000000000000000000000000000000000000008152508160028151811061118757611186613ead565b5b60200260200101819052508091505090565b6060600180546111a8906139ce565b80601f01602080910402602001604051908101604052809291908181526020018280546111d4906139ce565b80156112215780601f106111f657610100808354040283529160200191611221565b820191906000526020600020905b81548152906001019060200180831161120457829003601f168201915b5050505050905090565b61123d611236611bae565b83836122ca565b5050565b600c602052806000526040600020600091509050806000018054611264906139ce565b80601f0160208091040260200160405190810160405280929190818152602001828054611290906139ce565b80156112dd5780601f106112b2576101008083540402835291602001916112dd565b820191906000526020600020905b8154815290600101906020018083116112c057829003601f168201915b5050505050908060010160009054906101000a900460ff169080600201549080600301805461130b906139ce565b80601f0160208091040260200160405190810160405280929190818152602001828054611337906139ce565b80156113845780601f1061135957610100808354040283529160200191611384565b820191906000526020600020905b81548152906001019060200180831161136757829003601f168201915b5050505050908060050154908060060154908060070160009054906101000a900460ff16905087565b606060006113ba33610d3b565b90506000810361141657600067ffffffffffffffff8111156113df576113de6131a9565b5b60405190808252806020026020018201604052801561140d5781602001602082028036833780820191505090505b509150506114f7565b60008167ffffffffffffffff811115611432576114316131a9565b5b6040519080825280602002602001820160405280156114605781602001602082028036833780820191505090505b509050600080600190505b60085481116114ef573373ffffffffffffffffffffffffffffffffffffffff1661149482610d23565b73ffffffffffffffffffffffffffffffffffffffff16036114dc57808383806114bc90613edc565b9450815181106114cf576114ce613ead565b5b6020026020010181815250505b80806114e790613edc565b91505061146b565b508193505050505b90565b611505848484610a1d565b611519611510611bae565b85858585612439565b50505050565b606061152a82611ae9565b50600060066000848152602001908152602001600020805461154b906139ce565b80601f0160208091040260200160405190810160405280929190818152602001828054611577906139ce565b80156115c45780601f10611599576101008083540402835291602001916115c4565b820191906000526020600020905b8154815290600101906020018083116115a757829003601f168201915b5050505050905060006115d56125ea565b905060008151036115ea57819250505061162d565b60008251111561161f578082604051602001611607929190613f60565b6040516020818303038152906040529250505061162d565b61162884612601565b925050505b919050565b3373ffffffffffffffffffffffffffffffffffffffff1661165283610d23565b73ffffffffffffffffffffffffffffffffffffffff161461169f576040517f82b4290000000000000000000000000000000000000000000000000000000000815260040160405180910390fd5b600c600083815260200190815260200160002060070160009054906101000a900460ff16156116fa576040517fff7ba76e00000000000000000000000000000000000000000000000000000000815260040160405180910390fd5b80600c6000848152602001908152602001600020600201819055506001600c600084815260200190815260200160002060070160006101000a81548160ff021916908315150217905550817f3f6ac9180cf2abdb472ec4d379a6654a5253af404f295f2e027f63b39c88b3c9826040516117749190613157565b60405180910390a25050565b606080600080600190505b60085481116117df57600c600082815260200190815260200160002060070160009054906101000a900460ff16156117cc5781806117c890613edc565b9250505b80806117d790613edc565b91505061178b565b5060008167ffffffffffffffff8111156117fc576117fb6131a9565b5b60405190808252806020026020018201604052801561182a5781602001602082028036833780820191505090505b50905060008267ffffffffffffffff811115611849576118486131a9565b5b6040519080825280602002602001820160405280156118775781602001602082028036833780820191505090505b509050600080600190505b600854811161194c57600c600082815260200190815260200160002060070160009054906101000a900460ff161561193957808483815181106118c8576118c7613ead565b5b6020026020010181815250506118dd81610d23565b8383815181106118f0576118ef613ead565b5b602002602001019073ffffffffffffffffffffffffffffffffffffffff16908173ffffffffffffffffffffffffffffffffffffffff1681525050818061193590613edc565b9250505b808061194490613edc565b915050611882565b50828295509550505050509091565b600d6020528060005260406000206000915090505481565b6000600560008473ffffffffffffffffffffffffffffffffffffffff1673ffffffffffffffffffffffffffffffffffffffff16815260200190815260200160002060008373ffffffffffffffffffffffffffffffffffffffff1673ffffffffffffffffffffffffffffffffffffffff16815260200190815260200160002060009054906101000a900460ff16905092915050565b60007f80ac58cd000000000000000000000000000000000000000000000000000000007bffffffffffffffffffffffffffffffffffffffffffffffffffffffff1916827bffffffffffffffffffffffffffffffffffffffffffffffffffffffff19161480611ad257507f5b5e139f000000000000000000000000000000000000000000000000000000007bffffffffffffffffffffffffffffffffffffffffffffffffffffffff1916827bffffffffffffffffffffffffffffffffffffffffffffffffffffffff1916145b80611ae25750611ae18261266a565b5b9050919050565b600080611af5836126d4565b9050600073ffffffffffffffffffffffffffffffffffffffff168173ffffffffffffffffffffffffffffffffffffffff1603611b6857826040517f7e273289000000000000000000000000000000000000000000000000000000008152600401611b5f9190613157565b60405180910390fd5b80915050919050565b60006004600083815260200190815260200160002060009054906101000a900473ffffffffffffffffffffffffffffffffffffffff169050919050565b600033905090565b611bc38383836001612711565b505050565b600260075403611c04576040517f3ee5aeb500000000000000000000000000000000000000000000000000000000815260040160405180910390fd5b6002600781905550565b611c8a848573ffffffffffffffffffffffffffffffffffffffff166323b872dd868686604051602401611c4393929190613f84565b604051602081830303815290604052915060e01b6020820180517bffffffffffffffffffffffffffffffffffffffffffffffffffffffff83818316178352505050506128d6565b50505050565b600073ffffffffffffffffffffffffffffffffffffffff168273ffffffffffffffffffffffffffffffffffffffff1603611d025760006040517f64a0ae92000000000000000000000000000000000000000000000000000000008152600401611cf99190612fea565b60405180910390fd5b6000611d1083836000611e07565b9050600073ffffffffffffffffffffffffffffffffffffffff168173ffffffffffffffffffffffffffffffffffffffff1603611d8357816040517f7e273289000000000000000000000000000000000000000000000000000000008152600401611d7a9190613157565b60405180910390fd5b8373ffffffffffffffffffffffffffffffffffffffff168173ffffffffffffffffffffffffffffffffffffffff1614611df7578382826040517f64283d7b000000000000000000000000000000000000000000000000000000008152600401611dee93929190613b39565b60405180910390fd5b50505050565b6001600781905550565b600080611e13846126d4565b9050600073ffffffffffffffffffffffffffffffffffffffff168373ffffffffffffffffffffffffffffffffffffffff1614611e5557611e54818486612978565b5b600073ffffffffffffffffffffffffffffffffffffffff168173ffffffffffffffffffffffffffffffffffffffff1614611ee657611e97600085600080612711565b6001600360008373ffffffffffffffffffffffffffffffffffffffff1673ffffffffffffffffffffffffffffffffffffffff168152602001908152602001600020600082825403925050819055505b600073ffffffffffffffffffffffffffffffffffffffff168573ffffffffffffffffffffffffffffffffffffffff1614611f69576001600360008773ffffffffffffffffffffffffffffffffffffffff1673ffffffffffffffffffffffffffffffffffffffff168152602001908152602001600020600082825401925050819055505b846002600086815260200190815260200160002060006101000a81548173ffffffffffffffffffffffffffffffffffffffff021916908373ffffffffffffffffffffffffffffffffffffffff160217905550838573ffffffffffffffffffffffffffffffffffffffff168273ffffffffffffffffffffffffffffffffffffffff167fddf252ad1be2c89b69c2b068fc378daa952ba7f163c4a11628f55a4df523b3ef60405160405180910390a4809150509392505050565b60606000600281111561203757612036613532565b5b82600281111561204a57612049613532565b5b0361208c576040518060400160405280600681526020017f4d4149534f4e00000000000000000000000000000000000000000000000000008152509050612170565b600160028111156120a05761209f613532565b5b8260028111156120b3576120b2613532565b5b036120f5576040518060400160405280600581526020017f56494c4c410000000000000000000000000000000000000000000000000000008152509050612170565b60028081111561210857612107613532565b5b82600281111561211b5761211a613532565b5b0361215d576040518060400160405280600581526020017f484f54454c0000000000000000000000000000000000000000000000000000008152509050612170565b6040518060200160405280600081525090505b919050565b600073ffffffffffffffffffffffffffffffffffffffff168273ffffffffffffffffffffffffffffffffffffffff16036121e75760006040517f64a0ae920000000000000000000000000000000000000000000000000000000081526004016121de9190612fea565b60405180910390fd5b60006121f583836000611e07565b9050600073ffffffffffffffffffffffffffffffffffffffff168173ffffffffffffffffffffffffffffffffffffffff16146122695760006040517f73c6ac6e0000000000000000000000000000000000000000000000000000000081526004016122609190612fea565b60405180910390fd5b505050565b8060066000848152602001908152602001600020908161228e9190613d88565b507ff8e1a15aba9398e019f0b49df1a4fde98ee17ae345cb5f6b5e2c27f5033e8ce7826040516122be9190613157565b60405180910390a15050565b600073ffffffffffffffffffffffffffffffffffffffff168273ffffffffffffffffffffffffffffffffffffffff160361233b57816040517f5b08ba180000000000000000000000000000000000000000000000000000000081526004016123329190612fea565b60405180910390fd5b80600560008573ffffffffffffffffffffffffffffffffffffffff1673ffffffffffffffffffffffffffffffffffffffff16815260200190815260200160002060008473ffffffffffffffffffffffffffffffffffffffff1673ffffffffffffffffffffffffffffffffffffffff16815260200190815260200160002060006101000a81548160ff0219169083151502179055508173ffffffffffffffffffffffffffffffffffffffff168373ffffffffffffffffffffffffffffffffffffffff167f17307eab39ab6107e8899845ad3d59bd9653f200f220920489ca2b5937696c318360405161242c9190612e79565b60405180910390a3505050565b60008373ffffffffffffffffffffffffffffffffffffffff163b11156125e3578273ffffffffffffffffffffffffffffffffffffffff1663150b7a02868685856040518563ffffffff1660e01b81526004016124989493929190614010565b6020604051808303816000875af19250505080156124d457506040513d601f19601f820116820180604052508101906124d19190614071565b60015b612558573d8060008114612504576040519150601f19603f3d011682016040523d82523d6000602084013e612509565b606091505b50600081510361255057836040517f64a0ae920000000000000000000000000000000000000000000000000000000081526004016125479190612fea565b60405180910390fd5b805181602001fd5b63150b7a0260e01b7bffffffffffffffffffffffffffffffffffffffffffffffffffffffff1916817bffffffffffffffffffffffffffffffffffffffffffffffffffffffff1916146125e157836040517f64a0ae920000000000000000000000000000000000000000000000000000000081526004016125d89190612fea565b60405180910390fd5b505b5050505050565b606060405180602001604052806000815250905090565b606061260c82611ae9565b5060006126176125ea565b905060008151116126375760405180602001604052806000815250612662565b8061264184612a3c565b604051602001612652929190613f60565b6040516020818303038152906040525b915050919050565b60007f01ffc9a7000000000000000000000000000000000000000000000000000000007bffffffffffffffffffffffffffffffffffffffffffffffffffffffff1916827bffffffffffffffffffffffffffffffffffffffffffffffffffffffff1916149050919050565b60006002600083815260200190815260200160002060009054906101000a900473ffffffffffffffffffffffffffffffffffffffff169050919050565b808061274a5750600073ffffffffffffffffffffffffffffffffffffffff168273ffffffffffffffffffffffffffffffffffffffff1614155b1561287e57600061275a84611ae9565b9050600073ffffffffffffffffffffffffffffffffffffffff168373ffffffffffffffffffffffffffffffffffffffff16141580156127c557508273ffffffffffffffffffffffffffffffffffffffff168173ffffffffffffffffffffffffffffffffffffffff1614155b80156127d857506127d68184611973565b155b1561281a57826040517fa9fbf51f0000000000000000000000000000000000000000000000000000000081526004016128119190612fea565b60405180910390fd5b811561287c57838573ffffffffffffffffffffffffffffffffffffffff168273ffffffffffffffffffffffffffffffffffffffff167f8c5be1e5ebec7d5bd14f71427d1e84f3dd0314c0f7b2291e5b200ac8c7c3b92560405160405180910390a45b505b836004600085815260200190815260200160002060006101000a81548173ffffffffffffffffffffffffffffffffffffffff021916908373ffffffffffffffffffffffffffffffffffffffff16021790555050505050565b600080602060008451602086016000885af1806128f9576040513d6000823e3d81fd5b3d925060005191505060008214612914576001811415612930565b60008473ffffffffffffffffffffffffffffffffffffffff163b145b1561297257836040517f5274afe70000000000000000000000000000000000000000000000000000000081526004016129699190612fea565b60405180910390fd5b50505050565b612983838383612b0a565b612a3757600073ffffffffffffffffffffffffffffffffffffffff168373ffffffffffffffffffffffffffffffffffffffff16036129f857806040517f7e2732890000000000000000000000000000000000000000000000000000000081526004016129ef9190613157565b60405180910390fd5b81816040517f177e802f000000000000000000000000000000000000000000000000000000008152600401612a2e92919061409e565b60405180910390fd5b505050565b606060006001612a4b84612bcb565b01905060008167ffffffffffffffff811115612a6a57612a696131a9565b5b6040519080825280601f01601f191660200182016040528015612a9c5781602001600182028036833780820191505090505b509050600082602001820190505b600115612aff578080600190039150507f3031323334353637383961626364656600000000000000000000000000000000600a86061a8153600a8581612af357612af26140c7565b5b04945060008503612aaa575b819350505050919050565b60008073ffffffffffffffffffffffffffffffffffffffff168373ffffffffffffffffffffffffffffffffffffffff1614158015612bc257508273ffffffffffffffffffffffffffffffffffffffff168473ffffffffffffffffffffffffffffffffffffffff161480612b835750612b828484611973565b5b80612bc157508273ffffffffffffffffffffffffffffffffffffffff16612ba983611b71565b73ffffffffffffffffffffffffffffffffffffffff16145b5b90509392505050565b600080600090507a184f03e93ff9f4daa797ed6e38ed64bf6a1f0100000000000000008310612c29577a184f03e93ff9f4daa797ed6e38ed64bf6a1f0100000000000000008381612c1f57612c1e6140c7565b5b0492506040810190505b6d04ee2d6d415b85acef81000000008310612c66576d04ee2d6d415b85acef81000000008381612c5c57612c5b6140c7565b5b0492506020810190505b662386f26fc100008310612c9557662386f26fc100008381612c8b57612c8a6140c7565b5b0492506010810190505b6305f5e1008310612cbe576305f5e1008381612cb457612cb36140c7565b5b0492506008810190505b6127108310612ce3576127108381612cd957612cd86140c7565b5b0492506004810190505b60648310612d065760648381612cfc57612cfb6140c7565b5b0492506002810190505b600a8310612d15576001810190505b80915050919050565b828054828255906000526020600020908101928215612d97579160200282015b82811115612d965782518260006101000a81548173ffffffffffffffffffffffffffffffffffffffff021916908373ffffffffffffffffffffffffffffffffffffffff16021790555091602001919060010190612d3e565b5b509050612da49190612da8565b5090565b5b80821115612dc1576000816000905550600101612da9565b5090565b6000604051905090565b600080fd5b600080fd5b60007fffffffff0000000000000000000000000000000000000000000000000000000082169050919050565b612e0e81612dd9565b8114612e1957600080fd5b50565b600081359050612e2b81612e05565b92915050565b600060208284031215612e4757612e46612dcf565b5b6000612e5584828501612e1c565b91505092915050565b60008115159050919050565b612e7381612e5e565b82525050565b6000602082019050612e8e6000830184612e6a565b92915050565b600081519050919050565b600082825260208201905092915050565b60005b83811015612ece578082015181840152602081019050612eb3565b60008484015250505050565b6000601f19601f8301169050919050565b6000612ef682612e94565b612f008185612e9f565b9350612f10818560208601612eb0565b612f1981612eda565b840191505092915050565b60006020820190508181036000830152612f3e8184612eeb565b905092915050565b6000819050919050565b612f5981612f46565b8114612f6457600080fd5b50565b600081359050612f7681612f50565b92915050565b600060208284031215612f9257612f91612dcf565b5b6000612fa084828501612f67565b91505092915050565b600073ffffffffffffffffffffffffffffffffffffffff82169050919050565b6000612fd482612fa9565b9050919050565b612fe481612fc9565b82525050565b6000602082019050612fff6000830184612fdb565b92915050565b61300e81612fc9565b811461301957600080fd5b50565b60008135905061302b81613005565b92915050565b6000806040838503121561304857613047612dcf565b5b60006130568582860161301c565b925050602061306785828601612f67565b9150509250929050565b60008060006060848603121561308a57613089612dcf565b5b60006130988682870161301c565b93505060206130a98682870161301c565b92505060406130ba86828701612f67565b9150509250925092565b6130cd81612f46565b82525050565b600060e08201905081810360008301526130ed818a612eeb565b905081810360208301526131018189612eeb565b905061311060408301886130c4565b81810360608301526131228187612eeb565b905061313160808301866130c4565b61313e60a08301856130c4565b61314b60c0830184612e6a565b98975050505050505050565b600060208201905061316c60008301846130c4565b92915050565b60006020828403121561318857613187612dcf565b5b60006131968482850161301c565b91505092915050565b600080fd5b600080fd5b7f4e487b7100000000000000000000000000000000000000000000000000000000600052604160045260246000fd5b6131e182612eda565b810181811067ffffffffffffffff82111715613200576131ff6131a9565b5b80604052505050565b6000613213612dc5565b905061321f82826131d8565b919050565b600067ffffffffffffffff82111561323f5761323e6131a9565b5b61324882612eda565b9050602081019050919050565b82818337600083830152505050565b600061327761327284613224565b613209565b905082815260208101848484011115613293576132926131a4565b5b61329e848285613255565b509392505050565b600082601f8301126132bb576132ba61319f565b5b81356132cb848260208601613264565b91505092915050565b600381106132e157600080fd5b50565b6000813590506132f3816132d4565b92915050565b6000806000806080858703121561331357613312612dcf565b5b600085013567ffffffffffffffff81111561333157613330612dd4565b5b61333d878288016132a6565b945050602061334e878288016132e4565b935050604061335f87828801612f67565b925050606085013567ffffffffffffffff8111156133805761337f612dd4565b5b61338c878288016132a6565b91505092959194509250565b600081519050919050565b600082825260208201905092915050565b6000819050602082019050919050565b600082825260208201905092915050565b60006133e082612e94565b6133ea81856133c4565b93506133fa818560208601612eb0565b61340381612eda565b840191505092915050565b600061341a83836133d5565b905092915050565b6000602082019050919050565b600061343a82613398565b61344481856133a3565b935083602082028501613456856133b4565b8060005b858110156134925784840389528151613473858261340e565b945061347e83613422565b925060208a0199505060018101905061345a565b50829750879550505050505092915050565b600060208201905081810360008301526134be818461342f565b905092915050565b6134cf81612e5e565b81146134da57600080fd5b50565b6000813590506134ec816134c6565b92915050565b6000806040838503121561350957613508612dcf565b5b60006135178582860161301c565b9250506020613528858286016134dd565b9150509250929050565b7f4e487b7100000000000000000000000000000000000000000000000000000000600052602160045260246000fd5b6003811061357257613571613532565b5b50565b600081905061358382613561565b919050565b600061359382613575565b9050919050565b6135a381613588565b82525050565b600060e08201905081810360008301526135c3818a612eeb565b90506135d2602083018961359a565b6135df60408301886130c4565b81810360608301526135f18187612eeb565b905061360060808301866130c4565b61360d60a08301856130c4565b61361a60c0830184612e6a565b98975050505050505050565b600081519050919050565b600082825260208201905092915050565b6000819050602082019050919050565b61365b81612f46565b82525050565b600061366d8383613652565b60208301905092915050565b6000602082019050919050565b600061369182613626565b61369b8185613631565b93506136a683613642565b8060005b838110156136d75781516136be8882613661565b97506136c983613679565b9250506001810190506136aa565b5085935050505092915050565b600060208201905081810360008301526136fe8184613686565b905092915050565b600067ffffffffffffffff821115613721576137206131a9565b5b61372a82612eda565b9050602081019050919050565b600061374a61374584613706565b613209565b905082815260208101848484011115613766576137656131a4565b5b613771848285613255565b509392505050565b600082601f83011261378e5761378d61319f565b5b813561379e848260208601613737565b91505092915050565b600080600080608085870312156137c1576137c0612dcf565b5b60006137cf8782880161301c565b94505060206137e08782880161301c565b93505060406137f187828801612f67565b925050606085013567ffffffffffffffff81111561381257613811612dd4565b5b61381e87828801613779565b91505092959194509250565b6000806040838503121561384157613840612dcf565b5b600061384f85828601612f67565b925050602061386085828601612f67565b9150509250929050565b600081519050919050565b600082825260208201905092915050565b6000819050602082019050919050565b61389f81612fc9565b82525050565b60006138b18383613896565b60208301905092915050565b6000602082019050919050565b60006138d58261386a565b6138df8185613875565b93506138ea83613886565b8060005b8381101561391b57815161390288826138a5565b975061390d836138bd565b9250506001810190506138ee565b5085935050505092915050565b600060408201905081810360008301526139428185613686565b9050818103602083015261395681846138ca565b90509392505050565b6000806040838503121561397657613975612dcf565b5b60006139848582860161301c565b92505060206139958582860161301c565b9150509250929050565b7f4e487b7100000000000000000000000000000000000000000000000000000000600052602260045260246000fd5b600060028204905060018216806139e657607f821691505b6020821081036139f9576139f861399f565b5b50919050565b7f4e487b7100000000000000000000000000000000000000000000000000000000600052601160045260246000fd5b6000613a3982612f46565b9150613a4483612f46565b9250828201905080821115613a5c57613a5b6139ff565b5b92915050565b6000604082019050613a776000830185612fdb565b613a846020830184612fdb565b9392505050565b600081519050613a9a81612f50565b92915050565b600060208284031215613ab657613ab5612dcf565b5b6000613ac484828501613a8b565b91505092915050565b7f496e73756666696369656e7420616c6c6f77616e636500000000000000000000600082015250565b6000613b03601683612e9f565b9150613b0e82613acd565b602082019050919050565b60006020820190508181036000830152613b3281613af6565b9050919050565b6000606082019050613b4e6000830186612fdb565b613b5b60208301856130c4565b613b686040830184612fdb565b949350505050565b7f4f776e657273686970206c696d69742072656163686564000000000000000000600082015250565b6000613ba6601783612e9f565b9150613bb182613b70565b602082019050919050565b60006020820190508181036000830152613bd581613b99565b9050919050565b60008190508160005260206000209050919050565b60006020601f8301049050919050565b600082821b905092915050565b600060088302613c3e7fffffffffffffffffffffffffffffffffffffffffffffffffffffffffffffffff82613c01565b613c488683613c01565b95508019841693508086168417925050509392505050565b6000819050919050565b6000613c85613c80613c7b84612f46565b613c60565b612f46565b9050919050565b6000819050919050565b613c9f83613c6a565b613cb3613cab82613c8c565b848454613c0e565b825550505050565b600090565b613cc8613cbb565b613cd3818484613c96565b505050565b5b81811015613cf757613cec600082613cc0565b600181019050613cd9565b5050565b601f821115613d3c57613d0d81613bdc565b613d1684613bf1565b81016020851015613d25578190505b613d39613d3185613bf1565b830182613cd8565b50505b505050565b600082821c905092915050565b6000613d5f60001984600802613d41565b1980831691505092915050565b6000613d788383613d4e565b9150826002028217905092915050565b613d9182612e94565b67ffffffffffffffff811115613daa57613da96131a9565b5b613db482546139ce565b613dbf828285613cfb565b600060209050601f831160018114613df25760008415613de0578287015190505b613dea8582613d6c565b865550613e52565b601f198416613e0086613bdc565b60005b82811015613e2857848901518255600182019150602085019450602081019050613e03565b86831015613e455784890151613e41601f891682613d4e565b8355505b6001600288020188555050505b505050505050565b60006080820190508181036000830152613e748187612eeb565b9050613e83602083018661359a565b613e9060408301856130c4565b8181036060830152613ea28184612eeb565b905095945050505050565b7f4e487b7100000000000000000000000000000000000000000000000000000000600052603260045260246000fd5b6000613ee782612f46565b91507fffffffffffffffffffffffffffffffffffffffffffffffffffffffffffffffff8203613f1957613f186139ff565b5b600182019050919050565b600081905092915050565b6000613f3a82612e94565b613f448185613f24565b9350613f54818560208601612eb0565b80840191505092915050565b6000613f6c8285613f2f565b9150613f788284613f2f565b91508190509392505050565b6000606082019050613f996000830186612fdb565b613fa66020830185612fdb565b613fb360408301846130c4565b949350505050565b600081519050919050565b600082825260208201905092915050565b6000613fe282613fbb565b613fec8185613fc6565b9350613ffc818560208601612eb0565b61400581612eda565b840191505092915050565b60006080820190506140256000830187612fdb565b6140326020830186612fdb565b61403f60408301856130c4565b81810360608301526140518184613fd7565b905095945050505050565b60008151905061406b81612e05565b92915050565b60006020828403121561408757614086612dcf565b5b60006140958482850161405c565b91505092915050565b60006040820190506140b36000830185612fdb565b6140c060208301846130c4565b9392505050565b7f4e487b7100000000000000000000000000000000000000000000000000000000600052601260045260246000fdfea2646970667358221220bb36fa54dbcd4c19db8f6c57f24350c9640ee0a48874fd9d056024952033eaf464736f6c634300081c0033",
  "linkReferences": {},
  "deployedLinkReferences": {}
}