{
  "_format": "hh-sol-artifact-1",
  "contractName": "ResourceToken",
  "sourceName": "contracts/RessourceToken.sol",
  "abi": [
    {
      "inputs": [],
      "stateMutability": "nonpayable",
      "type": "constructor"
    },
    {
      "inputs": [
        {
          "internalType": "address",
          "name": "sender",
          "type": "address"
        },
        {
          "internalType": "uint256",
          "name": "tokenId",
          "type": "uint256"
        },
        {
          "internalType": "address",
          "name": "owner",
          "type": "address"
        }
      ],
      "name": "ERC721IncorrectOwner",
      "type": "error"
    },
    {
      "inputs": [
        {
          "internalType": "address",
          "name": "operator",
          "type": "address"
        },
        {
          "internalType": "uint256",
          "name": "tokenId",
          "type": "uint256"
        }
      ],
      "name": "ERC721InsufficientApproval",
      "type": "error"
    },
    {
      "inputs": [
        {
          "internalType": "address",
          "name": "approver",
          "type": "address"
        }
      ],
      "name": "ERC721InvalidApprover",
      "type": "error"
    },
    {
      "inputs": [
        {
          "internalType": "address",
          "name": "operator",
          "type": "address"
        }
      ],
      "name": "ERC721InvalidOperator",
      "type": "error"
    },
    {
      "inputs": [
        {
          "internalType": "address",
          "name": "owner",
          "type": "address"
        }
      ],
      "name": "ERC721InvalidOwner",
      "type": "error"
    },
    {
      "inputs": [
        {
          "internalType": "address",
          "name": "receiver",
          "type": "address"
        }
      ],
      "name": "ERC721InvalidReceiver",
      "type": "error"
    },
    {
      "inputs": [
        {
          "internalType": "address",
          "name": "sender",
          "type": "address"
        }
      ],
      "name": "ERC721InvalidSender",
      "type": "error"
    },
    {
      "inputs": [
        {
          "internalType": "uint256",
          "name": "tokenId",
          "type": "uint256"
        }
      ],
      "name": "ERC721NonexistentToken",
      "type": "error"
    },
    {
      "anonymous": false,
      "inputs": [
        {
          "indexed": true,
          "internalType": "address",
          "name": "owner",
          "type": "address"
        },
        {
          "indexed": true,
          "internalType": "address",
          "name": "approved",
          "type": "address"
        },
        {
          "indexed": true,
          "internalType": "uint256",
          "name": "tokenId",
          "type": "uint256"
        }
      ],
      "name": "Approval",
      "type": "event"
    },
    {
      "anonymous": false,
      "inputs": [
        {
          "indexed": true,
          "internalType": "address",
          "name": "owner",
          "type": "address"
        },
        {
          "indexed": true,
          "internalType": "address",
          "name": "operator",
          "type": "address"
        },
        {
          "indexed": false,
          "internalType": "bool",
          "name": "approved",
          "type": "bool"
        }
      ],
      "name": "ApprovalForAll",
      "type": "event"
    },
    {
      "anonymous": false,
      "inputs": [
        {
          "indexed": false,
          "internalType": "uint256",
          "name": "_fromTokenId",
          "type": "uint256"
        },
        {
          "indexed": false,
          "internalType": "uint256",
          "name": "_toTokenId",
          "type": "uint256"
        }
      ],
      "name": "BatchMetadataUpdate",
      "type": "event"
    },
    {
      "anonymous": false,
      "inputs": [
        {
          "indexed": false,
          "internalType": "uint256",
          "name": "_tokenId",
          "type": "uint256"
        }
      ],
      "name": "MetadataUpdate",
      "type": "event"
    },
    {
      "anonymous": false,
      "inputs": [
        {
          "indexed": true,
          "internalType": "address",
          "name": "from",
          "type": "address"
        },
        {
          "indexed": true,
          "internalType": "address",
          "name": "to",
          "type": "address"
        },
        {
          "indexed": true,
          "internalType": "uint256",
          "name": "tokenId",
          "type": "uint256"
        }
      ],
      "name": "Transfer",
      "type": "event"
    },
    {
      "inputs": [
        {
          "internalType": "address",
          "name": "to",
          "type": "address"
        },
        {
          "internalType": "uint256",
          "name": "tokenId",
          "type": "uint256"
        }
      ],
      "name": "approve",
      "outputs": [],
      "stateMutability": "nonpayable",
      "type": "function"
    },
    {
      "inputs": [
        {
          "internalType": "address",
          "name": "owner",
          "type": "address"
        }
      ],
      "name": "balanceOf",
      "outputs": [
        {
          "internalType": "uint256",
          "name": "",
          "type": "uint256"
        }
      ],
      "stateMutability": "view",
      "type": "function"
    },
    {
      "inputs": [
        {
          "internalType": "uint256",
          "name": "tokenId",
          "type": "uint256"
        }
      ],
      "name": "getApproved",
      "outputs": [
        {
          "internalType": "address",
          "name": "",
          "type": "address"
        }
      ],
      "stateMutability": "view",
      "type": "function"
    },
    {
      "inputs": [
        {
          "internalType": "address",
          "name": "owner",
          "type": "address"
        },
        {
          "internalType": "address",
          "name": "operator",
          "type": "address"
        }
      ],
      "name": "isApprovedForAll",
      "outputs": [
        {
          "internalType": "bool",
          "name": "",
          "type": "bool"
        }
      ],
      "stateMutability": "view",
      "type": "function"
    },
    {
      "inputs": [
        {
          "internalType": "address",
          "name": "to",
          "type": "address"
        },
        {
          "internalType": "string",
          "name": "name",
          "type": "string"
        },
        {
          "internalType": "string",
          "name": "resourceType",
          "type": "string"
        },
        {
          "internalType": "uint256",
          "name": "value",
          "type": "uint256"
        },
        {
          "internalType": "string",
          "name": "ipfsHash",
          "type": "string"
        }
      ],
      "name": "mintResource",
      "outputs": [
        {
          "internalType": "uint256",
          "name": "",
          "type": "uint256"
        }
      ],
      "stateMutability": "nonpayable",
      "type": "function"
    },
    {
      "inputs": [],
      "name": "name",
      "outputs": [
        {
          "internalType": "string",
          "name": "",
          "type": "string"
        }
      ],
      "stateMutability": "view",
      "type": "function"
    },
    {
      "inputs": [
        {
          "internalType": "uint256",
          "name": "tokenId",
          "type": "uint256"
        }
      ],
      "name": "ownerOf",
      "outputs": [
        {
          "internalType": "address",
          "name": "",
          "type": "address"
        }
      ],
      "stateMutability": "view",
      "type": "function"
    },
    {
      "inputs": [
        {
          "internalType": "uint256",
          "name": "",
          "type": "uint256"
        }
      ],
      "name": "resources",
      "outputs": [
        {
          "internalType": "string",
          "name": "name",
          "type": "string"
        },
        {
          "internalType": "string",
          "name": "resourceType",
          "type": "string"
        },
        {
          "internalType": "uint256",
          "name": "value",
          "type": "uint256"
        },
        {
          "internalType": "string",
          "name": "ipfsHash",
          "type": "string"
        },
        {
          "internalType": "uint256",
          "name": "createdAt",
          "type": "uint256"
        },
        {
          "internalType": "uint256",
          "name": "lastTransferAt",
          "type": "uint256"
        }
      ],
      "stateMutability": "view",
      "type": "function"
    },
    {
      "inputs": [
        {
          "internalType": "address",
          "name": "from",
          "type": "address"
        },
        {
          "internalType": "address",
          "name": "to",
          "type": "address"
        },
        {
          "internalType": "uint256",
          "name": "tokenId",
          "type": "uint256"
        }
      ],
      "name": "safeTransferFrom",
      "outputs": [],
      "stateMutability": "nonpayable",
      "type": "function"
    },
    {
      "inputs": [
        {
          "internalType": "address",
          "name": "from",
          "type": "address"
        },
        {
          "internalType": "address",
          "name": "to",
          "type": "address"
        },
        {
          "internalType": "uint256",
          "name": "tokenId",
          "type": "uint256"
        },
        {
          "internalType": "bytes",
          "name": "data",
          "type": "bytes"
        }
      ],
      "name": "safeTransferFrom",
      "outputs": [],
      "stateMutability": "nonpayable",
      "type": "function"
    },
    {
      "inputs": [
        {
          "internalType": "address",
          "name": "operator",
          "type": "address"
        },
        {
          "internalType": "bool",
          "name": "approved",
          "type": "bool"
        }
      ],
      "name": "setApprovalForAll",
      "outputs": [],
      "stateMutability": "nonpayable",
      "type": "function"
    },
    {
      "inputs": [
        {
          "internalType": "bytes4",
          "name": "interfaceId",
          "type": "bytes4"
        }
      ],
      "name": "supportsInterface",
      "outputs": [
        {
          "internalType": "bool",
          "name": "",
          "type": "bool"
        }
      ],
      "stateMutability": "view",
      "type": "function"
    },
    {
      "inputs": [],
      "name": "symbol",
      "outputs": [
        {
          "internalType": "string",
          "name": "",
          "type": "string"
        }
      ],
      "stateMutability": "view",
      "type": "function"
    },
    {
      "inputs": [
        {
          "internalType": "uint256",
          "name": "tokenId",
          "type": "uint256"
        }
      ],
      "name": "tokenURI",
      "outputs": [
        {
          "internalType": "string",
          "name": "",
          "type": "string"
        }
      ],
      "stateMutability": "view",
      "type": "function"
    },
    {
      "inputs": [
        {
          "internalType": "address",
          "name": "from",
          "type": "address"
        },
        {
          "internalType": "address",
          "name": "to",
          "type": "address"
        },
        {
          "internalType": "uint256",
          "name": "tokenId",
          "type": "uint256"
        }
      ],
      "name": "transferFrom",
      "outputs": [],
      "stateMutability": "nonpayable",
      "type": "function"
    },
    {
      "inputs": [
        {
          "internalType": "address",
          "name": "from",
          "type": "address"
        },
        {
          "internalType": "address",
          "name": "to",
          "type": "address"
        },
        {
          "internalType": "uint256",
          "name": "tokenId",
          "type": "uint256"
        }
      ],
      "name": "transferResource",
      "outputs": [],
      "stateMutability": "nonpayable",
      "type": "function"
    }
  ],
  "bytecode": "0x60806040523480156200001157600080fd5b506040518060400160405280600d81526020017f5265736f75726365546f6b656e000000000000000000000000000000000000008152506040518060400160405280600381526020017f525354000000000000000000000000000000000000000000000000000000000081525081600090816200008f91906200032c565b508060019081620000a191906200032c565b505050600060078190555062000413565b600081519050919050565b7f4e487b7100000000000000000000000000000000000000000000000000000000600052604160045260246000fd5b7f4e487b7100000000000000000000000000000000000000000000000000000000600052602260045260246000fd5b600060028204905060018216806200013457607f821691505b6020821081036200014a5762000149620000ec565b5b50919050565b60008190508160005260206000209050919050565b60006020601f8301049050919050565b600082821b905092915050565b600060088302620001b47fffffffffffffffffffffffffffffffffffffffffffffffffffffffffffffffff8262000175565b620001c0868362000175565b95508019841693508086168417925050509392505050565b6000819050919050565b6000819050919050565b60006200020d620002076200020184620001d8565b620001e2565b620001d8565b9050919050565b6000819050919050565b6200022983620001ec565b62000241620002388262000214565b84845462000182565b825550505050565b600090565b6200025862000249565b620002658184846200021e565b505050565b5b818110156200028d57620002816000826200024e565b6001810190506200026b565b5050565b601f821115620002dc57620002a68162000150565b620002b18462000165565b81016020851015620002c1578190505b620002d9620002d08562000165565b8301826200026a565b50505b505050565b600082821c905092915050565b60006200030160001984600802620002e1565b1980831691505092915050565b60006200031c8383620002ee565b9150826002028217905092915050565b6200033782620000b2565b67ffffffffffffffff811115620003535762000352620000bd565b5b6200035f82546200011b565b6200036c82828562000291565b600060209050601f831160018114620003a457600084156200038f578287015190505b6200039b85826200030e565b8655506200040b565b601f198416620003b48662000150565b60005b82811015620003de57848901518255600182019150602085019450602081019050620003b7565b86831015620003fe5784890151620003fa601f891682620002ee565b8355505b6001600288020188555050505b505050505050565b612b7f80620004236000396000f3fe608060405234801561001057600080fd5b50600436106101005760003560e01c80636352211e11610097578063b88d4fde11610066578063b88d4fde146102c2578063c87b56dd146102de578063e985e9c51461030e578063ffd3406f1461033e57610100565b80636352211e1461022857806370a082311461025857806395d89b4114610288578063a22cb465146102a657610100565b806323b872dd116100d357806323b872dd1461019f578063244d6daa146101bb57806342842e0e146101f05780635932ef241461020c57610100565b806301ffc9a71461010557806306fdde0314610135578063081812fc14610153578063095ea7b314610183575b600080fd5b61011f600480360381019061011a9190611e96565b61036e565b60405161012c9190611ede565b60405180910390f35b61013d6103cf565b60405161014a9190611f89565b60405180910390f35b61016d60048036038101906101689190611fe1565b610461565b60405161017a919061204f565b60405180910390f35b61019d60048036038101906101989190612096565b61047d565b005b6101b960048036038101906101b491906120d6565b610493565b005b6101d560048036038101906101d09190611fe1565b610595565b6040516101e796959493929190612138565b60405180910390f35b61020a600480360381019061020591906120d6565b610769565b005b610226600480360381019061022191906120d6565b610789565b005b610242600480360381019061023d9190611fe1565b6108a1565b60405161024f919061204f565b60405180910390f35b610272600480360381019061026d91906121ae565b6108b3565b60405161027f91906121db565b60405180910390f35b61029061096d565b60405161029d9190611f89565b60405180910390f35b6102c060048036038101906102bb9190612222565b6109ff565b005b6102dc60048036038101906102d79190612397565b610a15565b005b6102f860048036038101906102f39190611fe1565b610a3a565b6040516103059190611f89565b60405180910390f35b6103286004803603810190610323919061241a565b610b4d565b6040516103359190611ede565b60405180910390f35b610358600480360381019061035391906124fb565b610be1565b60405161036591906121db565b60405180910390f35b6000634906490660e01b7bffffffffffffffffffffffffffffffffffffffffffffffffffffffff1916827bffffffffffffffffffffffffffffffffffffffffffffffffffffffff191614806103c857506103c782610d34565b5b9050919050565b6060600080546103de906125f9565b80601f016020809104026020016040519081016040528092919081815260200182805461040a906125f9565b80156104575780601f1061042c57610100808354040283529160200191610457565b820191906000526020600020905b81548152906001019060200180831161043a57829003601f168201915b5050505050905090565b600061046c82610e16565b5061047682610e9e565b9050919050565b61048f828261048a610edb565b610ee3565b5050565b600073ffffffffffffffffffffffffffffffffffffffff168273ffffffffffffffffffffffffffffffffffffffff16036105055760006040517f64a0ae920000000000000000000000000000000000000000000000000000000081526004016104fc919061204f565b60405180910390fd5b60006105198383610514610edb565b610ef5565b90508373ffffffffffffffffffffffffffffffffffffffff168173ffffffffffffffffffffffffffffffffffffffff161461058f578382826040517f64283d7b0000000000000000000000000000000000000000000000000000000081526004016105869392919061262a565b60405180910390fd5b50505050565b60086020528060005260406000206000915090508060000180546105b8906125f9565b80601f01602080910402602001604051908101604052809291908181526020018280546105e4906125f9565b80156106315780601f1061060657610100808354040283529160200191610631565b820191906000526020600020905b81548152906001019060200180831161061457829003601f168201915b505050505090806001018054610646906125f9565b80601f0160208091040260200160405190810160405280929190818152602001828054610672906125f9565b80156106bf5780601f10610694576101008083540402835291602001916106bf565b820191906000526020600020905b8154815290600101906020018083116106a257829003601f168201915b5050505050908060020154908060030180546106da906125f9565b80601f0160208091040260200160405190810160405280929190818152602001828054610706906125f9565b80156107535780601f1061072857610100808354040283529160200191610753565b820191906000526020600020905b81548152906001019060200180831161073657829003601f168201915b5050505050908060050154908060060154905086565b61078483838360405180602001604052806000815250610a15565b505050565b8273ffffffffffffffffffffffffffffffffffffffff166107a9826108a1565b73ffffffffffffffffffffffffffffffffffffffff16146107ff576040517f08c379a00000000000000000000000000000000000000000000000000000000081526004016107f6906126ad565b60405180910390fd5b61080a83838361110f565b60086000828152602001908152602001600020600401839080600181540180825580915050600190039060005260206000200160009091909190916101000a81548173ffffffffffffffffffffffffffffffffffffffff021916908373ffffffffffffffffffffffffffffffffffffffff160217905550426008600083815260200190815260200160002060060181905550505050565b60006108ac82610e16565b9050919050565b60008073ffffffffffffffffffffffffffffffffffffffff168273ffffffffffffffffffffffffffffffffffffffff16036109265760006040517f89c62b6400000000000000000000000000000000000000000000000000000000815260040161091d919061204f565b60405180910390fd5b600360008373ffffffffffffffffffffffffffffffffffffffff1673ffffffffffffffffffffffffffffffffffffffff168152602001908152602001600020549050919050565b60606001805461097c906125f9565b80601f01602080910402602001604051908101604052809291908181526020018280546109a8906125f9565b80156109f55780601f106109ca576101008083540402835291602001916109f5565b820191906000526020600020905b8154815290600101906020018083116109d857829003601f168201915b5050505050905090565b610a11610a0a610edb565b838361127c565b5050565b610a20848484610493565b610a34610a2b610edb565b858585856113eb565b50505050565b6060610a4582610e16565b506000600660008481526020019081526020016000208054610a66906125f9565b80601f0160208091040260200160405190810160405280929190818152602001828054610a92906125f9565b8015610adf5780601f10610ab457610100808354040283529160200191610adf565b820191906000526020600020905b815481529060010190602001808311610ac257829003601f168201915b505050505090506000610af061159c565b90506000815103610b05578192505050610b48565b600082511115610b3a578082604051602001610b22929190612709565b60405160208183030381529060405292505050610b48565b610b43846115b3565b925050505b919050565b6000600560008473ffffffffffffffffffffffffffffffffffffffff1673ffffffffffffffffffffffffffffffffffffffff16815260200190815260200160002060008373ffffffffffffffffffffffffffffffffffffffff1673ffffffffffffffffffffffffffffffffffffffff16815260200190815260200160002060009054906101000a900460ff16905092915050565b6000600160076000828254610bf6919061275c565b9250508190555060006007549050610c0e878261161c565b610c188184611715565b6040518060e00160405280878152602001868152602001858152602001848152602001600067ffffffffffffffff811115610c5657610c5561226c565b5b604051908082528060200260200182016040528015610c845781602001602082028036833780820191505090505b50815260200142815260200142815250600860008381526020019081526020016000206000820151816000019081610cbc919061293c565b506020820151816001019081610cd2919061293c565b50604082015181600201556060820151816003019081610cf2919061293c565b506080820151816004019080519060200190610d0f929190611d83565b5060a0820151816005015560c082015181600601559050508091505095945050505050565b60007f80ac58cd000000000000000000000000000000000000000000000000000000007bffffffffffffffffffffffffffffffffffffffffffffffffffffffff1916827bffffffffffffffffffffffffffffffffffffffffffffffffffffffff19161480610dff57507f5b5e139f000000000000000000000000000000000000000000000000000000007bffffffffffffffffffffffffffffffffffffffffffffffffffffffff1916827bffffffffffffffffffffffffffffffffffffffffffffffffffffffff1916145b80610e0f5750610e0e82611771565b5b9050919050565b600080610e22836117db565b9050600073ffffffffffffffffffffffffffffffffffffffff168173ffffffffffffffffffffffffffffffffffffffff1603610e9557826040517f7e273289000000000000000000000000000000000000000000000000000000008152600401610e8c91906121db565b60405180910390fd5b80915050919050565b60006004600083815260200190815260200160002060009054906101000a900473ffffffffffffffffffffffffffffffffffffffff169050919050565b600033905090565b610ef08383836001611818565b505050565b600080610f01846117db565b9050600073ffffffffffffffffffffffffffffffffffffffff168373ffffffffffffffffffffffffffffffffffffffff1614610f4357610f428184866119dd565b5b600073ffffffffffffffffffffffffffffffffffffffff168173ffffffffffffffffffffffffffffffffffffffff1614610fd457610f85600085600080611818565b6001600360008373ffffffffffffffffffffffffffffffffffffffff1673ffffffffffffffffffffffffffffffffffffffff168152602001908152602001600020600082825403925050819055505b600073ffffffffffffffffffffffffffffffffffffffff168573ffffffffffffffffffffffffffffffffffffffff1614611057576001600360008773ffffffffffffffffffffffffffffffffffffffff1673ffffffffffffffffffffffffffffffffffffffff168152602001908152602001600020600082825401925050819055505b846002600086815260200190815260200160002060006101000a81548173ffffffffffffffffffffffffffffffffffffffff021916908373ffffffffffffffffffffffffffffffffffffffff160217905550838573ffffffffffffffffffffffffffffffffffffffff168273ffffffffffffffffffffffffffffffffffffffff167fddf252ad1be2c89b69c2b068fc378daa952ba7f163c4a11628f55a4df523b3ef60405160405180910390a4809150509392505050565b600073ffffffffffffffffffffffffffffffffffffffff168273ffffffffffffffffffffffffffffffffffffffff16036111815760006040517f64a0ae92000000000000000000000000000000000000000000000000000000008152600401611178919061204f565b60405180910390fd5b600061118f83836000610ef5565b9050600073ffffffffffffffffffffffffffffffffffffffff168173ffffffffffffffffffffffffffffffffffffffff160361120257816040517f7e2732890000000000000000000000000000000000000000000000000000000081526004016111f991906121db565b60405180910390fd5b8373ffffffffffffffffffffffffffffffffffffffff168173ffffffffffffffffffffffffffffffffffffffff1614611276578382826040517f64283d7b00000000000000000000000000000000000000000000000000000000815260040161126d9392919061262a565b60405180910390fd5b50505050565b600073ffffffffffffffffffffffffffffffffffffffff168273ffffffffffffffffffffffffffffffffffffffff16036112ed57816040517f5b08ba180000000000000000000000000000000000000000000000000000000081526004016112e4919061204f565b60405180910390fd5b80600560008573ffffffffffffffffffffffffffffffffffffffff1673ffffffffffffffffffffffffffffffffffffffff16815260200190815260200160002060008473ffffffffffffffffffffffffffffffffffffffff1673ffffffffffffffffffffffffffffffffffffffff16815260200190815260200160002060006101000a81548160ff0219169083151502179055508173ffffffffffffffffffffffffffffffffffffffff168373ffffffffffffffffffffffffffffffffffffffff167f17307eab39ab6107e8899845ad3d59bd9653f200f220920489ca2b5937696c31836040516113de9190611ede565b60405180910390a3505050565b60008373ffffffffffffffffffffffffffffffffffffffff163b1115611595578273ffffffffffffffffffffffffffffffffffffffff1663150b7a02868685856040518563ffffffff1660e01b815260040161144a9493929190612a63565b6020604051808303816000875af192505050801561148657506040513d601f19601f820116820180604052508101906114839190612ac4565b60015b61150a573d80600081146114b6576040519150601f19603f3d011682016040523d82523d6000602084013e6114bb565b606091505b50600081510361150257836040517f64a0ae920000000000000000000000000000000000000000000000000000000081526004016114f9919061204f565b60405180910390fd5b805181602001fd5b63150b7a0260e01b7bffffffffffffffffffffffffffffffffffffffffffffffffffffffff1916817bffffffffffffffffffffffffffffffffffffffffffffffffffffffff19161461159357836040517f64a0ae9200000000000000000000000000000000000000000000000000000000815260040161158a919061204f565b60405180910390fd5b505b5050505050565b606060405180602001604052806000815250905090565b60606115be82610e16565b5060006115c961159c565b905060008151116115e95760405180602001604052806000815250611614565b806115f384611aa1565b604051602001611604929190612709565b6040516020818303038152906040525b915050919050565b600073ffffffffffffffffffffffffffffffffffffffff168273ffffffffffffffffffffffffffffffffffffffff160361168e5760006040517f64a0ae92000000000000000000000000000000000000000000000000000000008152600401611685919061204f565b60405180910390fd5b600061169c83836000610ef5565b9050600073ffffffffffffffffffffffffffffffffffffffff168173ffffffffffffffffffffffffffffffffffffffff16146117105760006040517f73c6ac6e000000000000000000000000000000000000000000000000000000008152600401611707919061204f565b60405180910390fd5b505050565b80600660008481526020019081526020016000209081611735919061293c565b507ff8e1a15aba9398e019f0b49df1a4fde98ee17ae345cb5f6b5e2c27f5033e8ce78260405161176591906121db565b60405180910390a15050565b60007f01ffc9a7000000000000000000000000000000000000000000000000000000007bffffffffffffffffffffffffffffffffffffffffffffffffffffffff1916827bffffffffffffffffffffffffffffffffffffffffffffffffffffffff1916149050919050565b60006002600083815260200190815260200160002060009054906101000a900473ffffffffffffffffffffffffffffffffffffffff169050919050565b80806118515750600073ffffffffffffffffffffffffffffffffffffffff168273ffffffffffffffffffffffffffffffffffffffff1614155b1561198557600061186184610e16565b9050600073ffffffffffffffffffffffffffffffffffffffff168373ffffffffffffffffffffffffffffffffffffffff16141580156118cc57508273ffffffffffffffffffffffffffffffffffffffff168173ffffffffffffffffffffffffffffffffffffffff1614155b80156118df57506118dd8184610b4d565b155b1561192157826040517fa9fbf51f000000000000000000000000000000000000000000000000000000008152600401611918919061204f565b60405180910390fd5b811561198357838573ffffffffffffffffffffffffffffffffffffffff168273ffffffffffffffffffffffffffffffffffffffff167f8c5be1e5ebec7d5bd14f71427d1e84f3dd0314c0f7b2291e5b200ac8c7c3b92560405160405180910390a45b505b836004600085815260200190815260200160002060006101000a81548173ffffffffffffffffffffffffffffffffffffffff021916908373ffffffffffffffffffffffffffffffffffffffff16021790555050505050565b6119e8838383611b6f565b611a9c57600073ffffffffffffffffffffffffffffffffffffffff168373ffffffffffffffffffffffffffffffffffffffff1603611a5d57806040517f7e273289000000000000000000000000000000000000000000000000000000008152600401611a5491906121db565b60405180910390fd5b81816040517f177e802f000000000000000000000000000000000000000000000000000000008152600401611a93929190612af1565b60405180910390fd5b505050565b606060006001611ab084611c30565b01905060008167ffffffffffffffff811115611acf57611ace61226c565b5b6040519080825280601f01601f191660200182016040528015611b015781602001600182028036833780820191505090505b509050600082602001820190505b600115611b64578080600190039150507f3031323334353637383961626364656600000000000000000000000000000000600a86061a8153600a8581611b5857611b57612b1a565b5b04945060008503611b0f575b819350505050919050565b60008073ffffffffffffffffffffffffffffffffffffffff168373ffffffffffffffffffffffffffffffffffffffff1614158015611c2757508273ffffffffffffffffffffffffffffffffffffffff168473ffffffffffffffffffffffffffffffffffffffff161480611be85750611be78484610b4d565b5b80611c2657508273ffffffffffffffffffffffffffffffffffffffff16611c0e83610e9e565b73ffffffffffffffffffffffffffffffffffffffff16145b5b90509392505050565b600080600090507a184f03e93ff9f4daa797ed6e38ed64bf6a1f0100000000000000008310611c8e577a184f03e93ff9f4daa797ed6e38ed64bf6a1f0100000000000000008381611c8457611c83612b1a565b5b0492506040810190505b6d04ee2d6d415b85acef81000000008310611ccb576d04ee2d6d415b85acef81000000008381611cc157611cc0612b1a565b5b0492506020810190505b662386f26fc100008310611cfa57662386f26fc100008381611cf057611cef612b1a565b5b0492506010810190505b6305f5e1008310611d23576305f5e1008381611d1957611d18612b1a565b5b0492506008810190505b6127108310611d48576127108381611d3e57611d3d612b1a565b5b0492506004810190505b60648310611d6b5760648381611d6157611d60612b1a565b5b0492506002810190505b600a8310611d7a576001810190505b80915050919050565b828054828255906000526020600020908101928215611dfc579160200282015b82811115611dfb5782518260006101000a81548173ffffffffffffffffffffffffffffffffffffffff021916908373ffffffffffffffffffffffffffffffffffffffff16021790555091602001919060010190611da3565b5b509050611e099190611e0d565b5090565b5b80821115611e26576000816000905550600101611e0e565b5090565b6000604051905090565b600080fd5b600080fd5b60007fffffffff0000000000000000000000000000000000000000000000000000000082169050919050565b611e7381611e3e565b8114611e7e57600080fd5b50565b600081359050611e9081611e6a565b92915050565b600060208284031215611eac57611eab611e34565b5b6000611eba84828501611e81565b91505092915050565b60008115159050919050565b611ed881611ec3565b82525050565b6000602082019050611ef36000830184611ecf565b92915050565b600081519050919050565b600082825260208201905092915050565b60005b83811015611f33578082015181840152602081019050611f18565b60008484015250505050565b6000601f19601f8301169050919050565b6000611f5b82611ef9565b611f658185611f04565b9350611f75818560208601611f15565b611f7e81611f3f565b840191505092915050565b60006020820190508181036000830152611fa38184611f50565b905092915050565b6000819050919050565b611fbe81611fab565b8114611fc957600080fd5b50565b600081359050611fdb81611fb5565b92915050565b600060208284031215611ff757611ff6611e34565b5b600061200584828501611fcc565b91505092915050565b600073ffffffffffffffffffffffffffffffffffffffff82169050919050565b60006120398261200e565b9050919050565b6120498161202e565b82525050565b60006020820190506120646000830184612040565b92915050565b6120738161202e565b811461207e57600080fd5b50565b6000813590506120908161206a565b92915050565b600080604083850312156120ad576120ac611e34565b5b60006120bb85828601612081565b92505060206120cc85828601611fcc565b9150509250929050565b6000806000606084860312156120ef576120ee611e34565b5b60006120fd86828701612081565b935050602061210e86828701612081565b925050604061211f86828701611fcc565b9150509250925092565b61213281611fab565b82525050565b600060c08201905081810360008301526121528189611f50565b905081810360208301526121668188611f50565b90506121756040830187612129565b81810360608301526121878186611f50565b90506121966080830185612129565b6121a360a0830184612129565b979650505050505050565b6000602082840312156121c4576121c3611e34565b5b60006121d284828501612081565b91505092915050565b60006020820190506121f06000830184612129565b92915050565b6121ff81611ec3565b811461220a57600080fd5b50565b60008135905061221c816121f6565b92915050565b6000806040838503121561223957612238611e34565b5b600061224785828601612081565b92505060206122588582860161220d565b9150509250929050565b600080fd5b600080fd5b7f4e487b7100000000000000000000000000000000000000000000000000000000600052604160045260246000fd5b6122a482611f3f565b810181811067ffffffffffffffff821117156122c3576122c261226c565b5b80604052505050565b60006122d6611e2a565b90506122e2828261229b565b919050565b600067ffffffffffffffff8211156123025761230161226c565b5b61230b82611f3f565b9050602081019050919050565b82818337600083830152505050565b600061233a612335846122e7565b6122cc565b90508281526020810184848401111561235657612355612267565b5b612361848285612318565b509392505050565b600082601f83011261237e5761237d612262565b5b813561238e848260208601612327565b91505092915050565b600080600080608085870312156123b1576123b0611e34565b5b60006123bf87828801612081565b94505060206123d087828801612081565b93505060406123e187828801611fcc565b925050606085013567ffffffffffffffff81111561240257612401611e39565b5b61240e87828801612369565b91505092959194509250565b6000806040838503121561243157612430611e34565b5b600061243f85828601612081565b925050602061245085828601612081565b9150509250929050565b600067ffffffffffffffff8211156124755761247461226c565b5b61247e82611f3f565b9050602081019050919050565b600061249e6124998461245a565b6122cc565b9050828152602081018484840111156124ba576124b9612267565b5b6124c5848285612318565b509392505050565b600082601f8301126124e2576124e1612262565b5b81356124f284826020860161248b565b91505092915050565b600080600080600060a0868803121561251757612516611e34565b5b600061252588828901612081565b955050602086013567ffffffffffffffff81111561254657612545611e39565b5b612552888289016124cd565b945050604086013567ffffffffffffffff81111561257357612572611e39565b5b61257f888289016124cd565b935050606061259088828901611fcc565b925050608086013567ffffffffffffffff8111156125b1576125b0611e39565b5b6125bd888289016124cd565b9150509295509295909350565b7f4e487b7100000000000000000000000000000000000000000000000000000000600052602260045260246000fd5b6000600282049050600182168061261157607f821691505b602082108103612624576126236125ca565b5b50919050565b600060608201905061263f6000830186612040565b61264c6020830185612129565b6126596040830184612040565b949350505050565b7f596f7520646f206e6f74206f776e207468697320746f6b656e00000000000000600082015250565b6000612697601983611f04565b91506126a282612661565b602082019050919050565b600060208201905081810360008301526126c68161268a565b9050919050565b600081905092915050565b60006126e382611ef9565b6126ed81856126cd565b93506126fd818560208601611f15565b80840191505092915050565b600061271582856126d8565b915061272182846126d8565b91508190509392505050565b7f4e487b7100000000000000000000000000000000000000000000000000000000600052601160045260246000fd5b600061276782611fab565b915061277283611fab565b925082820190508082111561278a5761278961272d565b5b92915050565b60008190508160005260206000209050919050565b60006020601f8301049050919050565b600082821b905092915050565b6000600883026127f27fffffffffffffffffffffffffffffffffffffffffffffffffffffffffffffffff826127b5565b6127fc86836127b5565b95508019841693508086168417925050509392505050565b6000819050919050565b600061283961283461282f84611fab565b612814565b611fab565b9050919050565b6000819050919050565b6128538361281e565b61286761285f82612840565b8484546127c2565b825550505050565b600090565b61287c61286f565b61288781848461284a565b505050565b5b818110156128ab576128a0600082612874565b60018101905061288d565b5050565b601f8211156128f0576128c181612790565b6128ca846127a5565b810160208510156128d9578190505b6128ed6128e5856127a5565b83018261288c565b50505b505050565b600082821c905092915050565b6000612913600019846008026128f5565b1980831691505092915050565b600061292c8383612902565b9150826002028217905092915050565b61294582611ef9565b67ffffffffffffffff81111561295e5761295d61226c565b5b61296882546125f9565b6129738282856128af565b600060209050601f8311600181146129a65760008415612994578287015190505b61299e8582612920565b865550612a06565b601f1984166129b486612790565b60005b828110156129dc578489015182556001820191506020850194506020810190506129b7565b868310156129f957848901516129f5601f891682612902565b8355505b6001600288020188555050505b505050505050565b600081519050919050565b600082825260208201905092915050565b6000612a3582612a0e565b612a3f8185612a19565b9350612a4f818560208601611f15565b612a5881611f3f565b840191505092915050565b6000608082019050612a786000830187612040565b612a856020830186612040565b612a926040830185612129565b8181036060830152612aa48184612a2a565b905095945050505050565b600081519050612abe81611e6a565b92915050565b600060208284031215612ada57612ad9611e34565b5b6000612ae884828501612aaf565b91505092915050565b6000604082019050612b066000830185612040565b612b136020830184612129565b9392505050565b7f4e487b7100000000000000000000000000000000000000000000000000000000600052601260045260246000fdfea2646970667358221220310ff415fcffc2f69460054147b75e918e08b0d57aeee018e3fb610a7d29ca6d64736f6c63430008160033",
  "linkReferences": {},
  "deployedLinkReferences": {}
}