{
  "_format": "hh-sol-artifact-1",
  "contractName": "ResourceToken",
  "sourceName": "contracts/RessourceToken.sol",
  "abi": [
    {
      "inputs": [
        {
          "internalType": "address",
          "name": "paymentTokenAddress",
          "type": "address"
        }
      ],
      "stateMutability": "nonpayable",
      "type": "constructor"
    },
    {
      "inputs": [],
      "name": "AlreadyOnSale",
      "type": "error"
    },
    {
      "inputs": [],
      "name": "CooldownActive",
      "type": "error"
    },
    {
      "inputs": [
        {
          "internalType": "address",
          "name": "sender",
          "type": "address"
        },
        {
          "internalType": "uint256",
          "name": "tokenId",
          "type": "uint256"
        },
        {
          "internalType": "address",
          "name": "owner",
          "type": "address"
        }
      ],
      "name": "ERC721IncorrectOwner",
      "type": "error"
    },
    {
      "inputs": [
        {
          "internalType": "address",
          "name": "operator",
          "type": "address"
        },
        {
          "internalType": "uint256",
          "name": "tokenId",
          "type": "uint256"
        }
      ],
      "name": "ERC721InsufficientApproval",
      "type": "error"
    },
    {
      "inputs": [
        {
          "internalType": "address",
          "name": "approver",
          "type": "address"
        }
      ],
      "name": "ERC721InvalidApprover",
      "type": "error"
    },
    {
      "inputs": [
        {
          "internalType": "address",
          "name": "operator",
          "type": "address"
        }
      ],
      "name": "ERC721InvalidOperator",
      "type": "error"
    },
    {
      "inputs": [
        {
          "internalType": "address",
          "name": "owner",
          "type": "address"
        }
      ],
      "name": "ERC721InvalidOwner",
      "type": "error"
    },
    {
      "inputs": [
        {
          "internalType": "address",
          "name": "receiver",
          "type": "address"
        }
      ],
      "name": "ERC721InvalidReceiver",
      "type": "error"
    },
    {
      "inputs": [
        {
          "internalType": "address",
          "name": "sender",
          "type": "address"
        }
      ],
      "name": "ERC721InvalidSender",
      "type": "error"
    },
    {
      "inputs": [
        {
          "internalType": "uint256",
          "name": "tokenId",
          "type": "uint256"
        }
      ],
      "name": "ERC721NonexistentToken",
      "type": "error"
    },
    {
      "inputs": [],
      "name": "InvalidToken",
      "type": "error"
    },
    {
      "inputs": [],
      "name": "NotAvailable",
      "type": "error"
    },
    {
      "inputs": [],
      "name": "PaymentFailed",
      "type": "error"
    },
    {
      "inputs": [],
      "name": "ReentrancyGuardReentrantCall",
      "type": "error"
    },
    {
      "inputs": [
        {
          "internalType": "address",
          "name": "token",
          "type": "address"
        }
      ],
      "name": "SafeERC20FailedOperation",
      "type": "error"
    },
    {
      "inputs": [],
      "name": "Unauthorized",
      "type": "error"
    },
    {
      "anonymous": false,
      "inputs": [
        {
          "indexed": true,
          "internalType": "address",
          "name": "owner",
          "type": "address"
        },
        {
          "indexed": true,
          "internalType": "address",
          "name": "approved",
          "type": "address"
        },
        {
          "indexed": true,
          "internalType": "uint256",
          "name": "tokenId",
          "type": "uint256"
        }
      ],
      "name": "Approval",
      "type": "event"
    },
    {
      "anonymous": false,
      "inputs": [
        {
          "indexed": true,
          "internalType": "address",
          "name": "owner",
          "type": "address"
        },
        {
          "indexed": true,
          "internalType": "address",
          "name": "operator",
          "type": "address"
        },
        {
          "indexed": false,
          "internalType": "bool",
          "name": "approved",
          "type": "bool"
        }
      ],
      "name": "ApprovalForAll",
      "type": "event"
    },
    {
      "anonymous": false,
      "inputs": [
        {
          "indexed": false,
          "internalType": "uint256",
          "name": "_fromTokenId",
          "type": "uint256"
        },
        {
          "indexed": false,
          "internalType": "uint256",
          "name": "_toTokenId",
          "type": "uint256"
        }
      ],
      "name": "BatchMetadataUpdate",
      "type": "event"
    },
    {
      "anonymous": false,
      "inputs": [
        {
          "indexed": true,
          "internalType": "uint256",
          "name": "tokenId",
          "type": "uint256"
        },
        {
          "indexed": false,
          "internalType": "uint256",
          "name": "value",
          "type": "uint256"
        }
      ],
      "name": "HouseListed",
      "type": "event"
    },
    {
      "anonymous": false,
      "inputs": [
        {
          "indexed": true,
          "internalType": "uint256",
          "name": "tokenId",
          "type": "uint256"
        },
        {
          "indexed": true,
          "internalType": "address",
          "name": "owner",
          "type": "address"
        },
        {
          "indexed": false,
          "internalType": "string",
          "name": "name",
          "type": "string"
        },
        {
          "indexed": false,
          "internalType": "enum ResourceToken.ResourceType",
          "name": "resourceType",
          "type": "uint8"
        },
        {
          "indexed": false,
          "internalType": "uint256",
          "name": "value",
          "type": "uint256"
        },
        {
          "indexed": false,
          "internalType": "string",
          "name": "ipfsHash",
          "type": "string"
        }
      ],
      "name": "HouseMinted",
      "type": "event"
    },
    {
      "anonymous": false,
      "inputs": [
        {
          "indexed": true,
          "internalType": "uint256",
          "name": "tokenId",
          "type": "uint256"
        },
        {
          "indexed": true,
          "internalType": "address",
          "name": "buyer",
          "type": "address"
        },
        {
          "indexed": false,
          "internalType": "uint256",
          "name": "value",
          "type": "uint256"
        }
      ],
      "name": "HousePurchased",
      "type": "event"
    },
    {
      "anonymous": false,
      "inputs": [
        {
          "indexed": false,
          "internalType": "uint256",
          "name": "_tokenId",
          "type": "uint256"
        }
      ],
      "name": "MetadataUpdate",
      "type": "event"
    },
    {
      "anonymous": false,
      "inputs": [
        {
          "indexed": true,
          "internalType": "address",
          "name": "from",
          "type": "address"
        },
        {
          "indexed": true,
          "internalType": "address",
          "name": "to",
          "type": "address"
        },
        {
          "indexed": true,
          "internalType": "uint256",
          "name": "tokenId",
          "type": "uint256"
        }
      ],
      "name": "Transfer",
      "type": "event"
    },
    {
      "inputs": [
        {
          "internalType": "address",
          "name": "to",
          "type": "address"
        },
        {
          "internalType": "uint256",
          "name": "tokenId",
          "type": "uint256"
        }
      ],
      "name": "approve",
      "outputs": [],
      "stateMutability": "nonpayable",
      "type": "function"
    },
    {
      "inputs": [
        {
          "internalType": "address",
          "name": "owner",
          "type": "address"
        }
      ],
      "name": "balanceOf",
      "outputs": [
        {
          "internalType": "uint256",
          "name": "",
          "type": "uint256"
        }
      ],
      "stateMutability": "view",
      "type": "function"
    },
    {
      "inputs": [
        {
          "internalType": "uint256",
          "name": "tokenId",
          "type": "uint256"
        }
      ],
      "name": "getApproved",
      "outputs": [
        {
          "internalType": "address",
          "name": "",
          "type": "address"
        }
      ],
      "stateMutability": "view",
      "type": "function"
    },
    {
      "inputs": [],
      "name": "getAvailableHouses",
      "outputs": [
        {
          "internalType": "uint256[]",
          "name": "",
          "type": "uint256[]"
        },
        {
          "internalType": "address[]",
          "name": "",
          "type": "address[]"
        }
      ],
      "stateMutability": "view",
      "type": "function"
    },
    {
      "inputs": [
        {
          "internalType": "uint256",
          "name": "tokenId",
          "type": "uint256"
        }
      ],
      "name": "getHouse",
      "outputs": [
        {
          "internalType": "string",
          "name": "name",
          "type": "string"
        },
        {
          "internalType": "string",
          "name": "resourceType",
          "type": "string"
        },
        {
          "internalType": "uint256",
          "name": "value",
          "type": "uint256"
        },
        {
          "internalType": "string",
          "name": "ipfsHash",
          "type": "string"
        },
        {
          "internalType": "uint256",
          "name": "createdAt",
          "type": "uint256"
        },
        {
          "internalType": "uint256",
          "name": "lastTransferAt",
          "type": "uint256"
        },
        {
          "internalType": "bool",
          "name": "available",
          "type": "bool"
        }
      ],
      "stateMutability": "view",
      "type": "function"
    },
    {
      "inputs": [],
      "name": "getMyHouses",
      "outputs": [
        {
          "internalType": "uint256[]",
          "name": "",
          "type": "uint256[]"
        }
      ],
      "stateMutability": "view",
      "type": "function"
    },
    {
      "inputs": [],
      "name": "getResourceTypes",
      "outputs": [
        {
          "internalType": "string[]",
          "name": "",
          "type": "string[]"
        }
      ],
      "stateMutability": "pure",
      "type": "function"
    },
    {
      "inputs": [
        {
          "internalType": "uint256",
          "name": "",
          "type": "uint256"
        }
      ],
      "name": "houses",
      "outputs": [
        {
          "internalType": "string",
          "name": "name",
          "type": "string"
        },
        {
          "internalType": "enum ResourceToken.ResourceType",
          "name": "resourceType",
          "type": "uint8"
        },
        {
          "internalType": "uint256",
          "name": "value",
          "type": "uint256"
        },
        {
          "internalType": "string",
          "name": "ipfsHash",
          "type": "string"
        },
        {
          "internalType": "uint256",
          "name": "createdAt",
          "type": "uint256"
        },
        {
          "internalType": "uint256",
          "name": "lastTransferAt",
          "type": "uint256"
        },
        {
          "internalType": "bool",
          "name": "available",
          "type": "bool"
        }
      ],
      "stateMutability": "view",
      "type": "function"
    },
    {
      "inputs": [
        {
          "internalType": "address",
          "name": "owner",
          "type": "address"
        },
        {
          "internalType": "address",
          "name": "operator",
          "type": "address"
        }
      ],
      "name": "isApprovedForAll",
      "outputs": [
        {
          "internalType": "bool",
          "name": "",
          "type": "bool"
        }
      ],
      "stateMutability": "view",
      "type": "function"
    },
    {
      "inputs": [
        {
          "internalType": "address",
          "name": "",
          "type": "address"
        }
      ],
      "name": "lastTransactionTime",
      "outputs": [
        {
          "internalType": "uint256",
          "name": "",
          "type": "uint256"
        }
      ],
      "stateMutability": "view",
      "type": "function"
    },
    {
      "inputs": [
        {
          "internalType": "uint256",
          "name": "tokenId",
          "type": "uint256"
        },
        {
          "internalType": "uint256",
          "name": "value",
          "type": "uint256"
        }
      ],
      "name": "listHouseForSale",
      "outputs": [],
      "stateMutability": "nonpayable",
      "type": "function"
    },
    {
      "inputs": [],
      "name": "maxOwnership",
      "outputs": [
        {
          "internalType": "uint256",
          "name": "",
          "type": "uint256"
        }
      ],
      "stateMutability": "view",
      "type": "function"
    },
    {
      "inputs": [
        {
          "internalType": "string",
          "name": "name",
          "type": "string"
        },
        {
          "internalType": "enum ResourceToken.ResourceType",
          "name": "resourceType",
          "type": "uint8"
        },
        {
          "internalType": "uint256",
          "name": "value",
          "type": "uint256"
        },
        {
          "internalType": "string",
          "name": "ipfsHash",
          "type": "string"
        }
      ],
      "name": "mintHouse",
      "outputs": [
        {
          "internalType": "uint256",
          "name": "",
          "type": "uint256"
        }
      ],
      "stateMutability": "nonpayable",
      "type": "function"
    },
    {
      "inputs": [],
      "name": "name",
      "outputs": [
        {
          "internalType": "string",
          "name": "",
          "type": "string"
        }
      ],
      "stateMutability": "view",
      "type": "function"
    },
    {
      "inputs": [
        {
          "internalType": "uint256",
          "name": "tokenId",
          "type": "uint256"
        }
      ],
      "name": "ownerOf",
      "outputs": [
        {
          "internalType": "address",
          "name": "",
          "type": "address"
        }
      ],
      "stateMutability": "view",
      "type": "function"
    },
    {
      "inputs": [
        {
          "internalType": "uint256",
          "name": "tokenId",
          "type": "uint256"
        }
      ],
      "name": "purchaseHouse",
      "outputs": [],
      "stateMutability": "nonpayable",
      "type": "function"
    },
    {
      "inputs": [
        {
          "internalType": "address",
          "name": "from",
          "type": "address"
        },
        {
          "internalType": "address",
          "name": "to",
          "type": "address"
        },
        {
          "internalType": "uint256",
          "name": "tokenId",
          "type": "uint256"
        }
      ],
      "name": "safeTransferFrom",
      "outputs": [],
      "stateMutability": "nonpayable",
      "type": "function"
    },
    {
      "inputs": [
        {
          "internalType": "address",
          "name": "from",
          "type": "address"
        },
        {
          "internalType": "address",
          "name": "to",
          "type": "address"
        },
        {
          "internalType": "uint256",
          "name": "tokenId",
          "type": "uint256"
        },
        {
          "internalType": "bytes",
          "name": "data",
          "type": "bytes"
        }
      ],
      "name": "safeTransferFrom",
      "outputs": [],
      "stateMutability": "nonpayable",
      "type": "function"
    },
    {
      "inputs": [
        {
          "internalType": "address",
          "name": "operator",
          "type": "address"
        },
        {
          "internalType": "bool",
          "name": "approved",
          "type": "bool"
        }
      ],
      "name": "setApprovalForAll",
      "outputs": [],
      "stateMutability": "nonpayable",
      "type": "function"
    },
    {
      "inputs": [
        {
          "internalType": "bytes4",
          "name": "interfaceId",
          "type": "bytes4"
        }
      ],
      "name": "supportsInterface",
      "outputs": [
        {
          "internalType": "bool",
          "name": "",
          "type": "bool"
        }
      ],
      "stateMutability": "view",
      "type": "function"
    },
    {
      "inputs": [],
      "name": "symbol",
      "outputs": [
        {
          "internalType": "string",
          "name": "",
          "type": "string"
        }
      ],
      "stateMutability": "view",
      "type": "function"
    },
    {
      "inputs": [
        {
          "internalType": "uint256",
          "name": "tokenId",
          "type": "uint256"
        }
      ],
      "name": "tokenURI",
      "outputs": [
        {
          "internalType": "string",
          "name": "",
          "type": "string"
        }
      ],
      "stateMutability": "view",
      "type": "function"
    },
    {
      "inputs": [],
      "name": "transactionCooldown",
      "outputs": [
        {
          "internalType": "uint256",
          "name": "",
          "type": "uint256"
        }
      ],
      "stateMutability": "view",
      "type": "function"
    },
    {
      "inputs": [
        {
          "internalType": "address",
          "name": "from",
          "type": "address"
        },
        {
          "internalType": "address",
          "name": "to",
          "type": "address"
        },
        {
          "internalType": "uint256",
          "name": "tokenId",
          "type": "uint256"
        }
      ],
      "name": "transferFrom",
      "outputs": [],
      "stateMutability": "nonpayable",
      "type": "function"
    }
  ],
  "bytecode": "0x60806040526004600a5561012c600b5534801561001b57600080fd5b5060405161459a38038061459a833981810160405281019061003d9190610185565b6040518060400160405280600d81526020017f5265736f75726365546f6b656e000000000000000000000000000000000000008152506040518060400160405280600381526020017f52544b000000000000000000000000000000000000000000000000000000000081525081600090816100b89190610402565b5080600190816100c89190610402565b5050506001600781905550600060088190555080600960006101000a81548173ffffffffffffffffffffffffffffffffffffffff021916908373ffffffffffffffffffffffffffffffffffffffff160217905550506104d4565b600080fd5b600073ffffffffffffffffffffffffffffffffffffffff82169050919050565b600061015282610127565b9050919050565b61016281610147565b811461016d57600080fd5b50565b60008151905061017f81610159565b92915050565b60006020828403121561019b5761019a610122565b5b60006101a984828501610170565b91505092915050565b600081519050919050565b7f4e487b7100000000000000000000000000000000000000000000000000000000600052604160045260246000fd5b7f4e487b7100000000000000000000000000000000000000000000000000000000600052602260045260246000fd5b6000600282049050600182168061023357607f821691505b602082108103610246576102456101ec565b5b50919050565b60008190508160005260206000209050919050565b60006020601f8301049050919050565b600082821b905092915050565b6000600883026102ae7fffffffffffffffffffffffffffffffffffffffffffffffffffffffffffffffff82610271565b6102b88683610271565b95508019841693508086168417925050509392505050565b6000819050919050565b6000819050919050565b60006102ff6102fa6102f5846102d0565b6102da565b6102d0565b9050919050565b6000819050919050565b610319836102e4565b61032d61032582610306565b84845461027e565b825550505050565b600090565b610342610335565b61034d818484610310565b505050565b5b818110156103715761036660008261033a565b600181019050610353565b5050565b601f8211156103b6576103878161024c565b61039084610261565b8101602085101561039f578190505b6103b36103ab85610261565b830182610352565b50505b505050565b600082821c905092915050565b60006103d9600019846008026103bb565b1980831691505092915050565b60006103f283836103c8565b9150826002028217905092915050565b61040b826101b2565b67ffffffffffffffff811115610424576104236101bd565b5b61042e825461021b565b610439828285610375565b600060209050601f83116001811461046c576000841561045a578287015190505b61046485826103e6565b8655506104cc565b601f19841661047a8661024c565b60005b828110156104a25784890151825560018201915060208501945060208101905061047d565b868310156104bf57848901516104bb601f8916826103c8565b8355505b6001600288020188555050505b505050505050565b6140b7806104e36000396000f3fe608060405234801561001057600080fd5b50600436106101585760003560e01c80637e683845116100c3578063b88d4fde1161007c578063b88d4fde146103f9578063c87b56dd14610415578063c9fd96ad14610445578063d3691b0014610461578063e75b207314610480578063e985e9c5146104b057610158565b80637e6838451461031d578063923dcb8b1461034d57806395d89b411461036b578063a22cb46514610389578063aeda852f146103a5578063b14f1afd146103db57610158565b80633107c99d116101155780633107c99d1461022f578063395a221e1461026557806342842e0e146102835780636352211e1461029f57806365fda1f7146102cf57806370a08231146102ed57610158565b806301ffc9a71461015d57806306fdde031461018d578063081812fc146101ab578063095ea7b3146101db5780631775b534146101f757806323b872dd14610213575b600080fd5b61017760048036038101906101729190612e28565b6104e0565b6040516101849190612e70565b60405180910390f35b610195610541565b6040516101a29190612f1b565b60405180910390f35b6101c560048036038101906101c09190612f73565b6105d3565b6040516101d29190612fe1565b60405180910390f35b6101f560048036038101906101f09190613028565b6105ef565b005b610211600480360381019061020c9190612f73565b610605565b005b61022d60048036038101906102289190613068565b610a14565b005b61024960048036038101906102449190612f73565b610b16565b60405161025c97969594939291906130ca565b60405180910390f35b61026d610cf4565b60405161027a919061314e565b60405180910390f35b61029d60048036038101906102989190613068565b610cfa565b005b6102b960048036038101906102b49190612f73565b610d1a565b6040516102c69190612fe1565b60405180910390f35b6102d7610d2c565b6040516102e4919061314e565b60405180910390f35b61030760048036038101906103029190613169565b610d32565b604051610314919061314e565b60405180910390f35b610337600480360381019061033291906132f0565b610dec565b604051610344919061314e565b60405180910390f35b610355611035565b604051610362919061349b565b60405180910390f35b610373611190565b6040516103809190612f1b565b60405180910390f35b6103a3600480360381019061039e91906134e9565b611222565b005b6103bf60048036038101906103ba9190612f73565b611238565b6040516103d297969594939291906135a0565b60405180910390f35b6103e36113a4565b6040516103f091906136db565b60405180910390f35b610413600480360381019061040e919061379e565b6114f1565b005b61042f600480360381019061042a9190612f73565b611516565b60405161043c9190612f1b565b60405180910390f35b61045f600480360381019061045a9190613821565b611629565b005b610469611777565b60405161047792919061391f565b60405180910390f35b61049a60048036038101906104959190613169565b611952565b6040516104a7919061314e565b60405180910390f35b6104ca60048036038101906104c59190613956565b61196a565b6040516104d79190612e70565b60405180910390f35b6000634906490660e01b7bffffffffffffffffffffffffffffffffffffffffffffffffffffffff1916827bffffffffffffffffffffffffffffffffffffffffffffffffffffffff1916148061053a5750610539826119fe565b5b9050919050565b606060008054610550906139c5565b80601f016020809104026020016040519081016040528092919081815260200182805461057c906139c5565b80156105c95780601f1061059e576101008083540402835291602001916105c9565b820191906000526020600020905b8154815290600101906020018083116105ac57829003601f168201915b5050505050905090565b60006105de82611ae0565b506105e882611b68565b9050919050565b61060182826105fc611ba5565b611bad565b5050565b61060d611bbf565b600c600082815260200190815260200160002060070160009054906101000a900460ff16610667576040517fd9b9141900000000000000000000000000000000000000000000000000000000815260040160405180910390fd5b3373ffffffffffffffffffffffffffffffffffffffff1661068782610d1a565b73ffffffffffffffffffffffffffffffffffffffff16036106d4576040517f82b4290000000000000000000000000000000000000000000000000000000000815260040160405180910390fd5b600b54600d60003373ffffffffffffffffffffffffffffffffffffffff1673ffffffffffffffffffffffffffffffffffffffff168152602001908152602001600020546107219190613a25565b42101561075a576040517faa9a98df00000000000000000000000000000000000000000000000000000000815260040160405180910390fd5b600061076582610d1a565b90506000600c600084815260200190815260200160002060020154905080600960009054906101000a900473ffffffffffffffffffffffffffffffffffffffff1673ffffffffffffffffffffffffffffffffffffffff1663dd62ed3e33306040518363ffffffff1660e01b81526004016107e0929190613a59565b602060405180830381865afa1580156107fd573d6000803e3d6000fd5b505050506040513d601f19601f820116820180604052508101906108219190613a97565b1015610859576040517ff499da2000000000000000000000000000000000000000000000000000000000815260040160405180910390fd5b6108a8338383600960009054906101000a900473ffffffffffffffffffffffffffffffffffffffff1673ffffffffffffffffffffffffffffffffffffffff16611c05909392919063ffffffff16565b6108b3823385611c87565b600c6000848152602001908152602001600020600401829080600181540180825580915050600190039060005260206000200160009091909190916101000a81548173ffffffffffffffffffffffffffffffffffffffff021916908373ffffffffffffffffffffffffffffffffffffffff16021790555042600c6000858152602001908152602001600020600601819055506000600c600085815260200190815260200160002060070160006101000a81548160ff02191690831515021790555042600d60003373ffffffffffffffffffffffffffffffffffffffff1673ffffffffffffffffffffffffffffffffffffffff168152602001908152602001600020819055503373ffffffffffffffffffffffffffffffffffffffff16837f2ad8a3868f4623be3d61a829e19c896cdf5d7a0c71e4341b4bc1a92e093b5469836040516109ff919061314e565b60405180910390a35050610a11611df4565b50565b600073ffffffffffffffffffffffffffffffffffffffff168273ffffffffffffffffffffffffffffffffffffffff1603610a865760006040517f64a0ae92000000000000000000000000000000000000000000000000000000008152600401610a7d9190612fe1565b60405180910390fd5b6000610a9a8383610a95611ba5565b611dfe565b90508373ffffffffffffffffffffffffffffffffffffffff168173ffffffffffffffffffffffffffffffffffffffff1614610b10578382826040517f64283d7b000000000000000000000000000000000000000000000000000000008152600401610b0793929190613ac4565b60405180910390fd5b50505050565b60608060006060600080600080881480610b31575060085488115b15610b68576040517fc1ab6dc100000000000000000000000000000000000000000000000000000000815260040160405180910390fd5b6000600c60008a8152602001908152602001600020905080600001610b9d8260010160009054906101000a900460ff16612018565b826002015483600301846005015485600601548660070160009054906101000a900460ff16868054610bce906139c5565b80601f0160208091040260200160405190810160405280929190818152602001828054610bfa906139c5565b8015610c475780601f10610c1c57610100808354040283529160200191610c47565b820191906000526020600020905b815481529060010190602001808311610c2a57829003601f168201915b50505050509650838054610c5a906139c5565b80601f0160208091040260200160405190810160405280929190818152602001828054610c86906139c5565b8015610cd35780601f10610ca857610100808354040283529160200191610cd3565b820191906000526020600020905b815481529060010190602001808311610cb657829003601f168201915b50505050509350975097509750975097509750975050919395979092949650565b600a5481565b610d15838383604051806020016040528060008152506114f1565b505050565b6000610d2582611ae0565b9050919050565b600b5481565b60008073ffffffffffffffffffffffffffffffffffffffff168273ffffffffffffffffffffffffffffffffffffffff1603610da55760006040517f89c62b64000000000000000000000000000000000000000000000000000000008152600401610d9c9190612fe1565b60405180910390fd5b600360008373ffffffffffffffffffffffffffffffffffffffff1673ffffffffffffffffffffffffffffffffffffffff168152602001908152602001600020549050919050565b6000600a54610dfa33610d32565b10610e3a576040517f08c379a0000000000000000000000000000000000000000000000000000000008152600401610e3190613b47565b60405180910390fd5b600160086000828254610e4d9190613a25565b9250508190555060006008549050610e65338261216c565b610e6f8184612265565b604051806101000160405280878152602001866002811115610e9457610e93613529565b5b8152602001858152602001848152602001600067ffffffffffffffff811115610ec057610ebf6131a0565b5b604051908082528060200260200182016040528015610eee5781602001602082028036833780820191505090505b50815260200142815260200142815260200160011515815250600c60008381526020019081526020016000206000820151816000019081610f2f9190613d13565b5060208201518160010160006101000a81548160ff02191690836002811115610f5b57610f5a613529565b5b0217905550604082015181600201556060820151816003019081610f7f9190613d13565b506080820151816004019080519060200190610f9c929190612d15565b5060a0820151816005015560c0820151816006015560e08201518160070160006101000a81548160ff0219169083151502179055509050503373ffffffffffffffffffffffffffffffffffffffff16817fbbee3cf746bddac78ee7bce599c3345323fbade680a8ba314f7374126f6ca812888888886040516110219493929190613de5565b60405180910390a380915050949350505050565b60606000600367ffffffffffffffff811115611054576110536131a0565b5b60405190808252806020026020018201604052801561108757816020015b60608152602001906001900390816110725790505b5090506040518060400160405280600681526020017f4d4149534f4e0000000000000000000000000000000000000000000000000000815250816000815181106110d4576110d3613e38565b5b60200260200101819052506040518060400160405280600581526020017f56494c4c410000000000000000000000000000000000000000000000000000008152508160018151811061112957611128613e38565b5b60200260200101819052506040518060400160405280600581526020017f484f54454c0000000000000000000000000000000000000000000000000000008152508160028151811061117e5761117d613e38565b5b60200260200101819052508091505090565b60606001805461119f906139c5565b80601f01602080910402602001604051908101604052809291908181526020018280546111cb906139c5565b80156112185780601f106111ed57610100808354040283529160200191611218565b820191906000526020600020905b8154815290600101906020018083116111fb57829003601f168201915b5050505050905090565b61123461122d611ba5565b83836122c1565b5050565b600c60205280600052604060002060009150905080600001805461125b906139c5565b80601f0160208091040260200160405190810160405280929190818152602001828054611287906139c5565b80156112d45780601f106112a9576101008083540402835291602001916112d4565b820191906000526020600020905b8154815290600101906020018083116112b757829003601f168201915b5050505050908060010160009054906101000a900460ff1690806002015490806003018054611302906139c5565b80601f016020809104026020016040519081016040528092919081815260200182805461132e906139c5565b801561137b5780601f106113505761010080835404028352916020019161137b565b820191906000526020600020905b81548152906001019060200180831161135e57829003601f168201915b5050505050908060050154908060060154908060070160009054906101000a900460ff16905087565b606060006113b133610d32565b90506000810361140d57600067ffffffffffffffff8111156113d6576113d56131a0565b5b6040519080825280602002602001820160405280156114045781602001602082028036833780820191505090505b509150506114ee565b60008167ffffffffffffffff811115611429576114286131a0565b5b6040519080825280602002602001820160405280156114575781602001602082028036833780820191505090505b509050600080600190505b60085481116114e6573373ffffffffffffffffffffffffffffffffffffffff1661148b82610d1a565b73ffffffffffffffffffffffffffffffffffffffff16036114d357808383806114b390613e67565b9450815181106114c6576114c5613e38565b5b6020026020010181815250505b80806114de90613e67565b915050611462565b508193505050505b90565b6114fc848484610a14565b611510611507611ba5565b85858585612430565b50505050565b606061152182611ae0565b506000600660008481526020019081526020016000208054611542906139c5565b80601f016020809104026020016040519081016040528092919081815260200182805461156e906139c5565b80156115bb5780601f10611590576101008083540402835291602001916115bb565b820191906000526020600020905b81548152906001019060200180831161159e57829003601f168201915b5050505050905060006115cc6125e1565b905060008151036115e1578192505050611624565b6000825111156116165780826040516020016115fe929190613eeb565b60405160208183030381529060405292505050611624565b61161f846125f8565b925050505b919050565b3373ffffffffffffffffffffffffffffffffffffffff1661164983610d1a565b73ffffffffffffffffffffffffffffffffffffffff1614611696576040517f82b4290000000000000000000000000000000000000000000000000000000000815260040160405180910390fd5b600c600083815260200190815260200160002060070160009054906101000a900460ff16156116f1576040517fff7ba76e00000000000000000000000000000000000000000000000000000000815260040160405180910390fd5b80600c6000848152602001908152602001600020600201819055506001600c600084815260200190815260200160002060070160006101000a81548160ff021916908315150217905550817f3f6ac9180cf2abdb472ec4d379a6654a5253af404f295f2e027f63b39c88b3c98260405161176b919061314e565b60405180910390a25050565b606080600080600190505b60085481116117d657600c600082815260200190815260200160002060070160009054906101000a900460ff16156117c35781806117bf90613e67565b9250505b80806117ce90613e67565b915050611782565b5060008167ffffffffffffffff8111156117f3576117f26131a0565b5b6040519080825280602002602001820160405280156118215781602001602082028036833780820191505090505b50905060008267ffffffffffffffff8111156118405761183f6131a0565b5b60405190808252806020026020018201604052801561186e5781602001602082028036833780820191505090505b509050600080600190505b600854811161194357600c600082815260200190815260200160002060070160009054906101000a900460ff161561193057808483815181106118bf576118be613e38565b5b6020026020010181815250506118d481610d1a565b8383815181106118e7576118e6613e38565b5b602002602001019073ffffffffffffffffffffffffffffffffffffffff16908173ffffffffffffffffffffffffffffffffffffffff1681525050818061192c90613e67565b9250505b808061193b90613e67565b915050611879565b50828295509550505050509091565b600d6020528060005260406000206000915090505481565b6000600560008473ffffffffffffffffffffffffffffffffffffffff1673ffffffffffffffffffffffffffffffffffffffff16815260200190815260200160002060008373ffffffffffffffffffffffffffffffffffffffff1673ffffffffffffffffffffffffffffffffffffffff16815260200190815260200160002060009054906101000a900460ff16905092915050565b60007f80ac58cd000000000000000000000000000000000000000000000000000000007bffffffffffffffffffffffffffffffffffffffffffffffffffffffff1916827bffffffffffffffffffffffffffffffffffffffffffffffffffffffff19161480611ac957507f5b5e139f000000000000000000000000000000000000000000000000000000007bffffffffffffffffffffffffffffffffffffffffffffffffffffffff1916827bffffffffffffffffffffffffffffffffffffffffffffffffffffffff1916145b80611ad95750611ad882612661565b5b9050919050565b600080611aec836126cb565b9050600073ffffffffffffffffffffffffffffffffffffffff168173ffffffffffffffffffffffffffffffffffffffff1603611b5f57826040517f7e273289000000000000000000000000000000000000000000000000000000008152600401611b56919061314e565b60405180910390fd5b80915050919050565b60006004600083815260200190815260200160002060009054906101000a900473ffffffffffffffffffffffffffffffffffffffff169050919050565b600033905090565b611bba8383836001612708565b505050565b600260075403611bfb576040517f3ee5aeb500000000000000000000000000000000000000000000000000000000815260040160405180910390fd5b6002600781905550565b611c81848573ffffffffffffffffffffffffffffffffffffffff166323b872dd868686604051602401611c3a93929190613f0f565b604051602081830303815290604052915060e01b6020820180517bffffffffffffffffffffffffffffffffffffffffffffffffffffffff83818316178352505050506128cd565b50505050565b600073ffffffffffffffffffffffffffffffffffffffff168273ffffffffffffffffffffffffffffffffffffffff1603611cf95760006040517f64a0ae92000000000000000000000000000000000000000000000000000000008152600401611cf09190612fe1565b60405180910390fd5b6000611d0783836000611dfe565b9050600073ffffffffffffffffffffffffffffffffffffffff168173ffffffffffffffffffffffffffffffffffffffff1603611d7a57816040517f7e273289000000000000000000000000000000000000000000000000000000008152600401611d71919061314e565b60405180910390fd5b8373ffffffffffffffffffffffffffffffffffffffff168173ffffffffffffffffffffffffffffffffffffffff1614611dee578382826040517f64283d7b000000000000000000000000000000000000000000000000000000008152600401611de593929190613ac4565b60405180910390fd5b50505050565b6001600781905550565b600080611e0a846126cb565b9050600073ffffffffffffffffffffffffffffffffffffffff168373ffffffffffffffffffffffffffffffffffffffff1614611e4c57611e4b81848661296f565b5b600073ffffffffffffffffffffffffffffffffffffffff168173ffffffffffffffffffffffffffffffffffffffff1614611edd57611e8e600085600080612708565b6001600360008373ffffffffffffffffffffffffffffffffffffffff1673ffffffffffffffffffffffffffffffffffffffff168152602001908152602001600020600082825403925050819055505b600073ffffffffffffffffffffffffffffffffffffffff168573ffffffffffffffffffffffffffffffffffffffff1614611f60576001600360008773ffffffffffffffffffffffffffffffffffffffff1673ffffffffffffffffffffffffffffffffffffffff168152602001908152602001600020600082825401925050819055505b846002600086815260200190815260200160002060006101000a81548173ffffffffffffffffffffffffffffffffffffffff021916908373ffffffffffffffffffffffffffffffffffffffff160217905550838573ffffffffffffffffffffffffffffffffffffffff168273ffffffffffffffffffffffffffffffffffffffff167fddf252ad1be2c89b69c2b068fc378daa952ba7f163c4a11628f55a4df523b3ef60405160405180910390a4809150509392505050565b60606000600281111561202e5761202d613529565b5b82600281111561204157612040613529565b5b03612083576040518060400160405280600681526020017f4d4149534f4e00000000000000000000000000000000000000000000000000008152509050612167565b6001600281111561209757612096613529565b5b8260028111156120aa576120a9613529565b5b036120ec576040518060400160405280600581526020017f56494c4c410000000000000000000000000000000000000000000000000000008152509050612167565b6002808111156120ff576120fe613529565b5b82600281111561211257612111613529565b5b03612154576040518060400160405280600581526020017f484f54454c0000000000000000000000000000000000000000000000000000008152509050612167565b6040518060200160405280600081525090505b919050565b600073ffffffffffffffffffffffffffffffffffffffff168273ffffffffffffffffffffffffffffffffffffffff16036121de5760006040517f64a0ae920000000000000000000000000000000000000000000000000000000081526004016121d59190612fe1565b60405180910390fd5b60006121ec83836000611dfe565b9050600073ffffffffffffffffffffffffffffffffffffffff168173ffffffffffffffffffffffffffffffffffffffff16146122605760006040517f73c6ac6e0000000000000000000000000000000000000000000000000000000081526004016122579190612fe1565b60405180910390fd5b505050565b806006600084815260200190815260200160002090816122859190613d13565b507ff8e1a15aba9398e019f0b49df1a4fde98ee17ae345cb5f6b5e2c27f5033e8ce7826040516122b5919061314e565b60405180910390a15050565b600073ffffffffffffffffffffffffffffffffffffffff168273ffffffffffffffffffffffffffffffffffffffff160361233257816040517f5b08ba180000000000000000000000000000000000000000000000000000000081526004016123299190612fe1565b60405180910390fd5b80600560008573ffffffffffffffffffffffffffffffffffffffff1673ffffffffffffffffffffffffffffffffffffffff16815260200190815260200160002060008473ffffffffffffffffffffffffffffffffffffffff1673ffffffffffffffffffffffffffffffffffffffff16815260200190815260200160002060006101000a81548160ff0219169083151502179055508173ffffffffffffffffffffffffffffffffffffffff168373ffffffffffffffffffffffffffffffffffffffff167f17307eab39ab6107e8899845ad3d59bd9653f200f220920489ca2b5937696c31836040516124239190612e70565b60405180910390a3505050565b60008373ffffffffffffffffffffffffffffffffffffffff163b11156125da578273ffffffffffffffffffffffffffffffffffffffff1663150b7a02868685856040518563ffffffff1660e01b815260040161248f9493929190613f9b565b6020604051808303816000875af19250505080156124cb57506040513d601f19601f820116820180604052508101906124c89190613ffc565b60015b61254f573d80600081146124fb576040519150601f19603f3d011682016040523d82523d6000602084013e612500565b606091505b50600081510361254757836040517f64a0ae9200000000000000000000000000000000000000000000000000000000815260040161253e9190612fe1565b60405180910390fd5b805181602001fd5b63150b7a0260e01b7bffffffffffffffffffffffffffffffffffffffffffffffffffffffff1916817bffffffffffffffffffffffffffffffffffffffffffffffffffffffff1916146125d857836040517f64a0ae920000000000000000000000000000000000000000000000000000000081526004016125cf9190612fe1565b60405180910390fd5b505b5050505050565b606060405180602001604052806000815250905090565b606061260382611ae0565b50600061260e6125e1565b9050600081511161262e5760405180602001604052806000815250612659565b8061263884612a33565b604051602001612649929190613eeb565b6040516020818303038152906040525b915050919050565b60007f01ffc9a7000000000000000000000000000000000000000000000000000000007bffffffffffffffffffffffffffffffffffffffffffffffffffffffff1916827bffffffffffffffffffffffffffffffffffffffffffffffffffffffff1916149050919050565b60006002600083815260200190815260200160002060009054906101000a900473ffffffffffffffffffffffffffffffffffffffff169050919050565b80806127415750600073ffffffffffffffffffffffffffffffffffffffff168273ffffffffffffffffffffffffffffffffffffffff1614155b1561287557600061275184611ae0565b9050600073ffffffffffffffffffffffffffffffffffffffff168373ffffffffffffffffffffffffffffffffffffffff16141580156127bc57508273ffffffffffffffffffffffffffffffffffffffff168173ffffffffffffffffffffffffffffffffffffffff1614155b80156127cf57506127cd818461196a565b155b1561281157826040517fa9fbf51f0000000000000000000000000000000000000000000000000000000081526004016128089190612fe1565b60405180910390fd5b811561287357838573ffffffffffffffffffffffffffffffffffffffff168273ffffffffffffffffffffffffffffffffffffffff167f8c5be1e5ebec7d5bd14f71427d1e84f3dd0314c0f7b2291e5b200ac8c7c3b92560405160405180910390a45b505b836004600085815260200190815260200160002060006101000a81548173ffffffffffffffffffffffffffffffffffffffff021916908373ffffffffffffffffffffffffffffffffffffffff16021790555050505050565b600080602060008451602086016000885af1806128f0576040513d6000823e3d81fd5b3d92506000519150506000821461290b576001811415612927565b60008473ffffffffffffffffffffffffffffffffffffffff163b145b1561296957836040517f5274afe70000000000000000000000000000000000000000000000000000000081526004016129609190612fe1565b60405180910390fd5b50505050565b61297a838383612b01565b612a2e57600073ffffffffffffffffffffffffffffffffffffffff168373ffffffffffffffffffffffffffffffffffffffff16036129ef57806040517f7e2732890000000000000000000000000000000000000000000000000000000081526004016129e6919061314e565b60405180910390fd5b81816040517f177e802f000000000000000000000000000000000000000000000000000000008152600401612a25929190614029565b60405180910390fd5b505050565b606060006001612a4284612bc2565b01905060008167ffffffffffffffff811115612a6157612a606131a0565b5b6040519080825280601f01601f191660200182016040528015612a935781602001600182028036833780820191505090505b509050600082602001820190505b600115612af6578080600190039150507f3031323334353637383961626364656600000000000000000000000000000000600a86061a8153600a8581612aea57612ae9614052565b5b04945060008503612aa1575b819350505050919050565b60008073ffffffffffffffffffffffffffffffffffffffff168373ffffffffffffffffffffffffffffffffffffffff1614158015612bb957508273ffffffffffffffffffffffffffffffffffffffff168473ffffffffffffffffffffffffffffffffffffffff161480612b7a5750612b79848461196a565b5b80612bb857508273ffffffffffffffffffffffffffffffffffffffff16612ba083611b68565b73ffffffffffffffffffffffffffffffffffffffff16145b5b90509392505050565b600080600090507a184f03e93ff9f4daa797ed6e38ed64bf6a1f0100000000000000008310612c20577a184f03e93ff9f4daa797ed6e38ed64bf6a1f0100000000000000008381612c1657612c15614052565b5b0492506040810190505b6d04ee2d6d415b85acef81000000008310612c5d576d04ee2d6d415b85acef81000000008381612c5357612c52614052565b5b0492506020810190505b662386f26fc100008310612c8c57662386f26fc100008381612c8257612c81614052565b5b0492506010810190505b6305f5e1008310612cb5576305f5e1008381612cab57612caa614052565b5b0492506008810190505b6127108310612cda576127108381612cd057612ccf614052565b5b0492506004810190505b60648310612cfd5760648381612cf357612cf2614052565b5b0492506002810190505b600a8310612d0c576001810190505b80915050919050565b828054828255906000526020600020908101928215612d8e579160200282015b82811115612d8d5782518260006101000a81548173ffffffffffffffffffffffffffffffffffffffff021916908373ffffffffffffffffffffffffffffffffffffffff16021790555091602001919060010190612d35565b5b509050612d9b9190612d9f565b5090565b5b80821115612db8576000816000905550600101612da0565b5090565b6000604051905090565b600080fd5b600080fd5b60007fffffffff0000000000000000000000000000000000000000000000000000000082169050919050565b612e0581612dd0565b8114612e1057600080fd5b50565b600081359050612e2281612dfc565b92915050565b600060208284031215612e3e57612e3d612dc6565b5b6000612e4c84828501612e13565b91505092915050565b60008115159050919050565b612e6a81612e55565b82525050565b6000602082019050612e856000830184612e61565b92915050565b600081519050919050565b600082825260208201905092915050565b60005b83811015612ec5578082015181840152602081019050612eaa565b60008484015250505050565b6000601f19601f8301169050919050565b6000612eed82612e8b565b612ef78185612e96565b9350612f07818560208601612ea7565b612f1081612ed1565b840191505092915050565b60006020820190508181036000830152612f358184612ee2565b905092915050565b6000819050919050565b612f5081612f3d565b8114612f5b57600080fd5b50565b600081359050612f6d81612f47565b92915050565b600060208284031215612f8957612f88612dc6565b5b6000612f9784828501612f5e565b91505092915050565b600073ffffffffffffffffffffffffffffffffffffffff82169050919050565b6000612fcb82612fa0565b9050919050565b612fdb81612fc0565b82525050565b6000602082019050612ff66000830184612fd2565b92915050565b61300581612fc0565b811461301057600080fd5b50565b60008135905061302281612ffc565b92915050565b6000806040838503121561303f5761303e612dc6565b5b600061304d85828601613013565b925050602061305e85828601612f5e565b9150509250929050565b60008060006060848603121561308157613080612dc6565b5b600061308f86828701613013565b93505060206130a086828701613013565b92505060406130b186828701612f5e565b9150509250925092565b6130c481612f3d565b82525050565b600060e08201905081810360008301526130e4818a612ee2565b905081810360208301526130f88189612ee2565b905061310760408301886130bb565b81810360608301526131198187612ee2565b905061312860808301866130bb565b61313560a08301856130bb565b61314260c0830184612e61565b98975050505050505050565b600060208201905061316360008301846130bb565b92915050565b60006020828403121561317f5761317e612dc6565b5b600061318d84828501613013565b91505092915050565b600080fd5b600080fd5b7f4e487b7100000000000000000000000000000000000000000000000000000000600052604160045260246000fd5b6131d882612ed1565b810181811067ffffffffffffffff821117156131f7576131f66131a0565b5b80604052505050565b600061320a612dbc565b905061321682826131cf565b919050565b600067ffffffffffffffff821115613236576132356131a0565b5b61323f82612ed1565b9050602081019050919050565b82818337600083830152505050565b600061326e6132698461321b565b613200565b90508281526020810184848401111561328a5761328961319b565b5b61329584828561324c565b509392505050565b600082601f8301126132b2576132b1613196565b5b81356132c284826020860161325b565b91505092915050565b600381106132d857600080fd5b50565b6000813590506132ea816132cb565b92915050565b6000806000806080858703121561330a57613309612dc6565b5b600085013567ffffffffffffffff81111561332857613327612dcb565b5b6133348782880161329d565b9450506020613345878288016132db565b935050604061335687828801612f5e565b925050606085013567ffffffffffffffff81111561337757613376612dcb565b5b6133838782880161329d565b91505092959194509250565b600081519050919050565b600082825260208201905092915050565b6000819050602082019050919050565b600082825260208201905092915050565b60006133d782612e8b565b6133e181856133bb565b93506133f1818560208601612ea7565b6133fa81612ed1565b840191505092915050565b600061341183836133cc565b905092915050565b6000602082019050919050565b60006134318261338f565b61343b818561339a565b93508360208202850161344d856133ab565b8060005b85811015613489578484038952815161346a8582613405565b945061347583613419565b925060208a01995050600181019050613451565b50829750879550505050505092915050565b600060208201905081810360008301526134b58184613426565b905092915050565b6134c681612e55565b81146134d157600080fd5b50565b6000813590506134e3816134bd565b92915050565b60008060408385031215613500576134ff612dc6565b5b600061350e85828601613013565b925050602061351f858286016134d4565b9150509250929050565b7f4e487b7100000000000000000000000000000000000000000000000000000000600052602160045260246000fd5b6003811061356957613568613529565b5b50565b600081905061357a82613558565b919050565b600061358a8261356c565b9050919050565b61359a8161357f565b82525050565b600060e08201905081810360008301526135ba818a612ee2565b90506135c96020830189613591565b6135d660408301886130bb565b81810360608301526135e88187612ee2565b90506135f760808301866130bb565b61360460a08301856130bb565b61361160c0830184612e61565b98975050505050505050565b600081519050919050565b600082825260208201905092915050565b6000819050602082019050919050565b61365281612f3d565b82525050565b60006136648383613649565b60208301905092915050565b6000602082019050919050565b60006136888261361d565b6136928185613628565b935061369d83613639565b8060005b838110156136ce5781516136b58882613658565b97506136c083613670565b9250506001810190506136a1565b5085935050505092915050565b600060208201905081810360008301526136f5818461367d565b905092915050565b600067ffffffffffffffff821115613718576137176131a0565b5b61372182612ed1565b9050602081019050919050565b600061374161373c846136fd565b613200565b90508281526020810184848401111561375d5761375c61319b565b5b61376884828561324c565b509392505050565b600082601f83011261378557613784613196565b5b813561379584826020860161372e565b91505092915050565b600080600080608085870312156137b8576137b7612dc6565b5b60006137c687828801613013565b94505060206137d787828801613013565b93505060406137e887828801612f5e565b925050606085013567ffffffffffffffff81111561380957613808612dcb565b5b61381587828801613770565b91505092959194509250565b6000806040838503121561383857613837612dc6565b5b600061384685828601612f5e565b925050602061385785828601612f5e565b9150509250929050565b600081519050919050565b600082825260208201905092915050565b6000819050602082019050919050565b61389681612fc0565b82525050565b60006138a8838361388d565b60208301905092915050565b6000602082019050919050565b60006138cc82613861565b6138d6818561386c565b93506138e18361387d565b8060005b838110156139125781516138f9888261389c565b9750613904836138b4565b9250506001810190506138e5565b5085935050505092915050565b60006040820190508181036000830152613939818561367d565b9050818103602083015261394d81846138c1565b90509392505050565b6000806040838503121561396d5761396c612dc6565b5b600061397b85828601613013565b925050602061398c85828601613013565b9150509250929050565b7f4e487b7100000000000000000000000000000000000000000000000000000000600052602260045260246000fd5b600060028204905060018216806139dd57607f821691505b6020821081036139f0576139ef613996565b5b50919050565b7f4e487b7100000000000000000000000000000000000000000000000000000000600052601160045260246000fd5b6000613a3082612f3d565b9150613a3b83612f3d565b9250828201905080821115613a5357613a526139f6565b5b92915050565b6000604082019050613a6e6000830185612fd2565b613a7b6020830184612fd2565b9392505050565b600081519050613a9181612f47565b92915050565b600060208284031215613aad57613aac612dc6565b5b6000613abb84828501613a82565b91505092915050565b6000606082019050613ad96000830186612fd2565b613ae660208301856130bb565b613af36040830184612fd2565b949350505050565b7f4f776e657273686970206c696d69742072656163686564000000000000000000600082015250565b6000613b31601783612e96565b9150613b3c82613afb565b602082019050919050565b60006020820190508181036000830152613b6081613b24565b9050919050565b60008190508160005260206000209050919050565b60006020601f8301049050919050565b600082821b905092915050565b600060088302613bc97fffffffffffffffffffffffffffffffffffffffffffffffffffffffffffffffff82613b8c565b613bd38683613b8c565b95508019841693508086168417925050509392505050565b6000819050919050565b6000613c10613c0b613c0684612f3d565b613beb565b612f3d565b9050919050565b6000819050919050565b613c2a83613bf5565b613c3e613c3682613c17565b848454613b99565b825550505050565b600090565b613c53613c46565b613c5e818484613c21565b505050565b5b81811015613c8257613c77600082613c4b565b600181019050613c64565b5050565b601f821115613cc757613c9881613b67565b613ca184613b7c565b81016020851015613cb0578190505b613cc4613cbc85613b7c565b830182613c63565b50505b505050565b600082821c905092915050565b6000613cea60001984600802613ccc565b1980831691505092915050565b6000613d038383613cd9565b9150826002028217905092915050565b613d1c82612e8b565b67ffffffffffffffff811115613d3557613d346131a0565b5b613d3f82546139c5565b613d4a828285613c86565b600060209050601f831160018114613d7d5760008415613d6b578287015190505b613d758582613cf7565b865550613ddd565b601f198416613d8b86613b67565b60005b82811015613db357848901518255600182019150602085019450602081019050613d8e565b86831015613dd05784890151613dcc601f891682613cd9565b8355505b6001600288020188555050505b505050505050565b60006080820190508181036000830152613dff8187612ee2565b9050613e0e6020830186613591565b613e1b60408301856130bb565b8181036060830152613e2d8184612ee2565b905095945050505050565b7f4e487b7100000000000000000000000000000000000000000000000000000000600052603260045260246000fd5b6000613e7282612f3d565b91507fffffffffffffffffffffffffffffffffffffffffffffffffffffffffffffffff8203613ea457613ea36139f6565b5b600182019050919050565b600081905092915050565b6000613ec582612e8b565b613ecf8185613eaf565b9350613edf818560208601612ea7565b80840191505092915050565b6000613ef78285613eba565b9150613f038284613eba565b91508190509392505050565b6000606082019050613f246000830186612fd2565b613f316020830185612fd2565b613f3e60408301846130bb565b949350505050565b600081519050919050565b600082825260208201905092915050565b6000613f6d82613f46565b613f778185613f51565b9350613f87818560208601612ea7565b613f9081612ed1565b840191505092915050565b6000608082019050613fb06000830187612fd2565b613fbd6020830186612fd2565b613fca60408301856130bb565b8181036060830152613fdc8184613f62565b905095945050505050565b600081519050613ff681612dfc565b92915050565b60006020828403121561401257614011612dc6565b5b600061402084828501613fe7565b91505092915050565b600060408201905061403e6000830185612fd2565b61404b60208301846130bb565b9392505050565b7f4e487b7100000000000000000000000000000000000000000000000000000000600052601260045260246000fdfea2646970667358221220f34dda086b87f813e3a895a457327324867de3e5a8b4ccefe373c12ffe2bde9c64736f6c634300081c0033",
  "linkReferences": {},
  "deployedLinkReferences": {}
}