{
  "_format": "hh-sol-artifact-1",
  "contractName": "ResourceToken",
  "sourceName": "contracts/RessourceToken.sol",
  "abi": [
    {
      "inputs": [
        {
          "internalType": "address",
          "name": "supCoinAddress",
          "type": "address"
        }
      ],
      "stateMutability": "nonpayable",
      "type": "constructor"
    },
    {
      "inputs": [
        {
          "internalType": "address",
          "name": "sender",
          "type": "address"
        },
        {
          "internalType": "uint256",
          "name": "tokenId",
          "type": "uint256"
        },
        {
          "internalType": "address",
          "name": "owner",
          "type": "address"
        }
      ],
      "name": "ERC721IncorrectOwner",
      "type": "error"
    },
    {
      "inputs": [
        {
          "internalType": "address",
          "name": "operator",
          "type": "address"
        },
        {
          "internalType": "uint256",
          "name": "tokenId",
          "type": "uint256"
        }
      ],
      "name": "ERC721InsufficientApproval",
      "type": "error"
    },
    {
      "inputs": [
        {
          "internalType": "address",
          "name": "approver",
          "type": "address"
        }
      ],
      "name": "ERC721InvalidApprover",
      "type": "error"
    },
    {
      "inputs": [
        {
          "internalType": "address",
          "name": "operator",
          "type": "address"
        }
      ],
      "name": "ERC721InvalidOperator",
      "type": "error"
    },
    {
      "inputs": [
        {
          "internalType": "address",
          "name": "owner",
          "type": "address"
        }
      ],
      "name": "ERC721InvalidOwner",
      "type": "error"
    },
    {
      "inputs": [
        {
          "internalType": "address",
          "name": "receiver",
          "type": "address"
        }
      ],
      "name": "ERC721InvalidReceiver",
      "type": "error"
    },
    {
      "inputs": [
        {
          "internalType": "address",
          "name": "sender",
          "type": "address"
        }
      ],
      "name": "ERC721InvalidSender",
      "type": "error"
    },
    {
      "inputs": [
        {
          "internalType": "uint256",
          "name": "tokenId",
          "type": "uint256"
        }
      ],
      "name": "ERC721NonexistentToken",
      "type": "error"
    },
    {
      "anonymous": false,
      "inputs": [
        {
          "indexed": true,
          "internalType": "address",
          "name": "owner",
          "type": "address"
        },
        {
          "indexed": true,
          "internalType": "address",
          "name": "approved",
          "type": "address"
        },
        {
          "indexed": true,
          "internalType": "uint256",
          "name": "tokenId",
          "type": "uint256"
        }
      ],
      "name": "Approval",
      "type": "event"
    },
    {
      "anonymous": false,
      "inputs": [
        {
          "indexed": true,
          "internalType": "address",
          "name": "owner",
          "type": "address"
        },
        {
          "indexed": true,
          "internalType": "address",
          "name": "operator",
          "type": "address"
        },
        {
          "indexed": false,
          "internalType": "bool",
          "name": "approved",
          "type": "bool"
        }
      ],
      "name": "ApprovalForAll",
      "type": "event"
    },
    {
      "anonymous": false,
      "inputs": [
        {
          "indexed": false,
          "internalType": "uint256",
          "name": "_fromTokenId",
          "type": "uint256"
        },
        {
          "indexed": false,
          "internalType": "uint256",
          "name": "_toTokenId",
          "type": "uint256"
        }
      ],
      "name": "BatchMetadataUpdate",
      "type": "event"
    },
    {
      "anonymous": false,
      "inputs": [
        {
          "indexed": false,
          "internalType": "uint256",
          "name": "_tokenId",
          "type": "uint256"
        }
      ],
      "name": "MetadataUpdate",
      "type": "event"
    },
    {
      "anonymous": false,
      "inputs": [
        {
          "indexed": true,
          "internalType": "address",
          "name": "from",
          "type": "address"
        },
        {
          "indexed": true,
          "internalType": "address",
          "name": "to",
          "type": "address"
        },
        {
          "indexed": true,
          "internalType": "uint256",
          "name": "tokenId",
          "type": "uint256"
        }
      ],
      "name": "Transfer",
      "type": "event"
    },
    {
      "inputs": [
        {
          "internalType": "address",
          "name": "to",
          "type": "address"
        },
        {
          "internalType": "uint256",
          "name": "tokenId",
          "type": "uint256"
        }
      ],
      "name": "approve",
      "outputs": [],
      "stateMutability": "nonpayable",
      "type": "function"
    },
    {
      "inputs": [
        {
          "internalType": "address",
          "name": "owner",
          "type": "address"
        }
      ],
      "name": "balanceOf",
      "outputs": [
        {
          "internalType": "uint256",
          "name": "",
          "type": "uint256"
        }
      ],
      "stateMutability": "view",
      "type": "function"
    },
    {
      "inputs": [
        {
          "internalType": "uint256",
          "name": "tokenId",
          "type": "uint256"
        }
      ],
      "name": "getApproved",
      "outputs": [
        {
          "internalType": "address",
          "name": "",
          "type": "address"
        }
      ],
      "stateMutability": "view",
      "type": "function"
    },
    {
      "inputs": [
        {
          "internalType": "address",
          "name": "owner",
          "type": "address"
        },
        {
          "internalType": "address",
          "name": "operator",
          "type": "address"
        }
      ],
      "name": "isApprovedForAll",
      "outputs": [
        {
          "internalType": "bool",
          "name": "",
          "type": "bool"
        }
      ],
      "stateMutability": "view",
      "type": "function"
    },
    {
      "inputs": [
        {
          "internalType": "address",
          "name": "to",
          "type": "address"
        },
        {
          "internalType": "string",
          "name": "name",
          "type": "string"
        },
        {
          "internalType": "string",
          "name": "resourceType",
          "type": "string"
        },
        {
          "internalType": "uint256",
          "name": "value",
          "type": "uint256"
        },
        {
          "internalType": "string",
          "name": "ipfsHash",
          "type": "string"
        }
      ],
      "name": "mintResource",
      "outputs": [
        {
          "internalType": "uint256",
          "name": "",
          "type": "uint256"
        }
      ],
      "stateMutability": "nonpayable",
      "type": "function"
    },
    {
      "inputs": [],
      "name": "name",
      "outputs": [
        {
          "internalType": "string",
          "name": "",
          "type": "string"
        }
      ],
      "stateMutability": "view",
      "type": "function"
    },
    {
      "inputs": [
        {
          "internalType": "uint256",
          "name": "tokenId",
          "type": "uint256"
        }
      ],
      "name": "ownerOf",
      "outputs": [
        {
          "internalType": "address",
          "name": "",
          "type": "address"
        }
      ],
      "stateMutability": "view",
      "type": "function"
    },
    {
      "inputs": [
        {
          "internalType": "uint256",
          "name": "",
          "type": "uint256"
        }
      ],
      "name": "resources",
      "outputs": [
        {
          "internalType": "string",
          "name": "name",
          "type": "string"
        },
        {
          "internalType": "string",
          "name": "resourceType",
          "type": "string"
        },
        {
          "internalType": "uint256",
          "name": "value",
          "type": "uint256"
        },
        {
          "internalType": "string",
          "name": "ipfsHash",
          "type": "string"
        },
        {
          "internalType": "uint256",
          "name": "createdAt",
          "type": "uint256"
        },
        {
          "internalType": "uint256",
          "name": "lastTransferAt",
          "type": "uint256"
        }
      ],
      "stateMutability": "view",
      "type": "function"
    },
    {
      "inputs": [
        {
          "internalType": "address",
          "name": "from",
          "type": "address"
        },
        {
          "internalType": "address",
          "name": "to",
          "type": "address"
        },
        {
          "internalType": "uint256",
          "name": "tokenId",
          "type": "uint256"
        }
      ],
      "name": "safeTransferFrom",
      "outputs": [],
      "stateMutability": "nonpayable",
      "type": "function"
    },
    {
      "inputs": [
        {
          "internalType": "address",
          "name": "from",
          "type": "address"
        },
        {
          "internalType": "address",
          "name": "to",
          "type": "address"
        },
        {
          "internalType": "uint256",
          "name": "tokenId",
          "type": "uint256"
        },
        {
          "internalType": "bytes",
          "name": "data",
          "type": "bytes"
        }
      ],
      "name": "safeTransferFrom",
      "outputs": [],
      "stateMutability": "nonpayable",
      "type": "function"
    },
    {
      "inputs": [
        {
          "internalType": "address",
          "name": "operator",
          "type": "address"
        },
        {
          "internalType": "bool",
          "name": "approved",
          "type": "bool"
        }
      ],
      "name": "setApprovalForAll",
      "outputs": [],
      "stateMutability": "nonpayable",
      "type": "function"
    },
    {
      "inputs": [
        {
          "internalType": "bytes4",
          "name": "interfaceId",
          "type": "bytes4"
        }
      ],
      "name": "supportsInterface",
      "outputs": [
        {
          "internalType": "bool",
          "name": "",
          "type": "bool"
        }
      ],
      "stateMutability": "view",
      "type": "function"
    },
    {
      "inputs": [],
      "name": "symbol",
      "outputs": [
        {
          "internalType": "string",
          "name": "",
          "type": "string"
        }
      ],
      "stateMutability": "view",
      "type": "function"
    },
    {
      "inputs": [
        {
          "internalType": "uint256",
          "name": "tokenId",
          "type": "uint256"
        }
      ],
      "name": "tokenURI",
      "outputs": [
        {
          "internalType": "string",
          "name": "",
          "type": "string"
        }
      ],
      "stateMutability": "view",
      "type": "function"
    },
    {
      "inputs": [
        {
          "internalType": "address",
          "name": "from",
          "type": "address"
        },
        {
          "internalType": "address",
          "name": "to",
          "type": "address"
        },
        {
          "internalType": "uint256",
          "name": "tokenId",
          "type": "uint256"
        }
      ],
      "name": "transferFrom",
      "outputs": [],
      "stateMutability": "nonpayable",
      "type": "function"
    },
    {
      "inputs": [
        {
          "internalType": "address",
          "name": "from",
          "type": "address"
        },
        {
          "internalType": "address",
          "name": "to",
          "type": "address"
        },
        {
          "internalType": "uint256",
          "name": "tokenId",
          "type": "uint256"
        }
      ],
      "name": "transferResource",
      "outputs": [],
      "stateMutability": "nonpayable",
      "type": "function"
    }
  ],
  "bytecode": "0x60806040523480156200001157600080fd5b506040516200326b3803806200326b833981810160405281019062000037919062000183565b6040518060400160405280600d81526020017f5265736f75726365546f6b656e000000000000000000000000000000000000008152506040518060400160405280600381526020017f52535400000000000000000000000000000000000000000000000000000000008152508160009081620000b491906200042f565b508060019081620000c691906200042f565b505050600060078190555080600860006101000a81548173ffffffffffffffffffffffffffffffffffffffff021916908373ffffffffffffffffffffffffffffffffffffffff1602179055505062000516565b600080fd5b600073ffffffffffffffffffffffffffffffffffffffff82169050919050565b60006200014b826200011e565b9050919050565b6200015d816200013e565b81146200016957600080fd5b50565b6000815190506200017d8162000152565b92915050565b6000602082840312156200019c576200019b62000119565b5b6000620001ac848285016200016c565b91505092915050565b600081519050919050565b7f4e487b7100000000000000000000000000000000000000000000000000000000600052604160045260246000fd5b7f4e487b7100000000000000000000000000000000000000000000000000000000600052602260045260246000fd5b600060028204905060018216806200023757607f821691505b6020821081036200024d576200024c620001ef565b5b50919050565b60008190508160005260206000209050919050565b60006020601f8301049050919050565b600082821b905092915050565b600060088302620002b77fffffffffffffffffffffffffffffffffffffffffffffffffffffffffffffffff8262000278565b620002c3868362000278565b95508019841693508086168417925050509392505050565b6000819050919050565b6000819050919050565b6000620003106200030a6200030484620002db565b620002e5565b620002db565b9050919050565b6000819050919050565b6200032c83620002ef565b620003446200033b8262000317565b84845462000285565b825550505050565b600090565b6200035b6200034c565b6200036881848462000321565b505050565b5b8181101562000390576200038460008262000351565b6001810190506200036e565b5050565b601f821115620003df57620003a98162000253565b620003b48462000268565b81016020851015620003c4578190505b620003dc620003d38562000268565b8301826200036d565b50505b505050565b600082821c905092915050565b60006200040460001984600802620003e4565b1980831691505092915050565b60006200041f8383620003f1565b9150826002028217905092915050565b6200043a82620001b5565b67ffffffffffffffff811115620004565762000455620001c0565b5b6200046282546200021e565b6200046f82828562000394565b600060209050601f831160018114620004a7576000841562000492578287015190505b6200049e858262000411565b8655506200050e565b601f198416620004b78662000253565b60005b82811015620004e157848901518255600182019150602085019450602081019050620004ba565b86831015620005015784890151620004fd601f891682620003f1565b8355505b6001600288020188555050505b505050505050565b612d4580620005266000396000f3fe608060405234801561001057600080fd5b50600436106101005760003560e01c80636352211e11610097578063b88d4fde11610066578063b88d4fde146102c2578063c87b56dd146102de578063e985e9c51461030e578063ffd3406f1461033e57610100565b80636352211e1461022857806370a082311461025857806395d89b4114610288578063a22cb465146102a657610100565b806323b872dd116100d357806323b872dd1461019f578063244d6daa146101bb57806342842e0e146101f05780635932ef241461020c57610100565b806301ffc9a71461010557806306fdde0314610135578063081812fc14610153578063095ea7b314610183575b600080fd5b61011f600480360381019061011a9190611f77565b61036e565b60405161012c9190611fbf565b60405180910390f35b61013d6103cf565b60405161014a919061206a565b60405180910390f35b61016d600480360381019061016891906120c2565b610461565b60405161017a9190612130565b60405180910390f35b61019d60048036038101906101989190612177565b61047d565b005b6101b960048036038101906101b491906121b7565b610493565b005b6101d560048036038101906101d091906120c2565b610595565b6040516101e796959493929190612219565b60405180910390f35b61020a600480360381019061020591906121b7565b610769565b005b610226600480360381019061022191906121b7565b610789565b005b610242600480360381019061023d91906120c2565b6108a1565b60405161024f9190612130565b60405180910390f35b610272600480360381019061026d919061228f565b6108b3565b60405161027f91906122bc565b60405180910390f35b61029061096d565b60405161029d919061206a565b60405180910390f35b6102c060048036038101906102bb9190612303565b6109ff565b005b6102dc60048036038101906102d79190612478565b610a15565b005b6102f860048036038101906102f391906120c2565b610a3a565b604051610305919061206a565b60405180910390f35b610328600480360381019061032391906124fb565b610b4d565b6040516103359190611fbf565b60405180910390f35b610358600480360381019061035391906125dc565b610be1565b60405161036591906122bc565b60405180910390f35b6000634906490660e01b7bffffffffffffffffffffffffffffffffffffffffffffffffffffffff1916827bffffffffffffffffffffffffffffffffffffffffffffffffffffffff191614806103c857506103c782610e15565b5b9050919050565b6060600080546103de906126da565b80601f016020809104026020016040519081016040528092919081815260200182805461040a906126da565b80156104575780601f1061042c57610100808354040283529160200191610457565b820191906000526020600020905b81548152906001019060200180831161043a57829003601f168201915b5050505050905090565b600061046c82610ef7565b5061047682610f7f565b9050919050565b61048f828261048a610fbc565b610fc4565b5050565b600073ffffffffffffffffffffffffffffffffffffffff168273ffffffffffffffffffffffffffffffffffffffff16036105055760006040517f64a0ae920000000000000000000000000000000000000000000000000000000081526004016104fc9190612130565b60405180910390fd5b60006105198383610514610fbc565b610fd6565b90508373ffffffffffffffffffffffffffffffffffffffff168173ffffffffffffffffffffffffffffffffffffffff161461058f578382826040517f64283d7b0000000000000000000000000000000000000000000000000000000081526004016105869392919061270b565b60405180910390fd5b50505050565b60096020528060005260406000206000915090508060000180546105b8906126da565b80601f01602080910402602001604051908101604052809291908181526020018280546105e4906126da565b80156106315780601f1061060657610100808354040283529160200191610631565b820191906000526020600020905b81548152906001019060200180831161061457829003601f168201915b505050505090806001018054610646906126da565b80601f0160208091040260200160405190810160405280929190818152602001828054610672906126da565b80156106bf5780601f10610694576101008083540402835291602001916106bf565b820191906000526020600020905b8154815290600101906020018083116106a257829003601f168201915b5050505050908060020154908060030180546106da906126da565b80601f0160208091040260200160405190810160405280929190818152602001828054610706906126da565b80156107535780601f1061072857610100808354040283529160200191610753565b820191906000526020600020905b81548152906001019060200180831161073657829003601f168201915b5050505050908060050154908060060154905086565b61078483838360405180602001604052806000815250610a15565b505050565b8273ffffffffffffffffffffffffffffffffffffffff166107a9826108a1565b73ffffffffffffffffffffffffffffffffffffffff16146107ff576040517f08c379a00000000000000000000000000000000000000000000000000000000081526004016107f69061278e565b60405180910390fd5b61080a8383836111f0565b60096000828152602001908152602001600020600401839080600181540180825580915050600190039060005260206000200160009091909190916101000a81548173ffffffffffffffffffffffffffffffffffffffff021916908373ffffffffffffffffffffffffffffffffffffffff160217905550426009600083815260200190815260200160002060060181905550505050565b60006108ac82610ef7565b9050919050565b60008073ffffffffffffffffffffffffffffffffffffffff168273ffffffffffffffffffffffffffffffffffffffff16036109265760006040517f89c62b6400000000000000000000000000000000000000000000000000000000815260040161091d9190612130565b60405180910390fd5b600360008373ffffffffffffffffffffffffffffffffffffffff1673ffffffffffffffffffffffffffffffffffffffff168152602001908152602001600020549050919050565b60606001805461097c906126da565b80601f01602080910402602001604051908101604052809291908181526020018280546109a8906126da565b80156109f55780601f106109ca576101008083540402835291602001916109f5565b820191906000526020600020905b8154815290600101906020018083116109d857829003601f168201915b5050505050905090565b610a11610a0a610fbc565b838361135d565b5050565b610a20848484610493565b610a34610a2b610fbc565b858585856114cc565b50505050565b6060610a4582610ef7565b506000600660008481526020019081526020016000208054610a66906126da565b80601f0160208091040260200160405190810160405280929190818152602001828054610a92906126da565b8015610adf5780601f10610ab457610100808354040283529160200191610adf565b820191906000526020600020905b815481529060010190602001808311610ac257829003601f168201915b505050505090506000610af061167d565b90506000815103610b05578192505050610b48565b600082511115610b3a578082604051602001610b229291906127ea565b60405160208183030381529060405292505050610b48565b610b4384611694565b925050505b919050565b6000600560008473ffffffffffffffffffffffffffffffffffffffff1673ffffffffffffffffffffffffffffffffffffffff16815260200190815260200160002060008373ffffffffffffffffffffffffffffffffffffffff1673ffffffffffffffffffffffffffffffffffffffff16815260200190815260200160002060009054906101000a900460ff16905092915050565b6000600860009054906101000a900473ffffffffffffffffffffffffffffffffffffffff1673ffffffffffffffffffffffffffffffffffffffff166323b872dd3330866040518463ffffffff1660e01b8152600401610c429392919061280e565b6020604051808303816000875af1158015610c61573d6000803e3d6000fd5b505050506040513d601f19601f82011682018060405250810190610c85919061285a565b610cc4576040517f08c379a0000000000000000000000000000000000000000000000000000000008152600401610cbb906128d3565b60405180910390fd5b600160076000828254610cd79190612922565b9250508190555060006007549050610cef87826116fd565b610cf981846117f6565b6040518060e00160405280878152602001868152602001858152602001848152602001600067ffffffffffffffff811115610d3757610d3661234d565b5b604051908082528060200260200182016040528015610d655781602001602082028036833780820191505090505b50815260200142815260200142815250600960008381526020019081526020016000206000820151816000019081610d9d9190612b02565b506020820151816001019081610db39190612b02565b50604082015181600201556060820151816003019081610dd39190612b02565b506080820151816004019080519060200190610df0929190611e64565b5060a0820151816005015560c082015181600601559050508091505095945050505050565b60007f80ac58cd000000000000000000000000000000000000000000000000000000007bffffffffffffffffffffffffffffffffffffffffffffffffffffffff1916827bffffffffffffffffffffffffffffffffffffffffffffffffffffffff19161480610ee057507f5b5e139f000000000000000000000000000000000000000000000000000000007bffffffffffffffffffffffffffffffffffffffffffffffffffffffff1916827bffffffffffffffffffffffffffffffffffffffffffffffffffffffff1916145b80610ef05750610eef82611852565b5b9050919050565b600080610f03836118bc565b9050600073ffffffffffffffffffffffffffffffffffffffff168173ffffffffffffffffffffffffffffffffffffffff1603610f7657826040517f7e273289000000000000000000000000000000000000000000000000000000008152600401610f6d91906122bc565b60405180910390fd5b80915050919050565b60006004600083815260200190815260200160002060009054906101000a900473ffffffffffffffffffffffffffffffffffffffff169050919050565b600033905090565b610fd183838360016118f9565b505050565b600080610fe2846118bc565b9050600073ffffffffffffffffffffffffffffffffffffffff168373ffffffffffffffffffffffffffffffffffffffff161461102457611023818486611abe565b5b600073ffffffffffffffffffffffffffffffffffffffff168173ffffffffffffffffffffffffffffffffffffffff16146110b5576110666000856000806118f9565b6001600360008373ffffffffffffffffffffffffffffffffffffffff1673ffffffffffffffffffffffffffffffffffffffff168152602001908152602001600020600082825403925050819055505b600073ffffffffffffffffffffffffffffffffffffffff168573ffffffffffffffffffffffffffffffffffffffff1614611138576001600360008773ffffffffffffffffffffffffffffffffffffffff1673ffffffffffffffffffffffffffffffffffffffff168152602001908152602001600020600082825401925050819055505b846002600086815260200190815260200160002060006101000a81548173ffffffffffffffffffffffffffffffffffffffff021916908373ffffffffffffffffffffffffffffffffffffffff160217905550838573ffffffffffffffffffffffffffffffffffffffff168273ffffffffffffffffffffffffffffffffffffffff167fddf252ad1be2c89b69c2b068fc378daa952ba7f163c4a11628f55a4df523b3ef60405160405180910390a4809150509392505050565b600073ffffffffffffffffffffffffffffffffffffffff168273ffffffffffffffffffffffffffffffffffffffff16036112625760006040517f64a0ae920000000000000000000000000000000000000000000000000000000081526004016112599190612130565b60405180910390fd5b600061127083836000610fd6565b9050600073ffffffffffffffffffffffffffffffffffffffff168173ffffffffffffffffffffffffffffffffffffffff16036112e357816040517f7e2732890000000000000000000000000000000000000000000000000000000081526004016112da91906122bc565b60405180910390fd5b8373ffffffffffffffffffffffffffffffffffffffff168173ffffffffffffffffffffffffffffffffffffffff1614611357578382826040517f64283d7b00000000000000000000000000000000000000000000000000000000815260040161134e9392919061270b565b60405180910390fd5b50505050565b600073ffffffffffffffffffffffffffffffffffffffff168273ffffffffffffffffffffffffffffffffffffffff16036113ce57816040517f5b08ba180000000000000000000000000000000000000000000000000000000081526004016113c59190612130565b60405180910390fd5b80600560008573ffffffffffffffffffffffffffffffffffffffff1673ffffffffffffffffffffffffffffffffffffffff16815260200190815260200160002060008473ffffffffffffffffffffffffffffffffffffffff1673ffffffffffffffffffffffffffffffffffffffff16815260200190815260200160002060006101000a81548160ff0219169083151502179055508173ffffffffffffffffffffffffffffffffffffffff168373ffffffffffffffffffffffffffffffffffffffff167f17307eab39ab6107e8899845ad3d59bd9653f200f220920489ca2b5937696c31836040516114bf9190611fbf565b60405180910390a3505050565b60008373ffffffffffffffffffffffffffffffffffffffff163b1115611676578273ffffffffffffffffffffffffffffffffffffffff1663150b7a02868685856040518563ffffffff1660e01b815260040161152b9493929190612c29565b6020604051808303816000875af192505050801561156757506040513d601f19601f820116820180604052508101906115649190612c8a565b60015b6115eb573d8060008114611597576040519150601f19603f3d011682016040523d82523d6000602084013e61159c565b606091505b5060008151036115e357836040517f64a0ae920000000000000000000000000000000000000000000000000000000081526004016115da9190612130565b60405180910390fd5b805181602001fd5b63150b7a0260e01b7bffffffffffffffffffffffffffffffffffffffffffffffffffffffff1916817bffffffffffffffffffffffffffffffffffffffffffffffffffffffff19161461167457836040517f64a0ae9200000000000000000000000000000000000000000000000000000000815260040161166b9190612130565b60405180910390fd5b505b5050505050565b606060405180602001604052806000815250905090565b606061169f82610ef7565b5060006116aa61167d565b905060008151116116ca57604051806020016040528060008152506116f5565b806116d484611b82565b6040516020016116e59291906127ea565b6040516020818303038152906040525b915050919050565b600073ffffffffffffffffffffffffffffffffffffffff168273ffffffffffffffffffffffffffffffffffffffff160361176f5760006040517f64a0ae920000000000000000000000000000000000000000000000000000000081526004016117669190612130565b60405180910390fd5b600061177d83836000610fd6565b9050600073ffffffffffffffffffffffffffffffffffffffff168173ffffffffffffffffffffffffffffffffffffffff16146117f15760006040517f73c6ac6e0000000000000000000000000000000000000000000000000000000081526004016117e89190612130565b60405180910390fd5b505050565b806006600084815260200190815260200160002090816118169190612b02565b507ff8e1a15aba9398e019f0b49df1a4fde98ee17ae345cb5f6b5e2c27f5033e8ce78260405161184691906122bc565b60405180910390a15050565b60007f01ffc9a7000000000000000000000000000000000000000000000000000000007bffffffffffffffffffffffffffffffffffffffffffffffffffffffff1916827bffffffffffffffffffffffffffffffffffffffffffffffffffffffff1916149050919050565b60006002600083815260200190815260200160002060009054906101000a900473ffffffffffffffffffffffffffffffffffffffff169050919050565b80806119325750600073ffffffffffffffffffffffffffffffffffffffff168273ffffffffffffffffffffffffffffffffffffffff1614155b15611a6657600061194284610ef7565b9050600073ffffffffffffffffffffffffffffffffffffffff168373ffffffffffffffffffffffffffffffffffffffff16141580156119ad57508273ffffffffffffffffffffffffffffffffffffffff168173ffffffffffffffffffffffffffffffffffffffff1614155b80156119c057506119be8184610b4d565b155b15611a0257826040517fa9fbf51f0000000000000000000000000000000000000000000000000000000081526004016119f99190612130565b60405180910390fd5b8115611a6457838573ffffffffffffffffffffffffffffffffffffffff168273ffffffffffffffffffffffffffffffffffffffff167f8c5be1e5ebec7d5bd14f71427d1e84f3dd0314c0f7b2291e5b200ac8c7c3b92560405160405180910390a45b505b836004600085815260200190815260200160002060006101000a81548173ffffffffffffffffffffffffffffffffffffffff021916908373ffffffffffffffffffffffffffffffffffffffff16021790555050505050565b611ac9838383611c50565b611b7d57600073ffffffffffffffffffffffffffffffffffffffff168373ffffffffffffffffffffffffffffffffffffffff1603611b3e57806040517f7e273289000000000000000000000000000000000000000000000000000000008152600401611b3591906122bc565b60405180910390fd5b81816040517f177e802f000000000000000000000000000000000000000000000000000000008152600401611b74929190612cb7565b60405180910390fd5b505050565b606060006001611b9184611d11565b01905060008167ffffffffffffffff811115611bb057611baf61234d565b5b6040519080825280601f01601f191660200182016040528015611be25781602001600182028036833780820191505090505b509050600082602001820190505b600115611c45578080600190039150507f3031323334353637383961626364656600000000000000000000000000000000600a86061a8153600a8581611c3957611c38612ce0565b5b04945060008503611bf0575b819350505050919050565b60008073ffffffffffffffffffffffffffffffffffffffff168373ffffffffffffffffffffffffffffffffffffffff1614158015611d0857508273ffffffffffffffffffffffffffffffffffffffff168473ffffffffffffffffffffffffffffffffffffffff161480611cc95750611cc88484610b4d565b5b80611d0757508273ffffffffffffffffffffffffffffffffffffffff16611cef83610f7f565b73ffffffffffffffffffffffffffffffffffffffff16145b5b90509392505050565b600080600090507a184f03e93ff9f4daa797ed6e38ed64bf6a1f0100000000000000008310611d6f577a184f03e93ff9f4daa797ed6e38ed64bf6a1f0100000000000000008381611d6557611d64612ce0565b5b0492506040810190505b6d04ee2d6d415b85acef81000000008310611dac576d04ee2d6d415b85acef81000000008381611da257611da1612ce0565b5b0492506020810190505b662386f26fc100008310611ddb57662386f26fc100008381611dd157611dd0612ce0565b5b0492506010810190505b6305f5e1008310611e04576305f5e1008381611dfa57611df9612ce0565b5b0492506008810190505b6127108310611e29576127108381611e1f57611e1e612ce0565b5b0492506004810190505b60648310611e4c5760648381611e4257611e41612ce0565b5b0492506002810190505b600a8310611e5b576001810190505b80915050919050565b828054828255906000526020600020908101928215611edd579160200282015b82811115611edc5782518260006101000a81548173ffffffffffffffffffffffffffffffffffffffff021916908373ffffffffffffffffffffffffffffffffffffffff16021790555091602001919060010190611e84565b5b509050611eea9190611eee565b5090565b5b80821115611f07576000816000905550600101611eef565b5090565b6000604051905090565b600080fd5b600080fd5b60007fffffffff0000000000000000000000000000000000000000000000000000000082169050919050565b611f5481611f1f565b8114611f5f57600080fd5b50565b600081359050611f7181611f4b565b92915050565b600060208284031215611f8d57611f8c611f15565b5b6000611f9b84828501611f62565b91505092915050565b60008115159050919050565b611fb981611fa4565b82525050565b6000602082019050611fd46000830184611fb0565b92915050565b600081519050919050565b600082825260208201905092915050565b60005b83811015612014578082015181840152602081019050611ff9565b60008484015250505050565b6000601f19601f8301169050919050565b600061203c82611fda565b6120468185611fe5565b9350612056818560208601611ff6565b61205f81612020565b840191505092915050565b600060208201905081810360008301526120848184612031565b905092915050565b6000819050919050565b61209f8161208c565b81146120aa57600080fd5b50565b6000813590506120bc81612096565b92915050565b6000602082840312156120d8576120d7611f15565b5b60006120e6848285016120ad565b91505092915050565b600073ffffffffffffffffffffffffffffffffffffffff82169050919050565b600061211a826120ef565b9050919050565b61212a8161210f565b82525050565b60006020820190506121456000830184612121565b92915050565b6121548161210f565b811461215f57600080fd5b50565b6000813590506121718161214b565b92915050565b6000806040838503121561218e5761218d611f15565b5b600061219c85828601612162565b92505060206121ad858286016120ad565b9150509250929050565b6000806000606084860312156121d0576121cf611f15565b5b60006121de86828701612162565b93505060206121ef86828701612162565b9250506040612200868287016120ad565b9150509250925092565b6122138161208c565b82525050565b600060c08201905081810360008301526122338189612031565b905081810360208301526122478188612031565b9050612256604083018761220a565b81810360608301526122688186612031565b9050612277608083018561220a565b61228460a083018461220a565b979650505050505050565b6000602082840312156122a5576122a4611f15565b5b60006122b384828501612162565b91505092915050565b60006020820190506122d1600083018461220a565b92915050565b6122e081611fa4565b81146122eb57600080fd5b50565b6000813590506122fd816122d7565b92915050565b6000806040838503121561231a57612319611f15565b5b600061232885828601612162565b9250506020612339858286016122ee565b9150509250929050565b600080fd5b600080fd5b7f4e487b7100000000000000000000000000000000000000000000000000000000600052604160045260246000fd5b61238582612020565b810181811067ffffffffffffffff821117156123a4576123a361234d565b5b80604052505050565b60006123b7611f0b565b90506123c3828261237c565b919050565b600067ffffffffffffffff8211156123e3576123e261234d565b5b6123ec82612020565b9050602081019050919050565b82818337600083830152505050565b600061241b612416846123c8565b6123ad565b90508281526020810184848401111561243757612436612348565b5b6124428482856123f9565b509392505050565b600082601f83011261245f5761245e612343565b5b813561246f848260208601612408565b91505092915050565b6000806000806080858703121561249257612491611f15565b5b60006124a087828801612162565b94505060206124b187828801612162565b93505060406124c2878288016120ad565b925050606085013567ffffffffffffffff8111156124e3576124e2611f1a565b5b6124ef8782880161244a565b91505092959194509250565b6000806040838503121561251257612511611f15565b5b600061252085828601612162565b925050602061253185828601612162565b9150509250929050565b600067ffffffffffffffff8211156125565761255561234d565b5b61255f82612020565b9050602081019050919050565b600061257f61257a8461253b565b6123ad565b90508281526020810184848401111561259b5761259a612348565b5b6125a68482856123f9565b509392505050565b600082601f8301126125c3576125c2612343565b5b81356125d384826020860161256c565b91505092915050565b600080600080600060a086880312156125f8576125f7611f15565b5b600061260688828901612162565b955050602086013567ffffffffffffffff81111561262757612626611f1a565b5b612633888289016125ae565b945050604086013567ffffffffffffffff81111561265457612653611f1a565b5b612660888289016125ae565b9350506060612671888289016120ad565b925050608086013567ffffffffffffffff81111561269257612691611f1a565b5b61269e888289016125ae565b9150509295509295909350565b7f4e487b7100000000000000000000000000000000000000000000000000000000600052602260045260246000fd5b600060028204905060018216806126f257607f821691505b602082108103612705576127046126ab565b5b50919050565b60006060820190506127206000830186612121565b61272d602083018561220a565b61273a6040830184612121565b949350505050565b7f596f7520646f206e6f74206f776e207468697320746f6b656e00000000000000600082015250565b6000612778601983611fe5565b915061278382612742565b602082019050919050565b600060208201905081810360008301526127a78161276b565b9050919050565b600081905092915050565b60006127c482611fda565b6127ce81856127ae565b93506127de818560208601611ff6565b80840191505092915050565b60006127f682856127b9565b915061280282846127b9565b91508190509392505050565b60006060820190506128236000830186612121565b6128306020830185612121565b61283d604083018461220a565b949350505050565b600081519050612854816122d7565b92915050565b6000602082840312156128705761286f611f15565b5b600061287e84828501612845565b91505092915050565b7f5061796d656e74206661696c6564000000000000000000000000000000000000600082015250565b60006128bd600e83611fe5565b91506128c882612887565b602082019050919050565b600060208201905081810360008301526128ec816128b0565b9050919050565b7f4e487b7100000000000000000000000000000000000000000000000000000000600052601160045260246000fd5b600061292d8261208c565b91506129388361208c565b92508282019050808211156129505761294f6128f3565b5b92915050565b60008190508160005260206000209050919050565b60006020601f8301049050919050565b600082821b905092915050565b6000600883026129b87fffffffffffffffffffffffffffffffffffffffffffffffffffffffffffffffff8261297b565b6129c2868361297b565b95508019841693508086168417925050509392505050565b6000819050919050565b60006129ff6129fa6129f58461208c565b6129da565b61208c565b9050919050565b6000819050919050565b612a19836129e4565b612a2d612a2582612a06565b848454612988565b825550505050565b600090565b612a42612a35565b612a4d818484612a10565b505050565b5b81811015612a7157612a66600082612a3a565b600181019050612a53565b5050565b601f821115612ab657612a8781612956565b612a908461296b565b81016020851015612a9f578190505b612ab3612aab8561296b565b830182612a52565b50505b505050565b600082821c905092915050565b6000612ad960001984600802612abb565b1980831691505092915050565b6000612af28383612ac8565b9150826002028217905092915050565b612b0b82611fda565b67ffffffffffffffff811115612b2457612b2361234d565b5b612b2e82546126da565b612b39828285612a75565b600060209050601f831160018114612b6c5760008415612b5a578287015190505b612b648582612ae6565b865550612bcc565b601f198416612b7a86612956565b60005b82811015612ba257848901518255600182019150602085019450602081019050612b7d565b86831015612bbf5784890151612bbb601f891682612ac8565b8355505b6001600288020188555050505b505050505050565b600081519050919050565b600082825260208201905092915050565b6000612bfb82612bd4565b612c058185612bdf565b9350612c15818560208601611ff6565b612c1e81612020565b840191505092915050565b6000608082019050612c3e6000830187612121565b612c4b6020830186612121565b612c58604083018561220a565b8181036060830152612c6a8184612bf0565b905095945050505050565b600081519050612c8481611f4b565b92915050565b600060208284031215612ca057612c9f611f15565b5b6000612cae84828501612c75565b91505092915050565b6000604082019050612ccc6000830185612121565b612cd9602083018461220a565b9392505050565b7f4e487b7100000000000000000000000000000000000000000000000000000000600052601260045260246000fdfea2646970667358221220bb51c712d4ef37832d76dd8b757ddb535adf7706fb2a5c85463bb18e1e90d21064736f6c63430008160033",
  "linkReferences": {},
  "deployedLinkReferences": {}
}