{
  "_format": "hh-sol-artifact-1",
  "contractName": "ResourceToken",
  "sourceName": "contracts/RessourceToken.sol",
  "abi": [
    {
      "inputs": [
        {
          "internalType": "address",
          "name": "paymentTokenAddress",
          "type": "address"
        }
      ],
      "stateMutability": "nonpayable",
      "type": "constructor"
    },
    {
      "inputs": [
        {
          "internalType": "address",
          "name": "sender",
          "type": "address"
        },
        {
          "internalType": "uint256",
          "name": "tokenId",
          "type": "uint256"
        },
        {
          "internalType": "address",
          "name": "owner",
          "type": "address"
        }
      ],
      "name": "ERC721IncorrectOwner",
      "type": "error"
    },
    {
      "inputs": [
        {
          "internalType": "address",
          "name": "operator",
          "type": "address"
        },
        {
          "internalType": "uint256",
          "name": "tokenId",
          "type": "uint256"
        }
      ],
      "name": "ERC721InsufficientApproval",
      "type": "error"
    },
    {
      "inputs": [
        {
          "internalType": "address",
          "name": "approver",
          "type": "address"
        }
      ],
      "name": "ERC721InvalidApprover",
      "type": "error"
    },
    {
      "inputs": [
        {
          "internalType": "address",
          "name": "operator",
          "type": "address"
        }
      ],
      "name": "ERC721InvalidOperator",
      "type": "error"
    },
    {
      "inputs": [
        {
          "internalType": "address",
          "name": "owner",
          "type": "address"
        }
      ],
      "name": "ERC721InvalidOwner",
      "type": "error"
    },
    {
      "inputs": [
        {
          "internalType": "address",
          "name": "receiver",
          "type": "address"
        }
      ],
      "name": "ERC721InvalidReceiver",
      "type": "error"
    },
    {
      "inputs": [
        {
          "internalType": "address",
          "name": "sender",
          "type": "address"
        }
      ],
      "name": "ERC721InvalidSender",
      "type": "error"
    },
    {
      "inputs": [
        {
          "internalType": "uint256",
          "name": "tokenId",
          "type": "uint256"
        }
      ],
      "name": "ERC721NonexistentToken",
      "type": "error"
    },
    {
      "anonymous": false,
      "inputs": [
        {
          "indexed": true,
          "internalType": "address",
          "name": "owner",
          "type": "address"
        },
        {
          "indexed": true,
          "internalType": "address",
          "name": "approved",
          "type": "address"
        },
        {
          "indexed": true,
          "internalType": "uint256",
          "name": "tokenId",
          "type": "uint256"
        }
      ],
      "name": "Approval",
      "type": "event"
    },
    {
      "anonymous": false,
      "inputs": [
        {
          "indexed": true,
          "internalType": "address",
          "name": "owner",
          "type": "address"
        },
        {
          "indexed": true,
          "internalType": "address",
          "name": "operator",
          "type": "address"
        },
        {
          "indexed": false,
          "internalType": "bool",
          "name": "approved",
          "type": "bool"
        }
      ],
      "name": "ApprovalForAll",
      "type": "event"
    },
    {
      "anonymous": false,
      "inputs": [
        {
          "indexed": false,
          "internalType": "uint256",
          "name": "_fromTokenId",
          "type": "uint256"
        },
        {
          "indexed": false,
          "internalType": "uint256",
          "name": "_toTokenId",
          "type": "uint256"
        }
      ],
      "name": "BatchMetadataUpdate",
      "type": "event"
    },
    {
      "anonymous": false,
      "inputs": [
        {
          "indexed": true,
          "internalType": "uint256",
          "name": "tokenId",
          "type": "uint256"
        },
        {
          "indexed": false,
          "internalType": "uint256",
          "name": "value",
          "type": "uint256"
        }
      ],
      "name": "HouseListed",
      "type": "event"
    },
    {
      "anonymous": false,
      "inputs": [
        {
          "indexed": true,
          "internalType": "uint256",
          "name": "tokenId",
          "type": "uint256"
        },
        {
          "indexed": true,
          "internalType": "address",
          "name": "owner",
          "type": "address"
        },
        {
          "indexed": false,
          "internalType": "string",
          "name": "name",
          "type": "string"
        },
        {
          "indexed": false,
          "internalType": "enum ResourceToken.ResourceType",
          "name": "resourceType",
          "type": "uint8"
        },
        {
          "indexed": false,
          "internalType": "uint256",
          "name": "value",
          "type": "uint256"
        },
        {
          "indexed": false,
          "internalType": "string",
          "name": "ipfsHash",
          "type": "string"
        }
      ],
      "name": "HouseMinted",
      "type": "event"
    },
    {
      "anonymous": false,
      "inputs": [
        {
          "indexed": true,
          "internalType": "uint256",
          "name": "tokenId",
          "type": "uint256"
        },
        {
          "indexed": true,
          "internalType": "address",
          "name": "buyer",
          "type": "address"
        },
        {
          "indexed": false,
          "internalType": "uint256",
          "name": "value",
          "type": "uint256"
        }
      ],
      "name": "HousePurchased",
      "type": "event"
    },
    {
      "anonymous": false,
      "inputs": [
        {
          "indexed": false,
          "internalType": "uint256",
          "name": "_tokenId",
          "type": "uint256"
        }
      ],
      "name": "MetadataUpdate",
      "type": "event"
    },
    {
      "anonymous": false,
      "inputs": [
        {
          "indexed": true,
          "internalType": "address",
          "name": "from",
          "type": "address"
        },
        {
          "indexed": true,
          "internalType": "address",
          "name": "to",
          "type": "address"
        },
        {
          "indexed": true,
          "internalType": "uint256",
          "name": "tokenId",
          "type": "uint256"
        }
      ],
      "name": "Transfer",
      "type": "event"
    },
    {
      "inputs": [
        {
          "internalType": "address",
          "name": "to",
          "type": "address"
        },
        {
          "internalType": "uint256",
          "name": "tokenId",
          "type": "uint256"
        }
      ],
      "name": "approve",
      "outputs": [],
      "stateMutability": "nonpayable",
      "type": "function"
    },
    {
      "inputs": [
        {
          "internalType": "address",
          "name": "owner",
          "type": "address"
        }
      ],
      "name": "balanceOf",
      "outputs": [
        {
          "internalType": "uint256",
          "name": "",
          "type": "uint256"
        }
      ],
      "stateMutability": "view",
      "type": "function"
    },
    {
      "inputs": [
        {
          "internalType": "uint256",
          "name": "tokenId",
          "type": "uint256"
        }
      ],
      "name": "getApproved",
      "outputs": [
        {
          "internalType": "address",
          "name": "",
          "type": "address"
        }
      ],
      "stateMutability": "view",
      "type": "function"
    },
    {
      "inputs": [],
      "name": "getAvailableHouses",
      "outputs": [
        {
          "internalType": "uint256[]",
          "name": "",
          "type": "uint256[]"
        }
      ],
      "stateMutability": "view",
      "type": "function"
    },
    {
      "inputs": [],
      "name": "getMyHouses",
      "outputs": [
        {
          "internalType": "uint256[]",
          "name": "",
          "type": "uint256[]"
        }
      ],
      "stateMutability": "view",
      "type": "function"
    },
    {
      "inputs": [],
      "name": "getResourceTypes",
      "outputs": [
        {
          "internalType": "string[]",
          "name": "",
          "type": "string[]"
        }
      ],
      "stateMutability": "pure",
      "type": "function"
    },
    {
      "inputs": [
        {
          "internalType": "uint256",
          "name": "",
          "type": "uint256"
        }
      ],
      "name": "houses",
      "outputs": [
        {
          "internalType": "string",
          "name": "name",
          "type": "string"
        },
        {
          "internalType": "enum ResourceToken.ResourceType",
          "name": "resourceType",
          "type": "uint8"
        },
        {
          "internalType": "uint256",
          "name": "value",
          "type": "uint256"
        },
        {
          "internalType": "string",
          "name": "ipfsHash",
          "type": "string"
        },
        {
          "internalType": "uint256",
          "name": "createdAt",
          "type": "uint256"
        },
        {
          "internalType": "uint256",
          "name": "lastTransferAt",
          "type": "uint256"
        },
        {
          "internalType": "bool",
          "name": "available",
          "type": "bool"
        }
      ],
      "stateMutability": "view",
      "type": "function"
    },
    {
      "inputs": [
        {
          "internalType": "address",
          "name": "owner",
          "type": "address"
        },
        {
          "internalType": "address",
          "name": "operator",
          "type": "address"
        }
      ],
      "name": "isApprovedForAll",
      "outputs": [
        {
          "internalType": "bool",
          "name": "",
          "type": "bool"
        }
      ],
      "stateMutability": "view",
      "type": "function"
    },
    {
      "inputs": [
        {
          "internalType": "address",
          "name": "",
          "type": "address"
        }
      ],
      "name": "lastTransactionTime",
      "outputs": [
        {
          "internalType": "uint256",
          "name": "",
          "type": "uint256"
        }
      ],
      "stateMutability": "view",
      "type": "function"
    },
    {
      "inputs": [
        {
          "internalType": "uint256",
          "name": "tokenId",
          "type": "uint256"
        },
        {
          "internalType": "uint256",
          "name": "value",
          "type": "uint256"
        },
        {
          "internalType": "enum ResourceToken.ResourceType",
          "name": "resourceType",
          "type": "uint8"
        }
      ],
      "name": "listHouseForSale",
      "outputs": [],
      "stateMutability": "nonpayable",
      "type": "function"
    },
    {
      "inputs": [],
      "name": "maxOwnership",
      "outputs": [
        {
          "internalType": "uint256",
          "name": "",
          "type": "uint256"
        }
      ],
      "stateMutability": "view",
      "type": "function"
    },
    {
      "inputs": [
        {
          "internalType": "string",
          "name": "name",
          "type": "string"
        },
        {
          "internalType": "enum ResourceToken.ResourceType",
          "name": "resourceType",
          "type": "uint8"
        },
        {
          "internalType": "uint256",
          "name": "value",
          "type": "uint256"
        },
        {
          "internalType": "string",
          "name": "ipfsHash",
          "type": "string"
        }
      ],
      "name": "mintHouse",
      "outputs": [
        {
          "internalType": "uint256",
          "name": "",
          "type": "uint256"
        }
      ],
      "stateMutability": "nonpayable",
      "type": "function"
    },
    {
      "inputs": [],
      "name": "name",
      "outputs": [
        {
          "internalType": "string",
          "name": "",
          "type": "string"
        }
      ],
      "stateMutability": "view",
      "type": "function"
    },
    {
      "inputs": [
        {
          "internalType": "uint256",
          "name": "tokenId",
          "type": "uint256"
        }
      ],
      "name": "ownerOf",
      "outputs": [
        {
          "internalType": "address",
          "name": "",
          "type": "address"
        }
      ],
      "stateMutability": "view",
      "type": "function"
    },
    {
      "inputs": [
        {
          "internalType": "uint256",
          "name": "tokenId",
          "type": "uint256"
        }
      ],
      "name": "purchaseHouse",
      "outputs": [],
      "stateMutability": "nonpayable",
      "type": "function"
    },
    {
      "inputs": [
        {
          "internalType": "address",
          "name": "from",
          "type": "address"
        },
        {
          "internalType": "address",
          "name": "to",
          "type": "address"
        },
        {
          "internalType": "uint256",
          "name": "tokenId",
          "type": "uint256"
        }
      ],
      "name": "safeTransferFrom",
      "outputs": [],
      "stateMutability": "nonpayable",
      "type": "function"
    },
    {
      "inputs": [
        {
          "internalType": "address",
          "name": "from",
          "type": "address"
        },
        {
          "internalType": "address",
          "name": "to",
          "type": "address"
        },
        {
          "internalType": "uint256",
          "name": "tokenId",
          "type": "uint256"
        },
        {
          "internalType": "bytes",
          "name": "data",
          "type": "bytes"
        }
      ],
      "name": "safeTransferFrom",
      "outputs": [],
      "stateMutability": "nonpayable",
      "type": "function"
    },
    {
      "inputs": [
        {
          "internalType": "address",
          "name": "operator",
          "type": "address"
        },
        {
          "internalType": "bool",
          "name": "approved",
          "type": "bool"
        }
      ],
      "name": "setApprovalForAll",
      "outputs": [],
      "stateMutability": "nonpayable",
      "type": "function"
    },
    {
      "inputs": [
        {
          "internalType": "bytes4",
          "name": "interfaceId",
          "type": "bytes4"
        }
      ],
      "name": "supportsInterface",
      "outputs": [
        {
          "internalType": "bool",
          "name": "",
          "type": "bool"
        }
      ],
      "stateMutability": "view",
      "type": "function"
    },
    {
      "inputs": [],
      "name": "symbol",
      "outputs": [
        {
          "internalType": "string",
          "name": "",
          "type": "string"
        }
      ],
      "stateMutability": "view",
      "type": "function"
    },
    {
      "inputs": [
        {
          "internalType": "uint256",
          "name": "tokenId",
          "type": "uint256"
        }
      ],
      "name": "tokenURI",
      "outputs": [
        {
          "internalType": "string",
          "name": "",
          "type": "string"
        }
      ],
      "stateMutability": "view",
      "type": "function"
    },
    {
      "inputs": [],
      "name": "transactionCooldown",
      "outputs": [
        {
          "internalType": "uint256",
          "name": "",
          "type": "uint256"
        }
      ],
      "stateMutability": "view",
      "type": "function"
    },
    {
      "inputs": [
        {
          "internalType": "address",
          "name": "from",
          "type": "address"
        },
        {
          "internalType": "address",
          "name": "to",
          "type": "address"
        },
        {
          "internalType": "uint256",
          "name": "tokenId",
          "type": "uint256"
        }
      ],
      "name": "transferFrom",
      "outputs": [],
      "stateMutability": "nonpayable",
      "type": "function"
    }
  ],
  "bytecode": "0x6080604052600460095561012c600a5534801561001b57600080fd5b506040516140f13803806140f1833981810160405281019061003d919061017d565b6040518060400160405280600d81526020017f5265736f75726365546f6b656e000000000000000000000000000000000000008152506040518060400160405280600381526020017f52544b000000000000000000000000000000000000000000000000000000000081525081600090816100b891906103fa565b5080600190816100c891906103fa565b505050600060078190555080600860006101000a81548173ffffffffffffffffffffffffffffffffffffffff021916908373ffffffffffffffffffffffffffffffffffffffff160217905550506104cc565b600080fd5b600073ffffffffffffffffffffffffffffffffffffffff82169050919050565b600061014a8261011f565b9050919050565b61015a8161013f565b811461016557600080fd5b50565b60008151905061017781610151565b92915050565b6000602082840312156101935761019261011a565b5b60006101a184828501610168565b91505092915050565b600081519050919050565b7f4e487b7100000000000000000000000000000000000000000000000000000000600052604160045260246000fd5b7f4e487b7100000000000000000000000000000000000000000000000000000000600052602260045260246000fd5b6000600282049050600182168061022b57607f821691505b60208210810361023e5761023d6101e4565b5b50919050565b60008190508160005260206000209050919050565b60006020601f8301049050919050565b600082821b905092915050565b6000600883026102a67fffffffffffffffffffffffffffffffffffffffffffffffffffffffffffffffff82610269565b6102b08683610269565b95508019841693508086168417925050509392505050565b6000819050919050565b6000819050919050565b60006102f76102f26102ed846102c8565b6102d2565b6102c8565b9050919050565b6000819050919050565b610311836102dc565b61032561031d826102fe565b848454610276565b825550505050565b600090565b61033a61032d565b610345818484610308565b505050565b5b818110156103695761035e600082610332565b60018101905061034b565b5050565b601f8211156103ae5761037f81610244565b61038884610259565b81016020851015610397578190505b6103ab6103a385610259565b83018261034a565b50505b505050565b600082821c905092915050565b60006103d1600019846008026103b3565b1980831691505092915050565b60006103ea83836103c0565b9150826002028217905092915050565b610403826101aa565b67ffffffffffffffff81111561041c5761041b6101b5565b5b6104268254610213565b61043182828561036d565b600060209050601f8311600181146104645760008415610452578287015190505b61045c85826103de565b8655506104c4565b601f19841661047286610244565b60005b8281101561049a57848901518255600182019150602085019450602081019050610475565b868310156104b757848901516104b3601f8916826103c0565b8355505b6001600288020188555050505b505050505050565b613c16806104db6000396000f3fe608060405234801561001057600080fd5b506004361061014d5760003560e01c806370a08231116100c3578063b14f1afd1161007c578063b14f1afd146103b6578063b88d4fde146103d4578063c87b56dd146103f0578063d3691b0014610420578063e75b20731461043e578063e985e9c51461046e5761014d565b806370a08231146102c85780637e683845146102f8578063923dcb8b1461032857806395d89b4114610346578063a22cb46514610364578063aeda852f146103805761014d565b806323b872dd1161011557806323b872dd146102085780632a6ceeab14610224578063395a221e1461024057806342842e0e1461025e5780636352211e1461027a57806365fda1f7146102aa5761014d565b806301ffc9a71461015257806306fdde0314610182578063081812fc146101a0578063095ea7b3146101d05780631775b534146101ec575b600080fd5b61016c6004803603810190610167919061288e565b61049e565b60405161017991906128d6565b60405180910390f35b61018a6104ff565b6040516101979190612981565b60405180910390f35b6101ba60048036038101906101b591906129d9565b610591565b6040516101c79190612a47565b60405180910390f35b6101ea60048036038101906101e59190612a8e565b6105ad565b005b610206600480360381019061020191906129d9565b6105c3565b005b610222600480360381019061021d9190612ace565b610986565b005b61023e60048036038101906102399190612b46565b610a88565b005b610248610c72565b6040516102559190612ba8565b60405180910390f35b61027860048036038101906102739190612ace565b610c78565b005b610294600480360381019061028f91906129d9565b610c98565b6040516102a19190612a47565b60405180910390f35b6102b2610caa565b6040516102bf9190612ba8565b60405180910390f35b6102e260048036038101906102dd9190612bc3565b610cb0565b6040516102ef9190612ba8565b60405180910390f35b610312600480360381019061030d9190612d25565b610d6a565b60405161031f9190612ba8565b60405180910390f35b610330610fb3565b60405161033d9190612ed0565b60405180910390f35b61034e61110e565b60405161035b9190612981565b60405180910390f35b61037e60048036038101906103799190612f1e565b6111a0565b005b61039a600480360381019061039591906129d9565b6111b6565b6040516103ad9796959493929190612fd5565b60405180910390f35b6103be611322565b6040516103cb9190613110565b60405180910390f35b6103ee60048036038101906103e991906131d3565b611416565b005b61040a600480360381019061040591906129d9565b61143b565b6040516104179190612981565b60405180910390f35b61042861154e565b6040516104359190613110565b60405180910390f35b61045860048036038101906104539190612bc3565b611680565b6040516104659190612ba8565b60405180910390f35b61048860048036038101906104839190613256565b611698565b60405161049591906128d6565b60405180910390f35b6000634906490660e01b7bffffffffffffffffffffffffffffffffffffffffffffffffffffffff1916827bffffffffffffffffffffffffffffffffffffffffffffffffffffffff191614806104f857506104f78261172c565b5b9050919050565b60606000805461050e906132c5565b80601f016020809104026020016040519081016040528092919081815260200182805461053a906132c5565b80156105875780601f1061055c57610100808354040283529160200191610587565b820191906000526020600020905b81548152906001019060200180831161056a57829003601f168201915b5050505050905090565b600061059c8261180e565b506105a682611896565b9050919050565b6105bf82826105ba6118d3565b6118db565b5050565b600b600082815260200190815260200160002060070160009054906101000a900460ff16610626576040517f08c379a000000000000000000000000000000000000000000000000000000000815260040161061d90613342565b60405180910390fd5b600860009054906101000a900473ffffffffffffffffffffffffffffffffffffffff1673ffffffffffffffffffffffffffffffffffffffff166323b872dd3361066e84610c98565b600b6000868152602001908152602001600020600201546040518463ffffffff1660e01b81526004016106a393929190613362565b6020604051808303816000875af11580156106c2573d6000803e3d6000fd5b505050506040513d601f19601f820116820180604052508101906106e691906133ae565b610725576040517f08c379a000000000000000000000000000000000000000000000000000000000815260040161071c90613427565b60405180910390fd5b60095461073133610cb0565b10610771576040517f08c379a000000000000000000000000000000000000000000000000000000000815260040161076890613493565b60405180910390fd5b600a54600c60003373ffffffffffffffffffffffffffffffffffffffff1673ffffffffffffffffffffffffffffffffffffffff168152602001908152602001600020546107be91906134e2565b421015610800576040517f08c379a00000000000000000000000000000000000000000000000000000000081526004016107f790613562565b60405180910390fd5b600061080b82610c98565b90506108188133846118ed565b600b6000838152602001908152602001600020600401819080600181540180825580915050600190039060005260206000200160009091909190916101000a81548173ffffffffffffffffffffffffffffffffffffffff021916908373ffffffffffffffffffffffffffffffffffffffff16021790555042600b6000848152602001908152602001600020600601819055506000600b600084815260200190815260200160002060070160006101000a81548160ff02191690831515021790555042600c60003373ffffffffffffffffffffffffffffffffffffffff1673ffffffffffffffffffffffffffffffffffffffff168152602001908152602001600020819055503373ffffffffffffffffffffffffffffffffffffffff16827f2ad8a3868f4623be3d61a829e19c896cdf5d7a0c71e4341b4bc1a92e093b5469600b60008681526020019081526020016000206002015460405161097a9190612ba8565b60405180910390a35050565b600073ffffffffffffffffffffffffffffffffffffffff168273ffffffffffffffffffffffffffffffffffffffff16036109f85760006040517f64a0ae920000000000000000000000000000000000000000000000000000000081526004016109ef9190612a47565b60405180910390fd5b6000610a0c8383610a076118d3565b611a5a565b90508373ffffffffffffffffffffffffffffffffffffffff168173ffffffffffffffffffffffffffffffffffffffff1614610a82578382826040517f64283d7b000000000000000000000000000000000000000000000000000000008152600401610a7993929190613582565b60405180910390fd5b50505050565b3373ffffffffffffffffffffffffffffffffffffffff16610aa884610c98565b73ffffffffffffffffffffffffffffffffffffffff1614610afe576040517f08c379a0000000000000000000000000000000000000000000000000000000008152600401610af590613605565b60405180910390fd5b600b600084815260200190815260200160002060070160009054906101000a900460ff1615610b62576040517f08c379a0000000000000000000000000000000000000000000000000000000008152600401610b5990613671565b60405180910390fd5b806002811115610b7557610b74612f5e565b5b600b600085815260200190815260200160002060010160009054906101000a900460ff166002811115610bab57610baa612f5e565b5b14610beb576040517f08c379a0000000000000000000000000000000000000000000000000000000008152600401610be2906136dd565b60405180910390fd5b81600b6000858152602001908152602001600020600201819055506001600b600085815260200190815260200160002060070160006101000a81548160ff021916908315150217905550827f3f6ac9180cf2abdb472ec4d379a6654a5253af404f295f2e027f63b39c88b3c983604051610c659190612ba8565b60405180910390a2505050565b60095481565b610c9383838360405180602001604052806000815250611416565b505050565b6000610ca38261180e565b9050919050565b600a5481565b60008073ffffffffffffffffffffffffffffffffffffffff168273ffffffffffffffffffffffffffffffffffffffff1603610d235760006040517f89c62b64000000000000000000000000000000000000000000000000000000008152600401610d1a9190612a47565b60405180910390fd5b600360008373ffffffffffffffffffffffffffffffffffffffff1673ffffffffffffffffffffffffffffffffffffffff168152602001908152602001600020549050919050565b6000600954610d7833610cb0565b10610db8576040517f08c379a0000000000000000000000000000000000000000000000000000000008152600401610daf90613493565b60405180910390fd5b600160076000828254610dcb91906134e2565b9250508190555060006007549050610de33382611c74565b610ded8184611d6d565b604051806101000160405280878152602001866002811115610e1257610e11612f5e565b5b8152602001858152602001848152602001600067ffffffffffffffff811115610e3e57610e3d612bfa565b5b604051908082528060200260200182016040528015610e6c5781602001602082028036833780820191505090505b50815260200142815260200142815260200160011515815250600b60008381526020019081526020016000206000820151816000019081610ead91906138a9565b5060208201518160010160006101000a81548160ff02191690836002811115610ed957610ed8612f5e565b5b0217905550604082015181600201556060820151816003019081610efd91906138a9565b506080820151816004019080519060200190610f1a92919061277b565b5060a0820151816005015560c0820151816006015560e08201518160070160006101000a81548160ff0219169083151502179055509050503373ffffffffffffffffffffffffffffffffffffffff16817fbbee3cf746bddac78ee7bce599c3345323fbade680a8ba314f7374126f6ca81288888888604051610f9f949392919061397b565b60405180910390a380915050949350505050565b60606000600367ffffffffffffffff811115610fd257610fd1612bfa565b5b60405190808252806020026020018201604052801561100557816020015b6060815260200190600190039081610ff05790505b5090506040518060400160405280600681526020017f4d4149534f4e000000000000000000000000000000000000000000000000000081525081600081518110611052576110516139ce565b5b60200260200101819052506040518060400160405280600581526020017f56494c4c41000000000000000000000000000000000000000000000000000000815250816001815181106110a7576110a66139ce565b5b60200260200101819052506040518060400160405280600581526020017f484f54454c000000000000000000000000000000000000000000000000000000815250816002815181106110fc576110fb6139ce565b5b60200260200101819052508091505090565b60606001805461111d906132c5565b80601f0160208091040260200160405190810160405280929190818152602001828054611149906132c5565b80156111965780601f1061116b57610100808354040283529160200191611196565b820191906000526020600020905b81548152906001019060200180831161117957829003601f168201915b5050505050905090565b6111b26111ab6118d3565b8383611dc9565b5050565b600b6020528060005260406000206000915090508060000180546111d9906132c5565b80601f0160208091040260200160405190810160405280929190818152602001828054611205906132c5565b80156112525780601f1061122757610100808354040283529160200191611252565b820191906000526020600020905b81548152906001019060200180831161123557829003601f168201915b5050505050908060010160009054906101000a900460ff1690806002015490806003018054611280906132c5565b80601f01602080910402602001604051908101604052809291908181526020018280546112ac906132c5565b80156112f95780601f106112ce576101008083540402835291602001916112f9565b820191906000526020600020905b8154815290600101906020018083116112dc57829003601f168201915b5050505050908060050154908060060154908060070160009054906101000a900460ff16905087565b6060600061132f33610cb0565b905060008167ffffffffffffffff81111561134d5761134c612bfa565b5b60405190808252806020026020018201604052801561137b5781602001602082028036833780820191505090505b509050600080600190505b600754811161140c573373ffffffffffffffffffffffffffffffffffffffff166113af82610c98565b73ffffffffffffffffffffffffffffffffffffffff16036113f957808383815181106113de576113dd6139ce565b5b60200260200101818152505081806113f5906139fd565b9250505b8080611404906139fd565b915050611386565b5081935050505090565b611421848484610986565b61143561142c6118d3565b85858585611f38565b50505050565b60606114468261180e565b506000600660008481526020019081526020016000208054611467906132c5565b80601f0160208091040260200160405190810160405280929190818152602001828054611493906132c5565b80156114e05780601f106114b5576101008083540402835291602001916114e0565b820191906000526020600020905b8154815290600101906020018083116114c357829003601f168201915b5050505050905060006114f16120e9565b90506000815103611506578192505050611549565b60008251111561153b578082604051602001611523929190613a81565b60405160208183030381529060405292505050611549565b61154484612100565b925050505b919050565b6060600080600190505b60075481116115ac57600b600082815260200190815260200160002060070160009054906101000a900460ff1615611599578180611595906139fd565b9250505b80806115a4906139fd565b915050611558565b5060008167ffffffffffffffff8111156115c9576115c8612bfa565b5b6040519080825280602002602001820160405280156115f75781602001602082028036833780820191505090505b509050600080600190505b600754811161167657600b600082815260200190815260200160002060070160009054906101000a900460ff16156116635780838381518110611648576116476139ce565b5b602002602001018181525050818061165f906139fd565b9250505b808061166e906139fd565b915050611602565b5081935050505090565b600c6020528060005260406000206000915090505481565b6000600560008473ffffffffffffffffffffffffffffffffffffffff1673ffffffffffffffffffffffffffffffffffffffff16815260200190815260200160002060008373ffffffffffffffffffffffffffffffffffffffff1673ffffffffffffffffffffffffffffffffffffffff16815260200190815260200160002060009054906101000a900460ff16905092915050565b60007f80ac58cd000000000000000000000000000000000000000000000000000000007bffffffffffffffffffffffffffffffffffffffffffffffffffffffff1916827bffffffffffffffffffffffffffffffffffffffffffffffffffffffff191614806117f757507f5b5e139f000000000000000000000000000000000000000000000000000000007bffffffffffffffffffffffffffffffffffffffffffffffffffffffff1916827bffffffffffffffffffffffffffffffffffffffffffffffffffffffff1916145b80611807575061180682612169565b5b9050919050565b60008061181a836121d3565b9050600073ffffffffffffffffffffffffffffffffffffffff168173ffffffffffffffffffffffffffffffffffffffff160361188d57826040517f7e2732890000000000000000000000000000000000000000000000000000000081526004016118849190612ba8565b60405180910390fd5b80915050919050565b60006004600083815260200190815260200160002060009054906101000a900473ffffffffffffffffffffffffffffffffffffffff169050919050565b600033905090565b6118e88383836001612210565b505050565b600073ffffffffffffffffffffffffffffffffffffffff168273ffffffffffffffffffffffffffffffffffffffff160361195f5760006040517f64a0ae920000000000000000000000000000000000000000000000000000000081526004016119569190612a47565b60405180910390fd5b600061196d83836000611a5a565b9050600073ffffffffffffffffffffffffffffffffffffffff168173ffffffffffffffffffffffffffffffffffffffff16036119e057816040517f7e2732890000000000000000000000000000000000000000000000000000000081526004016119d79190612ba8565b60405180910390fd5b8373ffffffffffffffffffffffffffffffffffffffff168173ffffffffffffffffffffffffffffffffffffffff1614611a54578382826040517f64283d7b000000000000000000000000000000000000000000000000000000008152600401611a4b93929190613582565b60405180910390fd5b50505050565b600080611a66846121d3565b9050600073ffffffffffffffffffffffffffffffffffffffff168373ffffffffffffffffffffffffffffffffffffffff1614611aa857611aa78184866123d5565b5b600073ffffffffffffffffffffffffffffffffffffffff168173ffffffffffffffffffffffffffffffffffffffff1614611b3957611aea600085600080612210565b6001600360008373ffffffffffffffffffffffffffffffffffffffff1673ffffffffffffffffffffffffffffffffffffffff168152602001908152602001600020600082825403925050819055505b600073ffffffffffffffffffffffffffffffffffffffff168573ffffffffffffffffffffffffffffffffffffffff1614611bbc576001600360008773ffffffffffffffffffffffffffffffffffffffff1673ffffffffffffffffffffffffffffffffffffffff168152602001908152602001600020600082825401925050819055505b846002600086815260200190815260200160002060006101000a81548173ffffffffffffffffffffffffffffffffffffffff021916908373ffffffffffffffffffffffffffffffffffffffff160217905550838573ffffffffffffffffffffffffffffffffffffffff168273ffffffffffffffffffffffffffffffffffffffff167fddf252ad1be2c89b69c2b068fc378daa952ba7f163c4a11628f55a4df523b3ef60405160405180910390a4809150509392505050565b600073ffffffffffffffffffffffffffffffffffffffff168273ffffffffffffffffffffffffffffffffffffffff1603611ce65760006040517f64a0ae92000000000000000000000000000000000000000000000000000000008152600401611cdd9190612a47565b60405180910390fd5b6000611cf483836000611a5a565b9050600073ffffffffffffffffffffffffffffffffffffffff168173ffffffffffffffffffffffffffffffffffffffff1614611d685760006040517f73c6ac6e000000000000000000000000000000000000000000000000000000008152600401611d5f9190612a47565b60405180910390fd5b505050565b80600660008481526020019081526020016000209081611d8d91906138a9565b507ff8e1a15aba9398e019f0b49df1a4fde98ee17ae345cb5f6b5e2c27f5033e8ce782604051611dbd9190612ba8565b60405180910390a15050565b600073ffffffffffffffffffffffffffffffffffffffff168273ffffffffffffffffffffffffffffffffffffffff1603611e3a57816040517f5b08ba18000000000000000000000000000000000000000000000000000000008152600401611e319190612a47565b60405180910390fd5b80600560008573ffffffffffffffffffffffffffffffffffffffff1673ffffffffffffffffffffffffffffffffffffffff16815260200190815260200160002060008473ffffffffffffffffffffffffffffffffffffffff1673ffffffffffffffffffffffffffffffffffffffff16815260200190815260200160002060006101000a81548160ff0219169083151502179055508173ffffffffffffffffffffffffffffffffffffffff168373ffffffffffffffffffffffffffffffffffffffff167f17307eab39ab6107e8899845ad3d59bd9653f200f220920489ca2b5937696c3183604051611f2b91906128d6565b60405180910390a3505050565b60008373ffffffffffffffffffffffffffffffffffffffff163b11156120e2578273ffffffffffffffffffffffffffffffffffffffff1663150b7a02868685856040518563ffffffff1660e01b8152600401611f979493929190613afa565b6020604051808303816000875af1925050508015611fd357506040513d601f19601f82011682018060405250810190611fd09190613b5b565b60015b612057573d8060008114612003576040519150601f19603f3d011682016040523d82523d6000602084013e612008565b606091505b50600081510361204f57836040517f64a0ae920000000000000000000000000000000000000000000000000000000081526004016120469190612a47565b60405180910390fd5b805181602001fd5b63150b7a0260e01b7bffffffffffffffffffffffffffffffffffffffffffffffffffffffff1916817bffffffffffffffffffffffffffffffffffffffffffffffffffffffff1916146120e057836040517f64a0ae920000000000000000000000000000000000000000000000000000000081526004016120d79190612a47565b60405180910390fd5b505b5050505050565b606060405180602001604052806000815250905090565b606061210b8261180e565b5060006121166120e9565b905060008151116121365760405180602001604052806000815250612161565b8061214084612499565b604051602001612151929190613a81565b6040516020818303038152906040525b915050919050565b60007f01ffc9a7000000000000000000000000000000000000000000000000000000007bffffffffffffffffffffffffffffffffffffffffffffffffffffffff1916827bffffffffffffffffffffffffffffffffffffffffffffffffffffffff1916149050919050565b60006002600083815260200190815260200160002060009054906101000a900473ffffffffffffffffffffffffffffffffffffffff169050919050565b80806122495750600073ffffffffffffffffffffffffffffffffffffffff168273ffffffffffffffffffffffffffffffffffffffff1614155b1561237d5760006122598461180e565b9050600073ffffffffffffffffffffffffffffffffffffffff168373ffffffffffffffffffffffffffffffffffffffff16141580156122c457508273ffffffffffffffffffffffffffffffffffffffff168173ffffffffffffffffffffffffffffffffffffffff1614155b80156122d757506122d58184611698565b155b1561231957826040517fa9fbf51f0000000000000000000000000000000000000000000000000000000081526004016123109190612a47565b60405180910390fd5b811561237b57838573ffffffffffffffffffffffffffffffffffffffff168273ffffffffffffffffffffffffffffffffffffffff167f8c5be1e5ebec7d5bd14f71427d1e84f3dd0314c0f7b2291e5b200ac8c7c3b92560405160405180910390a45b505b836004600085815260200190815260200160002060006101000a81548173ffffffffffffffffffffffffffffffffffffffff021916908373ffffffffffffffffffffffffffffffffffffffff16021790555050505050565b6123e0838383612567565b61249457600073ffffffffffffffffffffffffffffffffffffffff168373ffffffffffffffffffffffffffffffffffffffff160361245557806040517f7e27328900000000000000000000000000000000000000000000000000000000815260040161244c9190612ba8565b60405180910390fd5b81816040517f177e802f00000000000000000000000000000000000000000000000000000000815260040161248b929190613b88565b60405180910390fd5b505050565b6060600060016124a884612628565b01905060008167ffffffffffffffff8111156124c7576124c6612bfa565b5b6040519080825280601f01601f1916602001820160405280156124f95781602001600182028036833780820191505090505b509050600082602001820190505b60011561255c578080600190039150507f3031323334353637383961626364656600000000000000000000000000000000600a86061a8153600a85816125505761254f613bb1565b5b04945060008503612507575b819350505050919050565b60008073ffffffffffffffffffffffffffffffffffffffff168373ffffffffffffffffffffffffffffffffffffffff161415801561261f57508273ffffffffffffffffffffffffffffffffffffffff168473ffffffffffffffffffffffffffffffffffffffff1614806125e057506125df8484611698565b5b8061261e57508273ffffffffffffffffffffffffffffffffffffffff1661260683611896565b73ffffffffffffffffffffffffffffffffffffffff16145b5b90509392505050565b600080600090507a184f03e93ff9f4daa797ed6e38ed64bf6a1f0100000000000000008310612686577a184f03e93ff9f4daa797ed6e38ed64bf6a1f010000000000000000838161267c5761267b613bb1565b5b0492506040810190505b6d04ee2d6d415b85acef810000000083106126c3576d04ee2d6d415b85acef810000000083816126b9576126b8613bb1565b5b0492506020810190505b662386f26fc1000083106126f257662386f26fc1000083816126e8576126e7613bb1565b5b0492506010810190505b6305f5e100831061271b576305f5e100838161271157612710613bb1565b5b0492506008810190505b612710831061274057612710838161273657612735613bb1565b5b0492506004810190505b60648310612763576064838161275957612758613bb1565b5b0492506002810190505b600a8310612772576001810190505b80915050919050565b8280548282559060005260206000209081019282156127f4579160200282015b828111156127f35782518260006101000a81548173ffffffffffffffffffffffffffffffffffffffff021916908373ffffffffffffffffffffffffffffffffffffffff1602179055509160200191906001019061279b565b5b5090506128019190612805565b5090565b5b8082111561281e576000816000905550600101612806565b5090565b6000604051905090565b600080fd5b600080fd5b60007fffffffff0000000000000000000000000000000000000000000000000000000082169050919050565b61286b81612836565b811461287657600080fd5b50565b60008135905061288881612862565b92915050565b6000602082840312156128a4576128a361282c565b5b60006128b284828501612879565b91505092915050565b60008115159050919050565b6128d0816128bb565b82525050565b60006020820190506128eb60008301846128c7565b92915050565b600081519050919050565b600082825260208201905092915050565b60005b8381101561292b578082015181840152602081019050612910565b60008484015250505050565b6000601f19601f8301169050919050565b6000612953826128f1565b61295d81856128fc565b935061296d81856020860161290d565b61297681612937565b840191505092915050565b6000602082019050818103600083015261299b8184612948565b905092915050565b6000819050919050565b6129b6816129a3565b81146129c157600080fd5b50565b6000813590506129d3816129ad565b92915050565b6000602082840312156129ef576129ee61282c565b5b60006129fd848285016129c4565b91505092915050565b600073ffffffffffffffffffffffffffffffffffffffff82169050919050565b6000612a3182612a06565b9050919050565b612a4181612a26565b82525050565b6000602082019050612a5c6000830184612a38565b92915050565b612a6b81612a26565b8114612a7657600080fd5b50565b600081359050612a8881612a62565b92915050565b60008060408385031215612aa557612aa461282c565b5b6000612ab385828601612a79565b9250506020612ac4858286016129c4565b9150509250929050565b600080600060608486031215612ae757612ae661282c565b5b6000612af586828701612a79565b9350506020612b0686828701612a79565b9250506040612b17868287016129c4565b9150509250925092565b60038110612b2e57600080fd5b50565b600081359050612b4081612b21565b92915050565b600080600060608486031215612b5f57612b5e61282c565b5b6000612b6d868287016129c4565b9350506020612b7e868287016129c4565b9250506040612b8f86828701612b31565b9150509250925092565b612ba2816129a3565b82525050565b6000602082019050612bbd6000830184612b99565b92915050565b600060208284031215612bd957612bd861282c565b5b6000612be784828501612a79565b91505092915050565b600080fd5b600080fd5b7f4e487b7100000000000000000000000000000000000000000000000000000000600052604160045260246000fd5b612c3282612937565b810181811067ffffffffffffffff82111715612c5157612c50612bfa565b5b80604052505050565b6000612c64612822565b9050612c708282612c29565b919050565b600067ffffffffffffffff821115612c9057612c8f612bfa565b5b612c9982612937565b9050602081019050919050565b82818337600083830152505050565b6000612cc8612cc384612c75565b612c5a565b905082815260208101848484011115612ce457612ce3612bf5565b5b612cef848285612ca6565b509392505050565b600082601f830112612d0c57612d0b612bf0565b5b8135612d1c848260208601612cb5565b91505092915050565b60008060008060808587031215612d3f57612d3e61282c565b5b600085013567ffffffffffffffff811115612d5d57612d5c612831565b5b612d6987828801612cf7565b9450506020612d7a87828801612b31565b9350506040612d8b878288016129c4565b925050606085013567ffffffffffffffff811115612dac57612dab612831565b5b612db887828801612cf7565b91505092959194509250565b600081519050919050565b600082825260208201905092915050565b6000819050602082019050919050565b600082825260208201905092915050565b6000612e0c826128f1565b612e168185612df0565b9350612e2681856020860161290d565b612e2f81612937565b840191505092915050565b6000612e468383612e01565b905092915050565b6000602082019050919050565b6000612e6682612dc4565b612e708185612dcf565b935083602082028501612e8285612de0565b8060005b85811015612ebe5784840389528151612e9f8582612e3a565b9450612eaa83612e4e565b925060208a01995050600181019050612e86565b50829750879550505050505092915050565b60006020820190508181036000830152612eea8184612e5b565b905092915050565b612efb816128bb565b8114612f0657600080fd5b50565b600081359050612f1881612ef2565b92915050565b60008060408385031215612f3557612f3461282c565b5b6000612f4385828601612a79565b9250506020612f5485828601612f09565b9150509250929050565b7f4e487b7100000000000000000000000000000000000000000000000000000000600052602160045260246000fd5b60038110612f9e57612f9d612f5e565b5b50565b6000819050612faf82612f8d565b919050565b6000612fbf82612fa1565b9050919050565b612fcf81612fb4565b82525050565b600060e0820190508181036000830152612fef818a612948565b9050612ffe6020830189612fc6565b61300b6040830188612b99565b818103606083015261301d8187612948565b905061302c6080830186612b99565b61303960a0830185612b99565b61304660c08301846128c7565b98975050505050505050565b600081519050919050565b600082825260208201905092915050565b6000819050602082019050919050565b613087816129a3565b82525050565b6000613099838361307e565b60208301905092915050565b6000602082019050919050565b60006130bd82613052565b6130c7818561305d565b93506130d28361306e565b8060005b838110156131035781516130ea888261308d565b97506130f5836130a5565b9250506001810190506130d6565b5085935050505092915050565b6000602082019050818103600083015261312a81846130b2565b905092915050565b600067ffffffffffffffff82111561314d5761314c612bfa565b5b61315682612937565b9050602081019050919050565b600061317661317184613132565b612c5a565b90508281526020810184848401111561319257613191612bf5565b5b61319d848285612ca6565b509392505050565b600082601f8301126131ba576131b9612bf0565b5b81356131ca848260208601613163565b91505092915050565b600080600080608085870312156131ed576131ec61282c565b5b60006131fb87828801612a79565b945050602061320c87828801612a79565b935050604061321d878288016129c4565b925050606085013567ffffffffffffffff81111561323e5761323d612831565b5b61324a878288016131a5565b91505092959194509250565b6000806040838503121561326d5761326c61282c565b5b600061327b85828601612a79565b925050602061328c85828601612a79565b9150509250929050565b7f4e487b7100000000000000000000000000000000000000000000000000000000600052602260045260246000fd5b600060028204905060018216806132dd57607f821691505b6020821081036132f0576132ef613296565b5b50919050565b7f486f757365206e6f7420617661696c61626c6520666f722073616c6500000000600082015250565b600061332c601c836128fc565b9150613337826132f6565b602082019050919050565b6000602082019050818103600083015261335b8161331f565b9050919050565b60006060820190506133776000830186612a38565b6133846020830185612a38565b6133916040830184612b99565b949350505050565b6000815190506133a881612ef2565b92915050565b6000602082840312156133c4576133c361282c565b5b60006133d284828501613399565b91505092915050565b7f5061796d656e74206661696c6564000000000000000000000000000000000000600082015250565b6000613411600e836128fc565b915061341c826133db565b602082019050919050565b6000602082019050818103600083015261344081613404565b9050919050565b7f4f776e657273686970206c696d69742072656163686564000000000000000000600082015250565b600061347d6017836128fc565b915061348882613447565b602082019050919050565b600060208201905081810360008301526134ac81613470565b9050919050565b7f4e487b7100000000000000000000000000000000000000000000000000000000600052601160045260246000fd5b60006134ed826129a3565b91506134f8836129a3565b92508282019050808211156135105761350f6134b3565b5b92915050565b7f436f6f6c646f776e206163746976650000000000000000000000000000000000600082015250565b600061354c600f836128fc565b915061355782613516565b602082019050919050565b6000602082019050818103600083015261357b8161353f565b9050919050565b60006060820190506135976000830186612a38565b6135a46020830185612b99565b6135b16040830184612a38565b949350505050565b7f596f7520617265206e6f7420746865206f776e65720000000000000000000000600082015250565b60006135ef6015836128fc565b91506135fa826135b9565b602082019050919050565b6000602082019050818103600083015261361e816135e2565b9050919050565b7f486f75736520697320616c7265616479206f6e2073616c650000000000000000600082015250565b600061365b6018836128fc565b915061366682613625565b602082019050919050565b6000602082019050818103600083015261368a8161364e565b9050919050565b7f496e76616c6964207265736f7572636520747970650000000000000000000000600082015250565b60006136c76015836128fc565b91506136d282613691565b602082019050919050565b600060208201905081810360008301526136f6816136ba565b9050919050565b60008190508160005260206000209050919050565b60006020601f8301049050919050565b600082821b905092915050565b60006008830261375f7fffffffffffffffffffffffffffffffffffffffffffffffffffffffffffffffff82613722565b6137698683613722565b95508019841693508086168417925050509392505050565b6000819050919050565b60006137a66137a161379c846129a3565b613781565b6129a3565b9050919050565b6000819050919050565b6137c08361378b565b6137d46137cc826137ad565b84845461372f565b825550505050565b600090565b6137e96137dc565b6137f48184846137b7565b505050565b5b818110156138185761380d6000826137e1565b6001810190506137fa565b5050565b601f82111561385d5761382e816136fd565b61383784613712565b81016020851015613846578190505b61385a61385285613712565b8301826137f9565b50505b505050565b600082821c905092915050565b600061388060001984600802613862565b1980831691505092915050565b6000613899838361386f565b9150826002028217905092915050565b6138b2826128f1565b67ffffffffffffffff8111156138cb576138ca612bfa565b5b6138d582546132c5565b6138e082828561381c565b600060209050601f8311600181146139135760008415613901578287015190505b61390b858261388d565b865550613973565b601f198416613921866136fd565b60005b8281101561394957848901518255600182019150602085019450602081019050613924565b868310156139665784890151613962601f89168261386f565b8355505b6001600288020188555050505b505050505050565b600060808201905081810360008301526139958187612948565b90506139a46020830186612fc6565b6139b16040830185612b99565b81810360608301526139c38184612948565b905095945050505050565b7f4e487b7100000000000000000000000000000000000000000000000000000000600052603260045260246000fd5b6000613a08826129a3565b91507fffffffffffffffffffffffffffffffffffffffffffffffffffffffffffffffff8203613a3a57613a396134b3565b5b600182019050919050565b600081905092915050565b6000613a5b826128f1565b613a658185613a45565b9350613a7581856020860161290d565b80840191505092915050565b6000613a8d8285613a50565b9150613a998284613a50565b91508190509392505050565b600081519050919050565b600082825260208201905092915050565b6000613acc82613aa5565b613ad68185613ab0565b9350613ae681856020860161290d565b613aef81612937565b840191505092915050565b6000608082019050613b0f6000830187612a38565b613b1c6020830186612a38565b613b296040830185612b99565b8181036060830152613b3b8184613ac1565b905095945050505050565b600081519050613b5581612862565b92915050565b600060208284031215613b7157613b7061282c565b5b6000613b7f84828501613b46565b91505092915050565b6000604082019050613b9d6000830185612a38565b613baa6020830184612b99565b9392505050565b7f4e487b7100000000000000000000000000000000000000000000000000000000600052601260045260246000fdfea2646970667358221220ad3fc28b949ba3a82756171711ff6ec588496bca288df745b5b9ee6d5397355a64736f6c634300081c0033",
  "linkReferences": {},
  "deployedLinkReferences": {}
}