{
  "_format": "hh-sol-artifact-1",
  "contractName": "ResourceToken",
  "sourceName": "contracts/RessourceToken.sol",
  "abi": [
    {
      "inputs": [
        {
          "internalType": "address",
          "name": "paymentTokenAddress",
          "type": "address"
        }
      ],
      "stateMutability": "nonpayable",
      "type": "constructor"
    },
    {
      "inputs": [
        {
          "internalType": "address",
          "name": "sender",
          "type": "address"
        },
        {
          "internalType": "uint256",
          "name": "tokenId",
          "type": "uint256"
        },
        {
          "internalType": "address",
          "name": "owner",
          "type": "address"
        }
      ],
      "name": "ERC721IncorrectOwner",
      "type": "error"
    },
    {
      "inputs": [
        {
          "internalType": "address",
          "name": "operator",
          "type": "address"
        },
        {
          "internalType": "uint256",
          "name": "tokenId",
          "type": "uint256"
        }
      ],
      "name": "ERC721InsufficientApproval",
      "type": "error"
    },
    {
      "inputs": [
        {
          "internalType": "address",
          "name": "approver",
          "type": "address"
        }
      ],
      "name": "ERC721InvalidApprover",
      "type": "error"
    },
    {
      "inputs": [
        {
          "internalType": "address",
          "name": "operator",
          "type": "address"
        }
      ],
      "name": "ERC721InvalidOperator",
      "type": "error"
    },
    {
      "inputs": [
        {
          "internalType": "address",
          "name": "owner",
          "type": "address"
        }
      ],
      "name": "ERC721InvalidOwner",
      "type": "error"
    },
    {
      "inputs": [
        {
          "internalType": "address",
          "name": "receiver",
          "type": "address"
        }
      ],
      "name": "ERC721InvalidReceiver",
      "type": "error"
    },
    {
      "inputs": [
        {
          "internalType": "address",
          "name": "sender",
          "type": "address"
        }
      ],
      "name": "ERC721InvalidSender",
      "type": "error"
    },
    {
      "inputs": [
        {
          "internalType": "uint256",
          "name": "tokenId",
          "type": "uint256"
        }
      ],
      "name": "ERC721NonexistentToken",
      "type": "error"
    },
    {
      "inputs": [],
      "name": "PaymentFailed",
      "type": "error"
    },
    {
      "anonymous": false,
      "inputs": [
        {
          "indexed": true,
          "internalType": "address",
          "name": "owner",
          "type": "address"
        },
        {
          "indexed": true,
          "internalType": "address",
          "name": "approved",
          "type": "address"
        },
        {
          "indexed": true,
          "internalType": "uint256",
          "name": "tokenId",
          "type": "uint256"
        }
      ],
      "name": "Approval",
      "type": "event"
    },
    {
      "anonymous": false,
      "inputs": [
        {
          "indexed": true,
          "internalType": "address",
          "name": "owner",
          "type": "address"
        },
        {
          "indexed": true,
          "internalType": "address",
          "name": "operator",
          "type": "address"
        },
        {
          "indexed": false,
          "internalType": "bool",
          "name": "approved",
          "type": "bool"
        }
      ],
      "name": "ApprovalForAll",
      "type": "event"
    },
    {
      "anonymous": false,
      "inputs": [
        {
          "indexed": false,
          "internalType": "uint256",
          "name": "_fromTokenId",
          "type": "uint256"
        },
        {
          "indexed": false,
          "internalType": "uint256",
          "name": "_toTokenId",
          "type": "uint256"
        }
      ],
      "name": "BatchMetadataUpdate",
      "type": "event"
    },
    {
      "anonymous": false,
      "inputs": [
        {
          "indexed": true,
          "internalType": "uint256",
          "name": "tokenId",
          "type": "uint256"
        },
        {
          "indexed": false,
          "internalType": "uint256",
          "name": "value",
          "type": "uint256"
        }
      ],
      "name": "HouseListed",
      "type": "event"
    },
    {
      "anonymous": false,
      "inputs": [
        {
          "indexed": true,
          "internalType": "uint256",
          "name": "tokenId",
          "type": "uint256"
        },
        {
          "indexed": true,
          "internalType": "address",
          "name": "owner",
          "type": "address"
        },
        {
          "indexed": false,
          "internalType": "string",
          "name": "name",
          "type": "string"
        },
        {
          "indexed": false,
          "internalType": "enum ResourceToken.ResourceType",
          "name": "resourceType",
          "type": "uint8"
        },
        {
          "indexed": false,
          "internalType": "uint256",
          "name": "value",
          "type": "uint256"
        },
        {
          "indexed": false,
          "internalType": "string",
          "name": "ipfsHash",
          "type": "string"
        }
      ],
      "name": "HouseMinted",
      "type": "event"
    },
    {
      "anonymous": false,
      "inputs": [
        {
          "indexed": true,
          "internalType": "uint256",
          "name": "tokenId",
          "type": "uint256"
        },
        {
          "indexed": true,
          "internalType": "address",
          "name": "buyer",
          "type": "address"
        },
        {
          "indexed": false,
          "internalType": "uint256",
          "name": "value",
          "type": "uint256"
        }
      ],
      "name": "HousePurchased",
      "type": "event"
    },
    {
      "anonymous": false,
      "inputs": [
        {
          "indexed": false,
          "internalType": "uint256",
          "name": "_tokenId",
          "type": "uint256"
        }
      ],
      "name": "MetadataUpdate",
      "type": "event"
    },
    {
      "anonymous": false,
      "inputs": [
        {
          "indexed": true,
          "internalType": "address",
          "name": "from",
          "type": "address"
        },
        {
          "indexed": true,
          "internalType": "address",
          "name": "to",
          "type": "address"
        },
        {
          "indexed": true,
          "internalType": "uint256",
          "name": "tokenId",
          "type": "uint256"
        }
      ],
      "name": "Transfer",
      "type": "event"
    },
    {
      "inputs": [
        {
          "internalType": "address",
          "name": "to",
          "type": "address"
        },
        {
          "internalType": "uint256",
          "name": "tokenId",
          "type": "uint256"
        }
      ],
      "name": "approve",
      "outputs": [],
      "stateMutability": "nonpayable",
      "type": "function"
    },
    {
      "inputs": [
        {
          "internalType": "address",
          "name": "owner",
          "type": "address"
        }
      ],
      "name": "balanceOf",
      "outputs": [
        {
          "internalType": "uint256",
          "name": "",
          "type": "uint256"
        }
      ],
      "stateMutability": "view",
      "type": "function"
    },
    {
      "inputs": [
        {
          "internalType": "uint256",
          "name": "tokenId",
          "type": "uint256"
        }
      ],
      "name": "getApproved",
      "outputs": [
        {
          "internalType": "address",
          "name": "",
          "type": "address"
        }
      ],
      "stateMutability": "view",
      "type": "function"
    },
    {
      "inputs": [],
      "name": "getAvailableHouses",
      "outputs": [
        {
          "internalType": "uint256[]",
          "name": "",
          "type": "uint256[]"
        }
      ],
      "stateMutability": "view",
      "type": "function"
    },
    {
      "inputs": [
        {
          "internalType": "uint256",
          "name": "tokenId",
          "type": "uint256"
        }
      ],
      "name": "getHouse",
      "outputs": [
        {
          "internalType": "string",
          "name": "name",
          "type": "string"
        },
        {
          "internalType": "string",
          "name": "resourceType",
          "type": "string"
        },
        {
          "internalType": "uint256",
          "name": "value",
          "type": "uint256"
        },
        {
          "internalType": "string",
          "name": "ipfsHash",
          "type": "string"
        },
        {
          "internalType": "uint256",
          "name": "createdAt",
          "type": "uint256"
        },
        {
          "internalType": "uint256",
          "name": "lastTransferAt",
          "type": "uint256"
        },
        {
          "internalType": "bool",
          "name": "available",
          "type": "bool"
        }
      ],
      "stateMutability": "view",
      "type": "function"
    },
    {
      "inputs": [],
      "name": "getMyHouses",
      "outputs": [
        {
          "internalType": "uint256[]",
          "name": "",
          "type": "uint256[]"
        }
      ],
      "stateMutability": "view",
      "type": "function"
    },
    {
      "inputs": [],
      "name": "getResourceTypes",
      "outputs": [
        {
          "internalType": "string[]",
          "name": "",
          "type": "string[]"
        }
      ],
      "stateMutability": "pure",
      "type": "function"
    },
    {
      "inputs": [
        {
          "internalType": "uint256",
          "name": "",
          "type": "uint256"
        }
      ],
      "name": "houses",
      "outputs": [
        {
          "internalType": "string",
          "name": "name",
          "type": "string"
        },
        {
          "internalType": "enum ResourceToken.ResourceType",
          "name": "resourceType",
          "type": "uint8"
        },
        {
          "internalType": "uint256",
          "name": "value",
          "type": "uint256"
        },
        {
          "internalType": "string",
          "name": "ipfsHash",
          "type": "string"
        },
        {
          "internalType": "uint256",
          "name": "createdAt",
          "type": "uint256"
        },
        {
          "internalType": "uint256",
          "name": "lastTransferAt",
          "type": "uint256"
        },
        {
          "internalType": "bool",
          "name": "available",
          "type": "bool"
        }
      ],
      "stateMutability": "view",
      "type": "function"
    },
    {
      "inputs": [
        {
          "internalType": "address",
          "name": "owner",
          "type": "address"
        },
        {
          "internalType": "address",
          "name": "operator",
          "type": "address"
        }
      ],
      "name": "isApprovedForAll",
      "outputs": [
        {
          "internalType": "bool",
          "name": "",
          "type": "bool"
        }
      ],
      "stateMutability": "view",
      "type": "function"
    },
    {
      "inputs": [
        {
          "internalType": "address",
          "name": "",
          "type": "address"
        }
      ],
      "name": "lastTransactionTime",
      "outputs": [
        {
          "internalType": "uint256",
          "name": "",
          "type": "uint256"
        }
      ],
      "stateMutability": "view",
      "type": "function"
    },
    {
      "inputs": [
        {
          "internalType": "uint256",
          "name": "tokenId",
          "type": "uint256"
        },
        {
          "internalType": "uint256",
          "name": "value",
          "type": "uint256"
        },
        {
          "internalType": "enum ResourceToken.ResourceType",
          "name": "resourceType",
          "type": "uint8"
        }
      ],
      "name": "listHouseForSale",
      "outputs": [],
      "stateMutability": "nonpayable",
      "type": "function"
    },
    {
      "inputs": [],
      "name": "maxOwnership",
      "outputs": [
        {
          "internalType": "uint256",
          "name": "",
          "type": "uint256"
        }
      ],
      "stateMutability": "view",
      "type": "function"
    },
    {
      "inputs": [
        {
          "internalType": "string",
          "name": "name",
          "type": "string"
        },
        {
          "internalType": "enum ResourceToken.ResourceType",
          "name": "resourceType",
          "type": "uint8"
        },
        {
          "internalType": "uint256",
          "name": "value",
          "type": "uint256"
        },
        {
          "internalType": "string",
          "name": "ipfsHash",
          "type": "string"
        }
      ],
      "name": "mintHouse",
      "outputs": [
        {
          "internalType": "uint256",
          "name": "",
          "type": "uint256"
        }
      ],
      "stateMutability": "nonpayable",
      "type": "function"
    },
    {
      "inputs": [],
      "name": "name",
      "outputs": [
        {
          "internalType": "string",
          "name": "",
          "type": "string"
        }
      ],
      "stateMutability": "view",
      "type": "function"
    },
    {
      "inputs": [
        {
          "internalType": "uint256",
          "name": "tokenId",
          "type": "uint256"
        }
      ],
      "name": "ownerOf",
      "outputs": [
        {
          "internalType": "address",
          "name": "",
          "type": "address"
        }
      ],
      "stateMutability": "view",
      "type": "function"
    },
    {
      "inputs": [
        {
          "internalType": "uint256",
          "name": "tokenId",
          "type": "uint256"
        }
      ],
      "name": "purchaseHouse",
      "outputs": [],
      "stateMutability": "nonpayable",
      "type": "function"
    },
    {
      "inputs": [
        {
          "internalType": "address",
          "name": "from",
          "type": "address"
        },
        {
          "internalType": "address",
          "name": "to",
          "type": "address"
        },
        {
          "internalType": "uint256",
          "name": "tokenId",
          "type": "uint256"
        }
      ],
      "name": "safeTransferFrom",
      "outputs": [],
      "stateMutability": "nonpayable",
      "type": "function"
    },
    {
      "inputs": [
        {
          "internalType": "address",
          "name": "from",
          "type": "address"
        },
        {
          "internalType": "address",
          "name": "to",
          "type": "address"
        },
        {
          "internalType": "uint256",
          "name": "tokenId",
          "type": "uint256"
        },
        {
          "internalType": "bytes",
          "name": "data",
          "type": "bytes"
        }
      ],
      "name": "safeTransferFrom",
      "outputs": [],
      "stateMutability": "nonpayable",
      "type": "function"
    },
    {
      "inputs": [
        {
          "internalType": "address",
          "name": "operator",
          "type": "address"
        },
        {
          "internalType": "bool",
          "name": "approved",
          "type": "bool"
        }
      ],
      "name": "setApprovalForAll",
      "outputs": [],
      "stateMutability": "nonpayable",
      "type": "function"
    },
    {
      "inputs": [
        {
          "internalType": "bytes4",
          "name": "interfaceId",
          "type": "bytes4"
        }
      ],
      "name": "supportsInterface",
      "outputs": [
        {
          "internalType": "bool",
          "name": "",
          "type": "bool"
        }
      ],
      "stateMutability": "view",
      "type": "function"
    },
    {
      "inputs": [],
      "name": "symbol",
      "outputs": [
        {
          "internalType": "string",
          "name": "",
          "type": "string"
        }
      ],
      "stateMutability": "view",
      "type": "function"
    },
    {
      "inputs": [
        {
          "internalType": "uint256",
          "name": "tokenId",
          "type": "uint256"
        }
      ],
      "name": "tokenURI",
      "outputs": [
        {
          "internalType": "string",
          "name": "",
          "type": "string"
        }
      ],
      "stateMutability": "view",
      "type": "function"
    },
    {
      "inputs": [],
      "name": "transactionCooldown",
      "outputs": [
        {
          "internalType": "uint256",
          "name": "",
          "type": "uint256"
        }
      ],
      "stateMutability": "view",
      "type": "function"
    },
    {
      "inputs": [
        {
          "internalType": "address",
          "name": "from",
          "type": "address"
        },
        {
          "internalType": "address",
          "name": "to",
          "type": "address"
        },
        {
          "internalType": "uint256",
          "name": "tokenId",
          "type": "uint256"
        }
      ],
      "name": "transferFrom",
      "outputs": [],
      "stateMutability": "nonpayable",
      "type": "function"
    }
  ],
  "bytecode": "0x6080604052600460095561012c600a5534801561001b57600080fd5b506040516144e33803806144e3833981810160405281019061003d919061017d565b6040518060400160405280600d81526020017f5265736f75726365546f6b656e000000000000000000000000000000000000008152506040518060400160405280600381526020017f52544b000000000000000000000000000000000000000000000000000000000081525081600090816100b891906103fa565b5080600190816100c891906103fa565b505050600060078190555080600860006101000a81548173ffffffffffffffffffffffffffffffffffffffff021916908373ffffffffffffffffffffffffffffffffffffffff160217905550506104cc565b600080fd5b600073ffffffffffffffffffffffffffffffffffffffff82169050919050565b600061014a8261011f565b9050919050565b61015a8161013f565b811461016557600080fd5b50565b60008151905061017781610151565b92915050565b6000602082840312156101935761019261011a565b5b60006101a184828501610168565b91505092915050565b600081519050919050565b7f4e487b7100000000000000000000000000000000000000000000000000000000600052604160045260246000fd5b7f4e487b7100000000000000000000000000000000000000000000000000000000600052602260045260246000fd5b6000600282049050600182168061022b57607f821691505b60208210810361023e5761023d6101e4565b5b50919050565b60008190508160005260206000209050919050565b60006020601f8301049050919050565b600082821b905092915050565b6000600883026102a67fffffffffffffffffffffffffffffffffffffffffffffffffffffffffffffffff82610269565b6102b08683610269565b95508019841693508086168417925050509392505050565b6000819050919050565b6000819050919050565b60006102f76102f26102ed846102c8565b6102d2565b6102c8565b9050919050565b6000819050919050565b610311836102dc565b61032561031d826102fe565b848454610276565b825550505050565b600090565b61033a61032d565b610345818484610308565b505050565b5b818110156103695761035e600082610332565b60018101905061034b565b5050565b601f8211156103ae5761037f81610244565b61038884610259565b81016020851015610397578190505b6103ab6103a385610259565b83018261034a565b50505b505050565b600082821c905092915050565b60006103d1600019846008026103b3565b1980831691505092915050565b60006103ea83836103c0565b9150826002028217905092915050565b610403826101aa565b67ffffffffffffffff81111561041c5761041b6101b5565b5b6104268254610213565b61043182828561036d565b600060209050601f8311600181146104645760008415610452578287015190505b61045c85826103de565b8655506104c4565b601f19841661047286610244565b60005b8281101561049a57848901518255600182019150602085019450602081019050610475565b868310156104b757848901516104b3601f8916826103c0565b8355505b6001600288020188555050505b505050505050565b614008806104db6000396000f3fe608060405234801561001057600080fd5b50600436106101585760003560e01c806370a08231116100c3578063b14f1afd1161007c578063b14f1afd146103f7578063b88d4fde14610415578063c87b56dd14610431578063d3691b0014610461578063e75b20731461047f578063e985e9c5146104af57610158565b806370a08231146103095780637e68384514610339578063923dcb8b1461036957806395d89b4114610387578063a22cb465146103a5578063aeda852f146103c157610158565b80632a6ceeab116101155780632a6ceeab1461022f5780633107c99d1461024b578063395a221e1461028157806342842e0e1461029f5780636352211e146102bb57806365fda1f7146102eb57610158565b806301ffc9a71461015d57806306fdde031461018d578063081812fc146101ab578063095ea7b3146101db5780631775b534146101f757806323b872dd14610213575b600080fd5b61017760048036038101906101729190612bfc565b6104df565b6040516101849190612c44565b60405180910390f35b610195610540565b6040516101a29190612cef565b60405180910390f35b6101c560048036038101906101c09190612d47565b6105d2565b6040516101d29190612db5565b60405180910390f35b6101f560048036038101906101f09190612dfc565b6105ee565b005b610211600480360381019061020c9190612d47565b610604565b005b61022d60048036038101906102289190612e3c565b6109b8565b005b61024960048036038101906102449190612eb4565b610aba565b005b61026560048036038101906102609190612d47565b610ca4565b6040516102789796959493929190612f16565b60405180910390f35b610289610e8c565b6040516102969190612f9a565b60405180910390f35b6102b960048036038101906102b49190612e3c565b610e92565b005b6102d560048036038101906102d09190612d47565b610eb2565b6040516102e29190612db5565b60405180910390f35b6102f3610ec4565b6040516103009190612f9a565b60405180910390f35b610323600480360381019061031e9190612fb5565b610eca565b6040516103309190612f9a565b60405180910390f35b610353600480360381019061034e9190613117565b610f84565b6040516103609190612f9a565b60405180910390f35b6103716111cd565b60405161037e91906132c2565b60405180910390f35b61038f611328565b60405161039c9190612cef565b60405180910390f35b6103bf60048036038101906103ba9190613310565b6113ba565b005b6103db60048036038101906103d69190612d47565b6113d0565b6040516103ee97969594939291906133c7565b60405180910390f35b6103ff61153c565b60405161040c9190613502565b60405180910390f35b61042f600480360381019061042a91906135c5565b611630565b005b61044b60048036038101906104469190612d47565b611655565b6040516104589190612cef565b60405180910390f35b610469611768565b6040516104769190613502565b60405180910390f35b61049960048036038101906104949190612fb5565b61189a565b6040516104a69190612f9a565b60405180910390f35b6104c960048036038101906104c49190613648565b6118b2565b6040516104d69190612c44565b60405180910390f35b6000634906490660e01b7bffffffffffffffffffffffffffffffffffffffffffffffffffffffff1916827bffffffffffffffffffffffffffffffffffffffffffffffffffffffff19161480610539575061053882611946565b5b9050919050565b60606000805461054f906136b7565b80601f016020809104026020016040519081016040528092919081815260200182805461057b906136b7565b80156105c85780601f1061059d576101008083540402835291602001916105c8565b820191906000526020600020905b8154815290600101906020018083116105ab57829003601f168201915b5050505050905090565b60006105dd82611a28565b506105e782611ab0565b9050919050565b61060082826105fb611aed565b611af5565b5050565b600b600082815260200190815260200160002060070160009054906101000a900460ff16610667576040517f08c379a000000000000000000000000000000000000000000000000000000000815260040161065e90613734565b60405180910390fd5b600860009054906101000a900473ffffffffffffffffffffffffffffffffffffffff1673ffffffffffffffffffffffffffffffffffffffff166323b872dd336106af84610eb2565b600b6000868152602001908152602001600020600201546040518463ffffffff1660e01b81526004016106e493929190613754565b6020604051808303816000875af192505050801561072057506040513d601f19601f8201168201806040525081019061071d91906137a0565b60015b610756576040517ff499da2000000000000000000000000000000000000000000000000000000000815260040160405180910390fd5b5060095461076333610eca565b106107a3576040517f08c379a000000000000000000000000000000000000000000000000000000000815260040161079a90613819565b60405180910390fd5b600a54600c60003373ffffffffffffffffffffffffffffffffffffffff1673ffffffffffffffffffffffffffffffffffffffff168152602001908152602001600020546107f09190613868565b421015610832576040517f08c379a0000000000000000000000000000000000000000000000000000000008152600401610829906138e8565b60405180910390fd5b600061083d82610eb2565b905061084a813384611b07565b600b6000838152602001908152602001600020600401819080600181540180825580915050600190039060005260206000200160009091909190916101000a81548173ffffffffffffffffffffffffffffffffffffffff021916908373ffffffffffffffffffffffffffffffffffffffff16021790555042600b6000848152602001908152602001600020600601819055506000600b600084815260200190815260200160002060070160006101000a81548160ff02191690831515021790555042600c60003373ffffffffffffffffffffffffffffffffffffffff1673ffffffffffffffffffffffffffffffffffffffff168152602001908152602001600020819055503373ffffffffffffffffffffffffffffffffffffffff16827f2ad8a3868f4623be3d61a829e19c896cdf5d7a0c71e4341b4bc1a92e093b5469600b6000868152602001908152602001600020600201546040516109ac9190612f9a565b60405180910390a35050565b600073ffffffffffffffffffffffffffffffffffffffff168273ffffffffffffffffffffffffffffffffffffffff1603610a2a5760006040517f64a0ae92000000000000000000000000000000000000000000000000000000008152600401610a219190612db5565b60405180910390fd5b6000610a3e8383610a39611aed565b611c74565b90508373ffffffffffffffffffffffffffffffffffffffff168173ffffffffffffffffffffffffffffffffffffffff1614610ab4578382826040517f64283d7b000000000000000000000000000000000000000000000000000000008152600401610aab93929190613908565b60405180910390fd5b50505050565b3373ffffffffffffffffffffffffffffffffffffffff16610ada84610eb2565b73ffffffffffffffffffffffffffffffffffffffff1614610b30576040517f08c379a0000000000000000000000000000000000000000000000000000000008152600401610b279061398b565b60405180910390fd5b600b600084815260200190815260200160002060070160009054906101000a900460ff1615610b94576040517f08c379a0000000000000000000000000000000000000000000000000000000008152600401610b8b906139f7565b60405180910390fd5b806002811115610ba757610ba6613350565b5b600b600085815260200190815260200160002060010160009054906101000a900460ff166002811115610bdd57610bdc613350565b5b14610c1d576040517f08c379a0000000000000000000000000000000000000000000000000000000008152600401610c1490613a63565b60405180910390fd5b81600b6000858152602001908152602001600020600201819055506001600b600085815260200190815260200160002060070160006101000a81548160ff021916908315150217905550827f3f6ac9180cf2abdb472ec4d379a6654a5253af404f295f2e027f63b39c88b3c983604051610c979190612f9a565b60405180910390a2505050565b6060806000606060008060008088118015610cc157506007548811155b610d00576040517f08c379a0000000000000000000000000000000000000000000000000000000008152600401610cf790613acf565b60405180910390fd5b6000600b60008a8152602001908152602001600020905080600001610d358260010160009054906101000a900460ff16611e8e565b826002015483600301846005015485600601548660070160009054906101000a900460ff16868054610d66906136b7565b80601f0160208091040260200160405190810160405280929190818152602001828054610d92906136b7565b8015610ddf5780601f10610db457610100808354040283529160200191610ddf565b820191906000526020600020905b815481529060010190602001808311610dc257829003601f168201915b50505050509650838054610df2906136b7565b80601f0160208091040260200160405190810160405280929190818152602001828054610e1e906136b7565b8015610e6b5780601f10610e4057610100808354040283529160200191610e6b565b820191906000526020600020905b815481529060010190602001808311610e4e57829003601f168201915b50505050509350975097509750975097509750975050919395979092949650565b60095481565b610ead83838360405180602001604052806000815250611630565b505050565b6000610ebd82611a28565b9050919050565b600a5481565b60008073ffffffffffffffffffffffffffffffffffffffff168273ffffffffffffffffffffffffffffffffffffffff1603610f3d5760006040517f89c62b64000000000000000000000000000000000000000000000000000000008152600401610f349190612db5565b60405180910390fd5b600360008373ffffffffffffffffffffffffffffffffffffffff1673ffffffffffffffffffffffffffffffffffffffff168152602001908152602001600020549050919050565b6000600954610f9233610eca565b10610fd2576040517f08c379a0000000000000000000000000000000000000000000000000000000008152600401610fc990613819565b60405180910390fd5b600160076000828254610fe59190613868565b9250508190555060006007549050610ffd3382611fe2565b61100781846120db565b60405180610100016040528087815260200186600281111561102c5761102b613350565b5b8152602001858152602001848152602001600067ffffffffffffffff81111561105857611057612fec565b5b6040519080825280602002602001820160405280156110865781602001602082028036833780820191505090505b50815260200142815260200142815260200160011515815250600b600083815260200190815260200160002060008201518160000190816110c79190613c9b565b5060208201518160010160006101000a81548160ff021916908360028111156110f3576110f2613350565b5b02179055506040820151816002015560608201518160030190816111179190613c9b565b506080820151816004019080519060200190611134929190612ae9565b5060a0820151816005015560c0820151816006015560e08201518160070160006101000a81548160ff0219169083151502179055509050503373ffffffffffffffffffffffffffffffffffffffff16817fbbee3cf746bddac78ee7bce599c3345323fbade680a8ba314f7374126f6ca812888888886040516111b99493929190613d6d565b60405180910390a380915050949350505050565b60606000600367ffffffffffffffff8111156111ec576111eb612fec565b5b60405190808252806020026020018201604052801561121f57816020015b606081526020019060019003908161120a5790505b5090506040518060400160405280600681526020017f4d4149534f4e00000000000000000000000000000000000000000000000000008152508160008151811061126c5761126b613dc0565b5b60200260200101819052506040518060400160405280600581526020017f56494c4c41000000000000000000000000000000000000000000000000000000815250816001815181106112c1576112c0613dc0565b5b60200260200101819052506040518060400160405280600581526020017f484f54454c0000000000000000000000000000000000000000000000000000008152508160028151811061131657611315613dc0565b5b60200260200101819052508091505090565b606060018054611337906136b7565b80601f0160208091040260200160405190810160405280929190818152602001828054611363906136b7565b80156113b05780601f10611385576101008083540402835291602001916113b0565b820191906000526020600020905b81548152906001019060200180831161139357829003601f168201915b5050505050905090565b6113cc6113c5611aed565b8383612137565b5050565b600b6020528060005260406000206000915090508060000180546113f3906136b7565b80601f016020809104026020016040519081016040528092919081815260200182805461141f906136b7565b801561146c5780601f106114415761010080835404028352916020019161146c565b820191906000526020600020905b81548152906001019060200180831161144f57829003601f168201915b5050505050908060010160009054906101000a900460ff169080600201549080600301805461149a906136b7565b80601f01602080910402602001604051908101604052809291908181526020018280546114c6906136b7565b80156115135780601f106114e857610100808354040283529160200191611513565b820191906000526020600020905b8154815290600101906020018083116114f657829003601f168201915b5050505050908060050154908060060154908060070160009054906101000a900460ff16905087565b6060600061154933610eca565b905060008167ffffffffffffffff81111561156757611566612fec565b5b6040519080825280602002602001820160405280156115955781602001602082028036833780820191505090505b509050600080600190505b6007548111611626573373ffffffffffffffffffffffffffffffffffffffff166115c982610eb2565b73ffffffffffffffffffffffffffffffffffffffff160361161357808383815181106115f8576115f7613dc0565b5b602002602001018181525050818061160f90613def565b9250505b808061161e90613def565b9150506115a0565b5081935050505090565b61163b8484846109b8565b61164f611646611aed565b858585856122a6565b50505050565b606061166082611a28565b506000600660008481526020019081526020016000208054611681906136b7565b80601f01602080910402602001604051908101604052809291908181526020018280546116ad906136b7565b80156116fa5780601f106116cf576101008083540402835291602001916116fa565b820191906000526020600020905b8154815290600101906020018083116116dd57829003601f168201915b50505050509050600061170b612457565b90506000815103611720578192505050611763565b60008251111561175557808260405160200161173d929190613e73565b60405160208183030381529060405292505050611763565b61175e8461246e565b925050505b919050565b6060600080600190505b60075481116117c657600b600082815260200190815260200160002060070160009054906101000a900460ff16156117b35781806117af90613def565b9250505b80806117be90613def565b915050611772565b5060008167ffffffffffffffff8111156117e3576117e2612fec565b5b6040519080825280602002602001820160405280156118115781602001602082028036833780820191505090505b509050600080600190505b600754811161189057600b600082815260200190815260200160002060070160009054906101000a900460ff161561187d578083838151811061186257611861613dc0565b5b602002602001018181525050818061187990613def565b9250505b808061188890613def565b91505061181c565b5081935050505090565b600c6020528060005260406000206000915090505481565b6000600560008473ffffffffffffffffffffffffffffffffffffffff1673ffffffffffffffffffffffffffffffffffffffff16815260200190815260200160002060008373ffffffffffffffffffffffffffffffffffffffff1673ffffffffffffffffffffffffffffffffffffffff16815260200190815260200160002060009054906101000a900460ff16905092915050565b60007f80ac58cd000000000000000000000000000000000000000000000000000000007bffffffffffffffffffffffffffffffffffffffffffffffffffffffff1916827bffffffffffffffffffffffffffffffffffffffffffffffffffffffff19161480611a1157507f5b5e139f000000000000000000000000000000000000000000000000000000007bffffffffffffffffffffffffffffffffffffffffffffffffffffffff1916827bffffffffffffffffffffffffffffffffffffffffffffffffffffffff1916145b80611a215750611a20826124d7565b5b9050919050565b600080611a3483612541565b9050600073ffffffffffffffffffffffffffffffffffffffff168173ffffffffffffffffffffffffffffffffffffffff1603611aa757826040517f7e273289000000000000000000000000000000000000000000000000000000008152600401611a9e9190612f9a565b60405180910390fd5b80915050919050565b60006004600083815260200190815260200160002060009054906101000a900473ffffffffffffffffffffffffffffffffffffffff169050919050565b600033905090565b611b02838383600161257e565b505050565b600073ffffffffffffffffffffffffffffffffffffffff168273ffffffffffffffffffffffffffffffffffffffff1603611b795760006040517f64a0ae92000000000000000000000000000000000000000000000000000000008152600401611b709190612db5565b60405180910390fd5b6000611b8783836000611c74565b9050600073ffffffffffffffffffffffffffffffffffffffff168173ffffffffffffffffffffffffffffffffffffffff1603611bfa57816040517f7e273289000000000000000000000000000000000000000000000000000000008152600401611bf19190612f9a565b60405180910390fd5b8373ffffffffffffffffffffffffffffffffffffffff168173ffffffffffffffffffffffffffffffffffffffff1614611c6e578382826040517f64283d7b000000000000000000000000000000000000000000000000000000008152600401611c6593929190613908565b60405180910390fd5b50505050565b600080611c8084612541565b9050600073ffffffffffffffffffffffffffffffffffffffff168373ffffffffffffffffffffffffffffffffffffffff1614611cc257611cc1818486612743565b5b600073ffffffffffffffffffffffffffffffffffffffff168173ffffffffffffffffffffffffffffffffffffffff1614611d5357611d0460008560008061257e565b6001600360008373ffffffffffffffffffffffffffffffffffffffff1673ffffffffffffffffffffffffffffffffffffffff168152602001908152602001600020600082825403925050819055505b600073ffffffffffffffffffffffffffffffffffffffff168573ffffffffffffffffffffffffffffffffffffffff1614611dd6576001600360008773ffffffffffffffffffffffffffffffffffffffff1673ffffffffffffffffffffffffffffffffffffffff168152602001908152602001600020600082825401925050819055505b846002600086815260200190815260200160002060006101000a81548173ffffffffffffffffffffffffffffffffffffffff021916908373ffffffffffffffffffffffffffffffffffffffff160217905550838573ffffffffffffffffffffffffffffffffffffffff168273ffffffffffffffffffffffffffffffffffffffff167fddf252ad1be2c89b69c2b068fc378daa952ba7f163c4a11628f55a4df523b3ef60405160405180910390a4809150509392505050565b606060006002811115611ea457611ea3613350565b5b826002811115611eb757611eb6613350565b5b03611ef9576040518060400160405280600681526020017f4d4149534f4e00000000000000000000000000000000000000000000000000008152509050611fdd565b60016002811115611f0d57611f0c613350565b5b826002811115611f2057611f1f613350565b5b03611f62576040518060400160405280600581526020017f56494c4c410000000000000000000000000000000000000000000000000000008152509050611fdd565b600280811115611f7557611f74613350565b5b826002811115611f8857611f87613350565b5b03611fca576040518060400160405280600581526020017f484f54454c0000000000000000000000000000000000000000000000000000008152509050611fdd565b6040518060200160405280600081525090505b919050565b600073ffffffffffffffffffffffffffffffffffffffff168273ffffffffffffffffffffffffffffffffffffffff16036120545760006040517f64a0ae9200000000000000000000000000000000000000000000000000000000815260040161204b9190612db5565b60405180910390fd5b600061206283836000611c74565b9050600073ffffffffffffffffffffffffffffffffffffffff168173ffffffffffffffffffffffffffffffffffffffff16146120d65760006040517f73c6ac6e0000000000000000000000000000000000000000000000000000000081526004016120cd9190612db5565b60405180910390fd5b505050565b806006600084815260200190815260200160002090816120fb9190613c9b565b507ff8e1a15aba9398e019f0b49df1a4fde98ee17ae345cb5f6b5e2c27f5033e8ce78260405161212b9190612f9a565b60405180910390a15050565b600073ffffffffffffffffffffffffffffffffffffffff168273ffffffffffffffffffffffffffffffffffffffff16036121a857816040517f5b08ba1800000000000000000000000000000000000000000000000000000000815260040161219f9190612db5565b60405180910390fd5b80600560008573ffffffffffffffffffffffffffffffffffffffff1673ffffffffffffffffffffffffffffffffffffffff16815260200190815260200160002060008473ffffffffffffffffffffffffffffffffffffffff1673ffffffffffffffffffffffffffffffffffffffff16815260200190815260200160002060006101000a81548160ff0219169083151502179055508173ffffffffffffffffffffffffffffffffffffffff168373ffffffffffffffffffffffffffffffffffffffff167f17307eab39ab6107e8899845ad3d59bd9653f200f220920489ca2b5937696c31836040516122999190612c44565b60405180910390a3505050565b60008373ffffffffffffffffffffffffffffffffffffffff163b1115612450578273ffffffffffffffffffffffffffffffffffffffff1663150b7a02868685856040518563ffffffff1660e01b81526004016123059493929190613eec565b6020604051808303816000875af192505050801561234157506040513d601f19601f8201168201806040525081019061233e9190613f4d565b60015b6123c5573d8060008114612371576040519150601f19603f3d011682016040523d82523d6000602084013e612376565b606091505b5060008151036123bd57836040517f64a0ae920000000000000000000000000000000000000000000000000000000081526004016123b49190612db5565b60405180910390fd5b805181602001fd5b63150b7a0260e01b7bffffffffffffffffffffffffffffffffffffffffffffffffffffffff1916817bffffffffffffffffffffffffffffffffffffffffffffffffffffffff19161461244e57836040517f64a0ae920000000000000000000000000000000000000000000000000000000081526004016124459190612db5565b60405180910390fd5b505b5050505050565b606060405180602001604052806000815250905090565b606061247982611a28565b506000612484612457565b905060008151116124a457604051806020016040528060008152506124cf565b806124ae84612807565b6040516020016124bf929190613e73565b6040516020818303038152906040525b915050919050565b60007f01ffc9a7000000000000000000000000000000000000000000000000000000007bffffffffffffffffffffffffffffffffffffffffffffffffffffffff1916827bffffffffffffffffffffffffffffffffffffffffffffffffffffffff1916149050919050565b60006002600083815260200190815260200160002060009054906101000a900473ffffffffffffffffffffffffffffffffffffffff169050919050565b80806125b75750600073ffffffffffffffffffffffffffffffffffffffff168273ffffffffffffffffffffffffffffffffffffffff1614155b156126eb5760006125c784611a28565b9050600073ffffffffffffffffffffffffffffffffffffffff168373ffffffffffffffffffffffffffffffffffffffff161415801561263257508273ffffffffffffffffffffffffffffffffffffffff168173ffffffffffffffffffffffffffffffffffffffff1614155b8015612645575061264381846118b2565b155b1561268757826040517fa9fbf51f00000000000000000000000000000000000000000000000000000000815260040161267e9190612db5565b60405180910390fd5b81156126e957838573ffffffffffffffffffffffffffffffffffffffff168273ffffffffffffffffffffffffffffffffffffffff167f8c5be1e5ebec7d5bd14f71427d1e84f3dd0314c0f7b2291e5b200ac8c7c3b92560405160405180910390a45b505b836004600085815260200190815260200160002060006101000a81548173ffffffffffffffffffffffffffffffffffffffff021916908373ffffffffffffffffffffffffffffffffffffffff16021790555050505050565b61274e8383836128d5565b61280257600073ffffffffffffffffffffffffffffffffffffffff168373ffffffffffffffffffffffffffffffffffffffff16036127c357806040517f7e2732890000000000000000000000000000000000000000000000000000000081526004016127ba9190612f9a565b60405180910390fd5b81816040517f177e802f0000000000000000000000000000000000000000000000000000000081526004016127f9929190613f7a565b60405180910390fd5b505050565b60606000600161281684612996565b01905060008167ffffffffffffffff81111561283557612834612fec565b5b6040519080825280601f01601f1916602001820160405280156128675781602001600182028036833780820191505090505b509050600082602001820190505b6001156128ca578080600190039150507f3031323334353637383961626364656600000000000000000000000000000000600a86061a8153600a85816128be576128bd613fa3565b5b04945060008503612875575b819350505050919050565b60008073ffffffffffffffffffffffffffffffffffffffff168373ffffffffffffffffffffffffffffffffffffffff161415801561298d57508273ffffffffffffffffffffffffffffffffffffffff168473ffffffffffffffffffffffffffffffffffffffff16148061294e575061294d84846118b2565b5b8061298c57508273ffffffffffffffffffffffffffffffffffffffff1661297483611ab0565b73ffffffffffffffffffffffffffffffffffffffff16145b5b90509392505050565b600080600090507a184f03e93ff9f4daa797ed6e38ed64bf6a1f01000000000000000083106129f4577a184f03e93ff9f4daa797ed6e38ed64bf6a1f01000000000000000083816129ea576129e9613fa3565b5b0492506040810190505b6d04ee2d6d415b85acef81000000008310612a31576d04ee2d6d415b85acef81000000008381612a2757612a26613fa3565b5b0492506020810190505b662386f26fc100008310612a6057662386f26fc100008381612a5657612a55613fa3565b5b0492506010810190505b6305f5e1008310612a89576305f5e1008381612a7f57612a7e613fa3565b5b0492506008810190505b6127108310612aae576127108381612aa457612aa3613fa3565b5b0492506004810190505b60648310612ad15760648381612ac757612ac6613fa3565b5b0492506002810190505b600a8310612ae0576001810190505b80915050919050565b828054828255906000526020600020908101928215612b62579160200282015b82811115612b615782518260006101000a81548173ffffffffffffffffffffffffffffffffffffffff021916908373ffffffffffffffffffffffffffffffffffffffff16021790555091602001919060010190612b09565b5b509050612b6f9190612b73565b5090565b5b80821115612b8c576000816000905550600101612b74565b5090565b6000604051905090565b600080fd5b600080fd5b60007fffffffff0000000000000000000000000000000000000000000000000000000082169050919050565b612bd981612ba4565b8114612be457600080fd5b50565b600081359050612bf681612bd0565b92915050565b600060208284031215612c1257612c11612b9a565b5b6000612c2084828501612be7565b91505092915050565b60008115159050919050565b612c3e81612c29565b82525050565b6000602082019050612c596000830184612c35565b92915050565b600081519050919050565b600082825260208201905092915050565b60005b83811015612c99578082015181840152602081019050612c7e565b60008484015250505050565b6000601f19601f8301169050919050565b6000612cc182612c5f565b612ccb8185612c6a565b9350612cdb818560208601612c7b565b612ce481612ca5565b840191505092915050565b60006020820190508181036000830152612d098184612cb6565b905092915050565b6000819050919050565b612d2481612d11565b8114612d2f57600080fd5b50565b600081359050612d4181612d1b565b92915050565b600060208284031215612d5d57612d5c612b9a565b5b6000612d6b84828501612d32565b91505092915050565b600073ffffffffffffffffffffffffffffffffffffffff82169050919050565b6000612d9f82612d74565b9050919050565b612daf81612d94565b82525050565b6000602082019050612dca6000830184612da6565b92915050565b612dd981612d94565b8114612de457600080fd5b50565b600081359050612df681612dd0565b92915050565b60008060408385031215612e1357612e12612b9a565b5b6000612e2185828601612de7565b9250506020612e3285828601612d32565b9150509250929050565b600080600060608486031215612e5557612e54612b9a565b5b6000612e6386828701612de7565b9350506020612e7486828701612de7565b9250506040612e8586828701612d32565b9150509250925092565b60038110612e9c57600080fd5b50565b600081359050612eae81612e8f565b92915050565b600080600060608486031215612ecd57612ecc612b9a565b5b6000612edb86828701612d32565b9350506020612eec86828701612d32565b9250506040612efd86828701612e9f565b9150509250925092565b612f1081612d11565b82525050565b600060e0820190508181036000830152612f30818a612cb6565b90508181036020830152612f448189612cb6565b9050612f536040830188612f07565b8181036060830152612f658187612cb6565b9050612f746080830186612f07565b612f8160a0830185612f07565b612f8e60c0830184612c35565b98975050505050505050565b6000602082019050612faf6000830184612f07565b92915050565b600060208284031215612fcb57612fca612b9a565b5b6000612fd984828501612de7565b91505092915050565b600080fd5b600080fd5b7f4e487b7100000000000000000000000000000000000000000000000000000000600052604160045260246000fd5b61302482612ca5565b810181811067ffffffffffffffff8211171561304357613042612fec565b5b80604052505050565b6000613056612b90565b9050613062828261301b565b919050565b600067ffffffffffffffff82111561308257613081612fec565b5b61308b82612ca5565b9050602081019050919050565b82818337600083830152505050565b60006130ba6130b584613067565b61304c565b9050828152602081018484840111156130d6576130d5612fe7565b5b6130e1848285613098565b509392505050565b600082601f8301126130fe576130fd612fe2565b5b813561310e8482602086016130a7565b91505092915050565b6000806000806080858703121561313157613130612b9a565b5b600085013567ffffffffffffffff81111561314f5761314e612b9f565b5b61315b878288016130e9565b945050602061316c87828801612e9f565b935050604061317d87828801612d32565b925050606085013567ffffffffffffffff81111561319e5761319d612b9f565b5b6131aa878288016130e9565b91505092959194509250565b600081519050919050565b600082825260208201905092915050565b6000819050602082019050919050565b600082825260208201905092915050565b60006131fe82612c5f565b61320881856131e2565b9350613218818560208601612c7b565b61322181612ca5565b840191505092915050565b600061323883836131f3565b905092915050565b6000602082019050919050565b6000613258826131b6565b61326281856131c1565b935083602082028501613274856131d2565b8060005b858110156132b05784840389528151613291858261322c565b945061329c83613240565b925060208a01995050600181019050613278565b50829750879550505050505092915050565b600060208201905081810360008301526132dc818461324d565b905092915050565b6132ed81612c29565b81146132f857600080fd5b50565b60008135905061330a816132e4565b92915050565b6000806040838503121561332757613326612b9a565b5b600061333585828601612de7565b9250506020613346858286016132fb565b9150509250929050565b7f4e487b7100000000000000000000000000000000000000000000000000000000600052602160045260246000fd5b600381106133905761338f613350565b5b50565b60008190506133a18261337f565b919050565b60006133b182613393565b9050919050565b6133c1816133a6565b82525050565b600060e08201905081810360008301526133e1818a612cb6565b90506133f060208301896133b8565b6133fd6040830188612f07565b818103606083015261340f8187612cb6565b905061341e6080830186612f07565b61342b60a0830185612f07565b61343860c0830184612c35565b98975050505050505050565b600081519050919050565b600082825260208201905092915050565b6000819050602082019050919050565b61347981612d11565b82525050565b600061348b8383613470565b60208301905092915050565b6000602082019050919050565b60006134af82613444565b6134b9818561344f565b93506134c483613460565b8060005b838110156134f55781516134dc888261347f565b97506134e783613497565b9250506001810190506134c8565b5085935050505092915050565b6000602082019050818103600083015261351c81846134a4565b905092915050565b600067ffffffffffffffff82111561353f5761353e612fec565b5b61354882612ca5565b9050602081019050919050565b600061356861356384613524565b61304c565b90508281526020810184848401111561358457613583612fe7565b5b61358f848285613098565b509392505050565b600082601f8301126135ac576135ab612fe2565b5b81356135bc848260208601613555565b91505092915050565b600080600080608085870312156135df576135de612b9a565b5b60006135ed87828801612de7565b94505060206135fe87828801612de7565b935050604061360f87828801612d32565b925050606085013567ffffffffffffffff8111156136305761362f612b9f565b5b61363c87828801613597565b91505092959194509250565b6000806040838503121561365f5761365e612b9a565b5b600061366d85828601612de7565b925050602061367e85828601612de7565b9150509250929050565b7f4e487b7100000000000000000000000000000000000000000000000000000000600052602260045260246000fd5b600060028204905060018216806136cf57607f821691505b6020821081036136e2576136e1613688565b5b50919050565b7f486f757365206e6f7420617661696c61626c6520666f722073616c6500000000600082015250565b600061371e601c83612c6a565b9150613729826136e8565b602082019050919050565b6000602082019050818103600083015261374d81613711565b9050919050565b60006060820190506137696000830186612da6565b6137766020830185612da6565b6137836040830184612f07565b949350505050565b60008151905061379a816132e4565b92915050565b6000602082840312156137b6576137b5612b9a565b5b60006137c48482850161378b565b91505092915050565b7f4f776e657273686970206c696d69742072656163686564000000000000000000600082015250565b6000613803601783612c6a565b915061380e826137cd565b602082019050919050565b60006020820190508181036000830152613832816137f6565b9050919050565b7f4e487b7100000000000000000000000000000000000000000000000000000000600052601160045260246000fd5b600061387382612d11565b915061387e83612d11565b925082820190508082111561389657613895613839565b5b92915050565b7f436f6f6c646f776e206163746976650000000000000000000000000000000000600082015250565b60006138d2600f83612c6a565b91506138dd8261389c565b602082019050919050565b60006020820190508181036000830152613901816138c5565b9050919050565b600060608201905061391d6000830186612da6565b61392a6020830185612f07565b6139376040830184612da6565b949350505050565b7f596f7520617265206e6f7420746865206f776e65720000000000000000000000600082015250565b6000613975601583612c6a565b91506139808261393f565b602082019050919050565b600060208201905081810360008301526139a481613968565b9050919050565b7f486f75736520697320616c7265616479206f6e2073616c650000000000000000600082015250565b60006139e1601883612c6a565b91506139ec826139ab565b602082019050919050565b60006020820190508181036000830152613a10816139d4565b9050919050565b7f496e76616c6964207265736f7572636520747970650000000000000000000000600082015250565b6000613a4d601583612c6a565b9150613a5882613a17565b602082019050919050565b60006020820190508181036000830152613a7c81613a40565b9050919050565b7f496e76616c696420746f6b656e49640000000000000000000000000000000000600082015250565b6000613ab9600f83612c6a565b9150613ac482613a83565b602082019050919050565b60006020820190508181036000830152613ae881613aac565b9050919050565b60008190508160005260206000209050919050565b60006020601f8301049050919050565b600082821b905092915050565b600060088302613b517fffffffffffffffffffffffffffffffffffffffffffffffffffffffffffffffff82613b14565b613b5b8683613b14565b95508019841693508086168417925050509392505050565b6000819050919050565b6000613b98613b93613b8e84612d11565b613b73565b612d11565b9050919050565b6000819050919050565b613bb283613b7d565b613bc6613bbe82613b9f565b848454613b21565b825550505050565b600090565b613bdb613bce565b613be6818484613ba9565b505050565b5b81811015613c0a57613bff600082613bd3565b600181019050613bec565b5050565b601f821115613c4f57613c2081613aef565b613c2984613b04565b81016020851015613c38578190505b613c4c613c4485613b04565b830182613beb565b50505b505050565b600082821c905092915050565b6000613c7260001984600802613c54565b1980831691505092915050565b6000613c8b8383613c61565b9150826002028217905092915050565b613ca482612c5f565b67ffffffffffffffff811115613cbd57613cbc612fec565b5b613cc782546136b7565b613cd2828285613c0e565b600060209050601f831160018114613d055760008415613cf3578287015190505b613cfd8582613c7f565b865550613d65565b601f198416613d1386613aef565b60005b82811015613d3b57848901518255600182019150602085019450602081019050613d16565b86831015613d585784890151613d54601f891682613c61565b8355505b6001600288020188555050505b505050505050565b60006080820190508181036000830152613d878187612cb6565b9050613d9660208301866133b8565b613da36040830185612f07565b8181036060830152613db58184612cb6565b905095945050505050565b7f4e487b7100000000000000000000000000000000000000000000000000000000600052603260045260246000fd5b6000613dfa82612d11565b91507fffffffffffffffffffffffffffffffffffffffffffffffffffffffffffffffff8203613e2c57613e2b613839565b5b600182019050919050565b600081905092915050565b6000613e4d82612c5f565b613e578185613e37565b9350613e67818560208601612c7b565b80840191505092915050565b6000613e7f8285613e42565b9150613e8b8284613e42565b91508190509392505050565b600081519050919050565b600082825260208201905092915050565b6000613ebe82613e97565b613ec88185613ea2565b9350613ed8818560208601612c7b565b613ee181612ca5565b840191505092915050565b6000608082019050613f016000830187612da6565b613f0e6020830186612da6565b613f1b6040830185612f07565b8181036060830152613f2d8184613eb3565b905095945050505050565b600081519050613f4781612bd0565b92915050565b600060208284031215613f6357613f62612b9a565b5b6000613f7184828501613f38565b91505092915050565b6000604082019050613f8f6000830185612da6565b613f9c6020830184612f07565b9392505050565b7f4e487b7100000000000000000000000000000000000000000000000000000000600052601260045260246000fdfea26469706673582212206548e8c101de8af2bf24356dd09eb8c8044191f99ceb75ba8f312a86ae94b51964736f6c634300081c0033",
  "linkReferences": {},
  "deployedLinkReferences": {}
}