{
  "_format": "hh-sol-artifact-1",
  "contractName": "ResourceToken",
  "sourceName": "contracts/RessourceToken.sol",
  "abi": [
    {
      "inputs": [
        {
          "internalType": "address",
          "name": "paymentTokenAddress",
          "type": "address"
        }
      ],
      "stateMutability": "nonpayable",
      "type": "constructor"
    },
    {
      "inputs": [
        {
          "internalType": "address",
          "name": "sender",
          "type": "address"
        },
        {
          "internalType": "uint256",
          "name": "tokenId",
          "type": "uint256"
        },
        {
          "internalType": "address",
          "name": "owner",
          "type": "address"
        }
      ],
      "name": "ERC721IncorrectOwner",
      "type": "error"
    },
    {
      "inputs": [
        {
          "internalType": "address",
          "name": "operator",
          "type": "address"
        },
        {
          "internalType": "uint256",
          "name": "tokenId",
          "type": "uint256"
        }
      ],
      "name": "ERC721InsufficientApproval",
      "type": "error"
    },
    {
      "inputs": [
        {
          "internalType": "address",
          "name": "approver",
          "type": "address"
        }
      ],
      "name": "ERC721InvalidApprover",
      "type": "error"
    },
    {
      "inputs": [
        {
          "internalType": "address",
          "name": "operator",
          "type": "address"
        }
      ],
      "name": "ERC721InvalidOperator",
      "type": "error"
    },
    {
      "inputs": [
        {
          "internalType": "address",
          "name": "owner",
          "type": "address"
        }
      ],
      "name": "ERC721InvalidOwner",
      "type": "error"
    },
    {
      "inputs": [
        {
          "internalType": "address",
          "name": "receiver",
          "type": "address"
        }
      ],
      "name": "ERC721InvalidReceiver",
      "type": "error"
    },
    {
      "inputs": [
        {
          "internalType": "address",
          "name": "sender",
          "type": "address"
        }
      ],
      "name": "ERC721InvalidSender",
      "type": "error"
    },
    {
      "inputs": [
        {
          "internalType": "uint256",
          "name": "tokenId",
          "type": "uint256"
        }
      ],
      "name": "ERC721NonexistentToken",
      "type": "error"
    },
    {
      "anonymous": false,
      "inputs": [
        {
          "indexed": true,
          "internalType": "address",
          "name": "owner",
          "type": "address"
        },
        {
          "indexed": true,
          "internalType": "address",
          "name": "approved",
          "type": "address"
        },
        {
          "indexed": true,
          "internalType": "uint256",
          "name": "tokenId",
          "type": "uint256"
        }
      ],
      "name": "Approval",
      "type": "event"
    },
    {
      "anonymous": false,
      "inputs": [
        {
          "indexed": true,
          "internalType": "address",
          "name": "owner",
          "type": "address"
        },
        {
          "indexed": true,
          "internalType": "address",
          "name": "operator",
          "type": "address"
        },
        {
          "indexed": false,
          "internalType": "bool",
          "name": "approved",
          "type": "bool"
        }
      ],
      "name": "ApprovalForAll",
      "type": "event"
    },
    {
      "anonymous": false,
      "inputs": [
        {
          "indexed": false,
          "internalType": "uint256",
          "name": "_fromTokenId",
          "type": "uint256"
        },
        {
          "indexed": false,
          "internalType": "uint256",
          "name": "_toTokenId",
          "type": "uint256"
        }
      ],
      "name": "BatchMetadataUpdate",
      "type": "event"
    },
    {
      "anonymous": false,
      "inputs": [
        {
          "indexed": false,
          "internalType": "uint256",
          "name": "_tokenId",
          "type": "uint256"
        }
      ],
      "name": "MetadataUpdate",
      "type": "event"
    },
    {
      "anonymous": false,
      "inputs": [
        {
          "indexed": true,
          "internalType": "address",
          "name": "from",
          "type": "address"
        },
        {
          "indexed": true,
          "internalType": "address",
          "name": "to",
          "type": "address"
        },
        {
          "indexed": true,
          "internalType": "uint256",
          "name": "tokenId",
          "type": "uint256"
        }
      ],
      "name": "Transfer",
      "type": "event"
    },
    {
      "inputs": [
        {
          "internalType": "address",
          "name": "to",
          "type": "address"
        },
        {
          "internalType": "uint256",
          "name": "tokenId",
          "type": "uint256"
        }
      ],
      "name": "approve",
      "outputs": [],
      "stateMutability": "nonpayable",
      "type": "function"
    },
    {
      "inputs": [
        {
          "internalType": "address",
          "name": "owner",
          "type": "address"
        }
      ],
      "name": "balanceOf",
      "outputs": [
        {
          "internalType": "uint256",
          "name": "",
          "type": "uint256"
        }
      ],
      "stateMutability": "view",
      "type": "function"
    },
    {
      "inputs": [
        {
          "internalType": "uint256",
          "name": "tokenId",
          "type": "uint256"
        }
      ],
      "name": "getApproved",
      "outputs": [
        {
          "internalType": "address",
          "name": "",
          "type": "address"
        }
      ],
      "stateMutability": "view",
      "type": "function"
    },
    {
      "inputs": [],
      "name": "getAvailableHouses",
      "outputs": [
        {
          "internalType": "uint256[]",
          "name": "",
          "type": "uint256[]"
        }
      ],
      "stateMutability": "view",
      "type": "function"
    },
    {
      "inputs": [],
      "name": "getMyHouses",
      "outputs": [
        {
          "internalType": "uint256[]",
          "name": "",
          "type": "uint256[]"
        }
      ],
      "stateMutability": "view",
      "type": "function"
    },
    {
      "inputs": [
        {
          "internalType": "uint256",
          "name": "",
          "type": "uint256"
        }
      ],
      "name": "houses",
      "outputs": [
        {
          "internalType": "string",
          "name": "name",
          "type": "string"
        },
        {
          "internalType": "uint256",
          "name": "price",
          "type": "uint256"
        },
        {
          "internalType": "string",
          "name": "ipfsHash",
          "type": "string"
        },
        {
          "internalType": "uint256",
          "name": "createdAt",
          "type": "uint256"
        },
        {
          "internalType": "uint256",
          "name": "lastTransferAt",
          "type": "uint256"
        },
        {
          "internalType": "bool",
          "name": "available",
          "type": "bool"
        }
      ],
      "stateMutability": "view",
      "type": "function"
    },
    {
      "inputs": [
        {
          "internalType": "address",
          "name": "owner",
          "type": "address"
        },
        {
          "internalType": "address",
          "name": "operator",
          "type": "address"
        }
      ],
      "name": "isApprovedForAll",
      "outputs": [
        {
          "internalType": "bool",
          "name": "",
          "type": "bool"
        }
      ],
      "stateMutability": "view",
      "type": "function"
    },
    {
      "inputs": [
        {
          "internalType": "string",
          "name": "name",
          "type": "string"
        },
        {
          "internalType": "uint256",
          "name": "price",
          "type": "uint256"
        },
        {
          "internalType": "string",
          "name": "ipfsHash",
          "type": "string"
        }
      ],
      "name": "mintHouse",
      "outputs": [
        {
          "internalType": "uint256",
          "name": "",
          "type": "uint256"
        }
      ],
      "stateMutability": "nonpayable",
      "type": "function"
    },
    {
      "inputs": [],
      "name": "municipality",
      "outputs": [
        {
          "internalType": "address",
          "name": "",
          "type": "address"
        }
      ],
      "stateMutability": "view",
      "type": "function"
    },
    {
      "inputs": [],
      "name": "name",
      "outputs": [
        {
          "internalType": "string",
          "name": "",
          "type": "string"
        }
      ],
      "stateMutability": "view",
      "type": "function"
    },
    {
      "inputs": [
        {
          "internalType": "uint256",
          "name": "tokenId",
          "type": "uint256"
        }
      ],
      "name": "ownerOf",
      "outputs": [
        {
          "internalType": "address",
          "name": "",
          "type": "address"
        }
      ],
      "stateMutability": "view",
      "type": "function"
    },
    {
      "inputs": [
        {
          "internalType": "uint256",
          "name": "tokenId",
          "type": "uint256"
        }
      ],
      "name": "purchaseHouse",
      "outputs": [],
      "stateMutability": "nonpayable",
      "type": "function"
    },
    {
      "inputs": [
        {
          "internalType": "address",
          "name": "from",
          "type": "address"
        },
        {
          "internalType": "address",
          "name": "to",
          "type": "address"
        },
        {
          "internalType": "uint256",
          "name": "tokenId",
          "type": "uint256"
        }
      ],
      "name": "safeTransferFrom",
      "outputs": [],
      "stateMutability": "nonpayable",
      "type": "function"
    },
    {
      "inputs": [
        {
          "internalType": "address",
          "name": "from",
          "type": "address"
        },
        {
          "internalType": "address",
          "name": "to",
          "type": "address"
        },
        {
          "internalType": "uint256",
          "name": "tokenId",
          "type": "uint256"
        },
        {
          "internalType": "bytes",
          "name": "data",
          "type": "bytes"
        }
      ],
      "name": "safeTransferFrom",
      "outputs": [],
      "stateMutability": "nonpayable",
      "type": "function"
    },
    {
      "inputs": [
        {
          "internalType": "address",
          "name": "operator",
          "type": "address"
        },
        {
          "internalType": "bool",
          "name": "approved",
          "type": "bool"
        }
      ],
      "name": "setApprovalForAll",
      "outputs": [],
      "stateMutability": "nonpayable",
      "type": "function"
    },
    {
      "inputs": [
        {
          "internalType": "bytes4",
          "name": "interfaceId",
          "type": "bytes4"
        }
      ],
      "name": "supportsInterface",
      "outputs": [
        {
          "internalType": "bool",
          "name": "",
          "type": "bool"
        }
      ],
      "stateMutability": "view",
      "type": "function"
    },
    {
      "inputs": [],
      "name": "symbol",
      "outputs": [
        {
          "internalType": "string",
          "name": "",
          "type": "string"
        }
      ],
      "stateMutability": "view",
      "type": "function"
    },
    {
      "inputs": [
        {
          "internalType": "uint256",
          "name": "tokenId",
          "type": "uint256"
        }
      ],
      "name": "tokenURI",
      "outputs": [
        {
          "internalType": "string",
          "name": "",
          "type": "string"
        }
      ],
      "stateMutability": "view",
      "type": "function"
    },
    {
      "inputs": [],
      "name": "totalSupply",
      "outputs": [
        {
          "internalType": "uint256",
          "name": "",
          "type": "uint256"
        }
      ],
      "stateMutability": "view",
      "type": "function"
    },
    {
      "inputs": [
        {
          "internalType": "address",
          "name": "from",
          "type": "address"
        },
        {
          "internalType": "address",
          "name": "to",
          "type": "address"
        },
        {
          "internalType": "uint256",
          "name": "tokenId",
          "type": "uint256"
        }
      ],
      "name": "transferFrom",
      "outputs": [],
      "stateMutability": "nonpayable",
      "type": "function"
    }
  ],
  "bytecode": "0x608060405234801561001057600080fd5b506040516137cd3803806137cd833981810160405281019061003291906101b3565b6040518060400160405280600d81526020017f5265736f75726365546f6b656e000000000000000000000000000000000000008152506040518060400160405280600381526020017f52544b000000000000000000000000000000000000000000000000000000000081525081600090816100ad9190610430565b5080600190816100bd9190610430565b505050600060078190555080600860006101000a81548173ffffffffffffffffffffffffffffffffffffffff021916908373ffffffffffffffffffffffffffffffffffffffff16021790555033600960006101000a81548173ffffffffffffffffffffffffffffffffffffffff021916908373ffffffffffffffffffffffffffffffffffffffff16021790555050610502565b600080fd5b600073ffffffffffffffffffffffffffffffffffffffff82169050919050565b600061018082610155565b9050919050565b61019081610175565b811461019b57600080fd5b50565b6000815190506101ad81610187565b92915050565b6000602082840312156101c9576101c8610150565b5b60006101d78482850161019e565b91505092915050565b600081519050919050565b7f4e487b7100000000000000000000000000000000000000000000000000000000600052604160045260246000fd5b7f4e487b7100000000000000000000000000000000000000000000000000000000600052602260045260246000fd5b6000600282049050600182168061026157607f821691505b6020821081036102745761027361021a565b5b50919050565b60008190508160005260206000209050919050565b60006020601f8301049050919050565b600082821b905092915050565b6000600883026102dc7fffffffffffffffffffffffffffffffffffffffffffffffffffffffffffffffff8261029f565b6102e6868361029f565b95508019841693508086168417925050509392505050565b6000819050919050565b6000819050919050565b600061032d610328610323846102fe565b610308565b6102fe565b9050919050565b6000819050919050565b61034783610312565b61035b61035382610334565b8484546102ac565b825550505050565b600090565b610370610363565b61037b81848461033e565b505050565b5b8181101561039f57610394600082610368565b600181019050610381565b5050565b601f8211156103e4576103b58161027a565b6103be8461028f565b810160208510156103cd578190505b6103e16103d98561028f565b830182610380565b50505b505050565b600082821c905092915050565b6000610407600019846008026103e9565b1980831691505092915050565b600061042083836103f6565b9150826002028217905092915050565b610439826101e0565b67ffffffffffffffff811115610452576104516101eb565b5b61045c8254610249565b6104678282856103a3565b600060209050601f83116001811461049a5760008415610488578287015190505b6104928582610414565b8655506104fa565b601f1984166104a88661027a565b60005b828110156104d0578489015182556001820191506020850194506020810190506104ab565b868310156104ed57848901516104e9601f8916826103f6565b8355505b6001600288020188555050505b505050505050565b6132bc806105116000396000f3fe608060405234801561001057600080fd5b506004361061012c5760003560e01c806395d89b41116100ad578063b14f1afd11610071578063b14f1afd1461035a578063b88d4fde14610378578063c87b56dd14610394578063d3691b00146103c4578063e985e9c5146103e25761012c565b806395d89b411461029d5780639d0139a2146102bb578063a22cb465146102eb578063a61e7e4c14610307578063aeda852f146103255761012c565b806318160ddd116100f457806318160ddd146101e757806323b872dd1461020557806342842e0e146102215780636352211e1461023d57806370a082311461026d5761012c565b806301ffc9a71461013157806306fdde0314610161578063081812fc1461017f578063095ea7b3146101af5780631775b534146101cb575b600080fd5b61014b60048036038101906101469190612350565b610412565b6040516101589190612398565b60405180910390f35b610169610473565b6040516101769190612443565b60405180910390f35b6101996004803603810190610194919061249b565b610505565b6040516101a69190612509565b60405180910390f35b6101c960048036038101906101c49190612550565b610521565b005b6101e560048036038101906101e0919061249b565b610537565b005b6101ef6107cd565b6040516101fc919061259f565b60405180910390f35b61021f600480360381019061021a91906125ba565b6107d7565b005b61023b600480360381019061023691906125ba565b6108d9565b005b6102576004803603810190610252919061249b565b6108f9565b6040516102649190612509565b60405180910390f35b6102876004803603810190610282919061260d565b61090b565b604051610294919061259f565b60405180910390f35b6102a56109c5565b6040516102b29190612443565b60405180910390f35b6102d560048036038101906102d0919061276f565b610a57565b6040516102e2919061259f565b60405180910390f35b61030560048036038101906103009190612826565b610c67565b005b61030f610c7d565b60405161031c9190612509565b60405180910390f35b61033f600480360381019061033a919061249b565b610ca3565b60405161035196959493929190612866565b60405180910390f35b610362610dfc565b60405161036f9190612993565b60405180910390f35b610392600480360381019061038d9190612a56565b610ef0565b005b6103ae60048036038101906103a9919061249b565b610f15565b6040516103bb9190612443565b60405180910390f35b6103cc611028565b6040516103d99190612993565b60405180910390f35b6103fc60048036038101906103f79190612ad9565b61115a565b6040516104099190612398565b60405180910390f35b6000634906490660e01b7bffffffffffffffffffffffffffffffffffffffffffffffffffffffff1916827bffffffffffffffffffffffffffffffffffffffffffffffffffffffff1916148061046c575061046b826111ee565b5b9050919050565b60606000805461048290612b48565b80601f01602080910402602001604051908101604052809291908181526020018280546104ae90612b48565b80156104fb5780601f106104d0576101008083540402835291602001916104fb565b820191906000526020600020905b8154815290600101906020018083116104de57829003601f168201915b5050505050905090565b6000610510826112d0565b5061051a82611358565b9050919050565b610533828261052e611395565b61139d565b5050565b60011515600a600083815260200190815260200160002060060160009054906101000a900460ff161515146105a1576040517f08c379a000000000000000000000000000000000000000000000000000000000815260040161059890612bc5565b60405180910390fd5b600860009054906101000a900473ffffffffffffffffffffffffffffffffffffffff1673ffffffffffffffffffffffffffffffffffffffff166323b872dd33600960009054906101000a900473ffffffffffffffffffffffffffffffffffffffff16600a6000868152602001908152602001600020600101546040518463ffffffff1660e01b815260040161063893929190612be5565b6020604051808303816000875af1158015610657573d6000803e3d6000fd5b505050506040513d601f19601f8201168201806040525081019061067b9190612c31565b6106ba576040517f08c379a00000000000000000000000000000000000000000000000000000000081526004016106b190612caa565b60405180910390fd5b6106e7600960009054906101000a900473ffffffffffffffffffffffffffffffffffffffff1633836113af565b600a6000828152602001908152602001600020600301600960009054906101000a900473ffffffffffffffffffffffffffffffffffffffff169080600181540180825580915050600190039060005260206000200160009091909190916101000a81548173ffffffffffffffffffffffffffffffffffffffff021916908373ffffffffffffffffffffffffffffffffffffffff16021790555042600a6000838152602001908152602001600020600501819055506000600a600083815260200190815260200160002060060160006101000a81548160ff02191690831515021790555050565b6000600754905090565b600073ffffffffffffffffffffffffffffffffffffffff168273ffffffffffffffffffffffffffffffffffffffff16036108495760006040517f64a0ae920000000000000000000000000000000000000000000000000000000081526004016108409190612509565b60405180910390fd5b600061085d8383610858611395565b61151c565b90508373ffffffffffffffffffffffffffffffffffffffff168173ffffffffffffffffffffffffffffffffffffffff16146108d3578382826040517f64283d7b0000000000000000000000000000000000000000000000000000000081526004016108ca93929190612cca565b60405180910390fd5b50505050565b6108f483838360405180602001604052806000815250610ef0565b505050565b6000610904826112d0565b9050919050565b60008073ffffffffffffffffffffffffffffffffffffffff168273ffffffffffffffffffffffffffffffffffffffff160361097e5760006040517f89c62b640000000000000000000000000000000000000000000000000000000081526004016109759190612509565b60405180910390fd5b600360008373ffffffffffffffffffffffffffffffffffffffff1673ffffffffffffffffffffffffffffffffffffffff168152602001908152602001600020549050919050565b6060600180546109d490612b48565b80601f0160208091040260200160405190810160405280929190818152602001828054610a0090612b48565b8015610a4d5780601f10610a2257610100808354040283529160200191610a4d565b820191906000526020600020905b815481529060010190602001808311610a3057829003601f168201915b5050505050905090565b6000600960009054906101000a900473ffffffffffffffffffffffffffffffffffffffff1673ffffffffffffffffffffffffffffffffffffffff163373ffffffffffffffffffffffffffffffffffffffff1614610ae9576040517f08c379a0000000000000000000000000000000000000000000000000000000008152600401610ae090612d73565b60405180910390fd5b600160076000828254610afc9190612dc2565b9250508190555060006007549050610b36600960009054906101000a900473ffffffffffffffffffffffffffffffffffffffff1682611736565b610b40818461182f565b6040518060e00160405280868152602001858152602001848152602001600067ffffffffffffffff811115610b7857610b77612644565b5b604051908082528060200260200182016040528015610ba65781602001602082028036833780820191505090505b50815260200142815260200142815260200160011515815250600a60008381526020019081526020016000206000820151816000019081610be79190612fa2565b50602082015181600101556040820151816002019081610c079190612fa2565b506060820151816003019080519060200190610c2492919061223d565b506080820151816004015560a0820151816005015560c08201518160060160006101000a81548160ff021916908315150217905550905050809150509392505050565b610c79610c72611395565b838361188b565b5050565b600960009054906101000a900473ffffffffffffffffffffffffffffffffffffffff1681565b600a602052806000526040600020600091509050806000018054610cc690612b48565b80601f0160208091040260200160405190810160405280929190818152602001828054610cf290612b48565b8015610d3f5780601f10610d1457610100808354040283529160200191610d3f565b820191906000526020600020905b815481529060010190602001808311610d2257829003601f168201915b505050505090806001015490806002018054610d5a90612b48565b80601f0160208091040260200160405190810160405280929190818152602001828054610d8690612b48565b8015610dd35780601f10610da857610100808354040283529160200191610dd3565b820191906000526020600020905b815481529060010190602001808311610db657829003601f168201915b5050505050908060040154908060050154908060060160009054906101000a900460ff16905086565b60606000610e093361090b565b905060008167ffffffffffffffff811115610e2757610e26612644565b5b604051908082528060200260200182016040528015610e555781602001602082028036833780820191505090505b509050600080600190505b6007548111610ee6573373ffffffffffffffffffffffffffffffffffffffff16610e89826108f9565b73ffffffffffffffffffffffffffffffffffffffff1603610ed35780838381518110610eb857610eb7613074565b5b6020026020010181815250508180610ecf906130a3565b9250505b8080610ede906130a3565b915050610e60565b5081935050505090565b610efb8484846107d7565b610f0f610f06611395565b858585856119fa565b50505050565b6060610f20826112d0565b506000600660008481526020019081526020016000208054610f4190612b48565b80601f0160208091040260200160405190810160405280929190818152602001828054610f6d90612b48565b8015610fba5780601f10610f8f57610100808354040283529160200191610fba565b820191906000526020600020905b815481529060010190602001808311610f9d57829003601f168201915b505050505090506000610fcb611bab565b90506000815103610fe0578192505050611023565b600082511115611015578082604051602001610ffd929190613127565b60405160208183030381529060405292505050611023565b61101e84611bc2565b925050505b919050565b6060600080600190505b600754811161108657600a600082815260200190815260200160002060060160009054906101000a900460ff161561107357818061106f906130a3565b9250505b808061107e906130a3565b915050611032565b5060008167ffffffffffffffff8111156110a3576110a2612644565b5b6040519080825280602002602001820160405280156110d15781602001602082028036833780820191505090505b509050600080600190505b600754811161115057600a600082815260200190815260200160002060060160009054906101000a900460ff161561113d578083838151811061112257611121613074565b5b6020026020010181815250508180611139906130a3565b9250505b8080611148906130a3565b9150506110dc565b5081935050505090565b6000600560008473ffffffffffffffffffffffffffffffffffffffff1673ffffffffffffffffffffffffffffffffffffffff16815260200190815260200160002060008373ffffffffffffffffffffffffffffffffffffffff1673ffffffffffffffffffffffffffffffffffffffff16815260200190815260200160002060009054906101000a900460ff16905092915050565b60007f80ac58cd000000000000000000000000000000000000000000000000000000007bffffffffffffffffffffffffffffffffffffffffffffffffffffffff1916827bffffffffffffffffffffffffffffffffffffffffffffffffffffffff191614806112b957507f5b5e139f000000000000000000000000000000000000000000000000000000007bffffffffffffffffffffffffffffffffffffffffffffffffffffffff1916827bffffffffffffffffffffffffffffffffffffffffffffffffffffffff1916145b806112c957506112c882611c2b565b5b9050919050565b6000806112dc83611c95565b9050600073ffffffffffffffffffffffffffffffffffffffff168173ffffffffffffffffffffffffffffffffffffffff160361134f57826040517f7e273289000000000000000000000000000000000000000000000000000000008152600401611346919061259f565b60405180910390fd5b80915050919050565b60006004600083815260200190815260200160002060009054906101000a900473ffffffffffffffffffffffffffffffffffffffff169050919050565b600033905090565b6113aa8383836001611cd2565b505050565b600073ffffffffffffffffffffffffffffffffffffffff168273ffffffffffffffffffffffffffffffffffffffff16036114215760006040517f64a0ae920000000000000000000000000000000000000000000000000000000081526004016114189190612509565b60405180910390fd5b600061142f8383600061151c565b9050600073ffffffffffffffffffffffffffffffffffffffff168173ffffffffffffffffffffffffffffffffffffffff16036114a257816040517f7e273289000000000000000000000000000000000000000000000000000000008152600401611499919061259f565b60405180910390fd5b8373ffffffffffffffffffffffffffffffffffffffff168173ffffffffffffffffffffffffffffffffffffffff1614611516578382826040517f64283d7b00000000000000000000000000000000000000000000000000000000815260040161150d93929190612cca565b60405180910390fd5b50505050565b60008061152884611c95565b9050600073ffffffffffffffffffffffffffffffffffffffff168373ffffffffffffffffffffffffffffffffffffffff161461156a57611569818486611e97565b5b600073ffffffffffffffffffffffffffffffffffffffff168173ffffffffffffffffffffffffffffffffffffffff16146115fb576115ac600085600080611cd2565b6001600360008373ffffffffffffffffffffffffffffffffffffffff1673ffffffffffffffffffffffffffffffffffffffff168152602001908152602001600020600082825403925050819055505b600073ffffffffffffffffffffffffffffffffffffffff168573ffffffffffffffffffffffffffffffffffffffff161461167e576001600360008773ffffffffffffffffffffffffffffffffffffffff1673ffffffffffffffffffffffffffffffffffffffff168152602001908152602001600020600082825401925050819055505b846002600086815260200190815260200160002060006101000a81548173ffffffffffffffffffffffffffffffffffffffff021916908373ffffffffffffffffffffffffffffffffffffffff160217905550838573ffffffffffffffffffffffffffffffffffffffff168273ffffffffffffffffffffffffffffffffffffffff167fddf252ad1be2c89b69c2b068fc378daa952ba7f163c4a11628f55a4df523b3ef60405160405180910390a4809150509392505050565b600073ffffffffffffffffffffffffffffffffffffffff168273ffffffffffffffffffffffffffffffffffffffff16036117a85760006040517f64a0ae9200000000000000000000000000000000000000000000000000000000815260040161179f9190612509565b60405180910390fd5b60006117b68383600061151c565b9050600073ffffffffffffffffffffffffffffffffffffffff168173ffffffffffffffffffffffffffffffffffffffff161461182a5760006040517f73c6ac6e0000000000000000000000000000000000000000000000000000000081526004016118219190612509565b60405180910390fd5b505050565b8060066000848152602001908152602001600020908161184f9190612fa2565b507ff8e1a15aba9398e019f0b49df1a4fde98ee17ae345cb5f6b5e2c27f5033e8ce78260405161187f919061259f565b60405180910390a15050565b600073ffffffffffffffffffffffffffffffffffffffff168273ffffffffffffffffffffffffffffffffffffffff16036118fc57816040517f5b08ba180000000000000000000000000000000000000000000000000000000081526004016118f39190612509565b60405180910390fd5b80600560008573ffffffffffffffffffffffffffffffffffffffff1673ffffffffffffffffffffffffffffffffffffffff16815260200190815260200160002060008473ffffffffffffffffffffffffffffffffffffffff1673ffffffffffffffffffffffffffffffffffffffff16815260200190815260200160002060006101000a81548160ff0219169083151502179055508173ffffffffffffffffffffffffffffffffffffffff168373ffffffffffffffffffffffffffffffffffffffff167f17307eab39ab6107e8899845ad3d59bd9653f200f220920489ca2b5937696c31836040516119ed9190612398565b60405180910390a3505050565b60008373ffffffffffffffffffffffffffffffffffffffff163b1115611ba4578273ffffffffffffffffffffffffffffffffffffffff1663150b7a02868685856040518563ffffffff1660e01b8152600401611a5994939291906131a0565b6020604051808303816000875af1925050508015611a9557506040513d601f19601f82011682018060405250810190611a929190613201565b60015b611b19573d8060008114611ac5576040519150601f19603f3d011682016040523d82523d6000602084013e611aca565b606091505b506000815103611b1157836040517f64a0ae92000000000000000000000000000000000000000000000000000000008152600401611b089190612509565b60405180910390fd5b805181602001fd5b63150b7a0260e01b7bffffffffffffffffffffffffffffffffffffffffffffffffffffffff1916817bffffffffffffffffffffffffffffffffffffffffffffffffffffffff191614611ba257836040517f64a0ae92000000000000000000000000000000000000000000000000000000008152600401611b999190612509565b60405180910390fd5b505b5050505050565b606060405180602001604052806000815250905090565b6060611bcd826112d0565b506000611bd8611bab565b90506000815111611bf85760405180602001604052806000815250611c23565b80611c0284611f5b565b604051602001611c13929190613127565b6040516020818303038152906040525b915050919050565b60007f01ffc9a7000000000000000000000000000000000000000000000000000000007bffffffffffffffffffffffffffffffffffffffffffffffffffffffff1916827bffffffffffffffffffffffffffffffffffffffffffffffffffffffff1916149050919050565b60006002600083815260200190815260200160002060009054906101000a900473ffffffffffffffffffffffffffffffffffffffff169050919050565b8080611d0b5750600073ffffffffffffffffffffffffffffffffffffffff168273ffffffffffffffffffffffffffffffffffffffff1614155b15611e3f576000611d1b846112d0565b9050600073ffffffffffffffffffffffffffffffffffffffff168373ffffffffffffffffffffffffffffffffffffffff1614158015611d8657508273ffffffffffffffffffffffffffffffffffffffff168173ffffffffffffffffffffffffffffffffffffffff1614155b8015611d995750611d97818461115a565b155b15611ddb57826040517fa9fbf51f000000000000000000000000000000000000000000000000000000008152600401611dd29190612509565b60405180910390fd5b8115611e3d57838573ffffffffffffffffffffffffffffffffffffffff168273ffffffffffffffffffffffffffffffffffffffff167f8c5be1e5ebec7d5bd14f71427d1e84f3dd0314c0f7b2291e5b200ac8c7c3b92560405160405180910390a45b505b836004600085815260200190815260200160002060006101000a81548173ffffffffffffffffffffffffffffffffffffffff021916908373ffffffffffffffffffffffffffffffffffffffff16021790555050505050565b611ea2838383612029565b611f5657600073ffffffffffffffffffffffffffffffffffffffff168373ffffffffffffffffffffffffffffffffffffffff1603611f1757806040517f7e273289000000000000000000000000000000000000000000000000000000008152600401611f0e919061259f565b60405180910390fd5b81816040517f177e802f000000000000000000000000000000000000000000000000000000008152600401611f4d92919061322e565b60405180910390fd5b505050565b606060006001611f6a846120ea565b01905060008167ffffffffffffffff811115611f8957611f88612644565b5b6040519080825280601f01601f191660200182016040528015611fbb5781602001600182028036833780820191505090505b509050600082602001820190505b60011561201e578080600190039150507f3031323334353637383961626364656600000000000000000000000000000000600a86061a8153600a858161201257612011613257565b5b04945060008503611fc9575b819350505050919050565b60008073ffffffffffffffffffffffffffffffffffffffff168373ffffffffffffffffffffffffffffffffffffffff16141580156120e157508273ffffffffffffffffffffffffffffffffffffffff168473ffffffffffffffffffffffffffffffffffffffff1614806120a257506120a1848461115a565b5b806120e057508273ffffffffffffffffffffffffffffffffffffffff166120c883611358565b73ffffffffffffffffffffffffffffffffffffffff16145b5b90509392505050565b600080600090507a184f03e93ff9f4daa797ed6e38ed64bf6a1f0100000000000000008310612148577a184f03e93ff9f4daa797ed6e38ed64bf6a1f010000000000000000838161213e5761213d613257565b5b0492506040810190505b6d04ee2d6d415b85acef81000000008310612185576d04ee2d6d415b85acef8100000000838161217b5761217a613257565b5b0492506020810190505b662386f26fc1000083106121b457662386f26fc1000083816121aa576121a9613257565b5b0492506010810190505b6305f5e10083106121dd576305f5e10083816121d3576121d2613257565b5b0492506008810190505b61271083106122025761271083816121f8576121f7613257565b5b0492506004810190505b60648310612225576064838161221b5761221a613257565b5b0492506002810190505b600a8310612234576001810190505b80915050919050565b8280548282559060005260206000209081019282156122b6579160200282015b828111156122b55782518260006101000a81548173ffffffffffffffffffffffffffffffffffffffff021916908373ffffffffffffffffffffffffffffffffffffffff1602179055509160200191906001019061225d565b5b5090506122c391906122c7565b5090565b5b808211156122e05760008160009055506001016122c8565b5090565b6000604051905090565b600080fd5b600080fd5b60007fffffffff0000000000000000000000000000000000000000000000000000000082169050919050565b61232d816122f8565b811461233857600080fd5b50565b60008135905061234a81612324565b92915050565b600060208284031215612366576123656122ee565b5b60006123748482850161233b565b91505092915050565b60008115159050919050565b6123928161237d565b82525050565b60006020820190506123ad6000830184612389565b92915050565b600081519050919050565b600082825260208201905092915050565b60005b838110156123ed5780820151818401526020810190506123d2565b60008484015250505050565b6000601f19601f8301169050919050565b6000612415826123b3565b61241f81856123be565b935061242f8185602086016123cf565b612438816123f9565b840191505092915050565b6000602082019050818103600083015261245d818461240a565b905092915050565b6000819050919050565b61247881612465565b811461248357600080fd5b50565b6000813590506124958161246f565b92915050565b6000602082840312156124b1576124b06122ee565b5b60006124bf84828501612486565b91505092915050565b600073ffffffffffffffffffffffffffffffffffffffff82169050919050565b60006124f3826124c8565b9050919050565b612503816124e8565b82525050565b600060208201905061251e60008301846124fa565b92915050565b61252d816124e8565b811461253857600080fd5b50565b60008135905061254a81612524565b92915050565b60008060408385031215612567576125666122ee565b5b60006125758582860161253b565b925050602061258685828601612486565b9150509250929050565b61259981612465565b82525050565b60006020820190506125b46000830184612590565b92915050565b6000806000606084860312156125d3576125d26122ee565b5b60006125e18682870161253b565b93505060206125f28682870161253b565b925050604061260386828701612486565b9150509250925092565b600060208284031215612623576126226122ee565b5b60006126318482850161253b565b91505092915050565b600080fd5b600080fd5b7f4e487b7100000000000000000000000000000000000000000000000000000000600052604160045260246000fd5b61267c826123f9565b810181811067ffffffffffffffff8211171561269b5761269a612644565b5b80604052505050565b60006126ae6122e4565b90506126ba8282612673565b919050565b600067ffffffffffffffff8211156126da576126d9612644565b5b6126e3826123f9565b9050602081019050919050565b82818337600083830152505050565b600061271261270d846126bf565b6126a4565b90508281526020810184848401111561272e5761272d61263f565b5b6127398482856126f0565b509392505050565b600082601f8301126127565761275561263a565b5b81356127668482602086016126ff565b91505092915050565b600080600060608486031215612788576127876122ee565b5b600084013567ffffffffffffffff8111156127a6576127a56122f3565b5b6127b286828701612741565b93505060206127c386828701612486565b925050604084013567ffffffffffffffff8111156127e4576127e36122f3565b5b6127f086828701612741565b9150509250925092565b6128038161237d565b811461280e57600080fd5b50565b600081359050612820816127fa565b92915050565b6000806040838503121561283d5761283c6122ee565b5b600061284b8582860161253b565b925050602061285c85828601612811565b9150509250929050565b600060c0820190508181036000830152612880818961240a565b905061288f6020830188612590565b81810360408301526128a1818761240a565b90506128b06060830186612590565b6128bd6080830185612590565b6128ca60a0830184612389565b979650505050505050565b600081519050919050565b600082825260208201905092915050565b6000819050602082019050919050565b61290a81612465565b82525050565b600061291c8383612901565b60208301905092915050565b6000602082019050919050565b6000612940826128d5565b61294a81856128e0565b9350612955836128f1565b8060005b8381101561298657815161296d8882612910565b975061297883612928565b925050600181019050612959565b5085935050505092915050565b600060208201905081810360008301526129ad8184612935565b905092915050565b600067ffffffffffffffff8211156129d0576129cf612644565b5b6129d9826123f9565b9050602081019050919050565b60006129f96129f4846129b5565b6126a4565b905082815260208101848484011115612a1557612a1461263f565b5b612a208482856126f0565b509392505050565b600082601f830112612a3d57612a3c61263a565b5b8135612a4d8482602086016129e6565b91505092915050565b60008060008060808587031215612a7057612a6f6122ee565b5b6000612a7e8782880161253b565b9450506020612a8f8782880161253b565b9350506040612aa087828801612486565b925050606085013567ffffffffffffffff811115612ac157612ac06122f3565b5b612acd87828801612a28565b91505092959194509250565b60008060408385031215612af057612aef6122ee565b5b6000612afe8582860161253b565b9250506020612b0f8582860161253b565b9150509250929050565b7f4e487b7100000000000000000000000000000000000000000000000000000000600052602260045260246000fd5b60006002820490506001821680612b6057607f821691505b602082108103612b7357612b72612b19565b5b50919050565b7f486f757365206e6f7420617661696c61626c6520666f722073616c6500000000600082015250565b6000612baf601c836123be565b9150612bba82612b79565b602082019050919050565b60006020820190508181036000830152612bde81612ba2565b9050919050565b6000606082019050612bfa60008301866124fa565b612c0760208301856124fa565b612c146040830184612590565b949350505050565b600081519050612c2b816127fa565b92915050565b600060208284031215612c4757612c466122ee565b5b6000612c5584828501612c1c565b91505092915050565b7f5061796d656e74206661696c6564000000000000000000000000000000000000600082015250565b6000612c94600e836123be565b9150612c9f82612c5e565b602082019050919050565b60006020820190508181036000830152612cc381612c87565b9050919050565b6000606082019050612cdf60008301866124fa565b612cec6020830185612590565b612cf960408301846124fa565b949350505050565b7f4f6e6c7920746865206d756e69636970616c6974792063616e206d696e74206860008201527f6f75736573000000000000000000000000000000000000000000000000000000602082015250565b6000612d5d6025836123be565b9150612d6882612d01565b604082019050919050565b60006020820190508181036000830152612d8c81612d50565b9050919050565b7f4e487b7100000000000000000000000000000000000000000000000000000000600052601160045260246000fd5b6000612dcd82612465565b9150612dd883612465565b9250828201905080821115612df057612def612d93565b5b92915050565b60008190508160005260206000209050919050565b60006020601f8301049050919050565b600082821b905092915050565b600060088302612e587fffffffffffffffffffffffffffffffffffffffffffffffffffffffffffffffff82612e1b565b612e628683612e1b565b95508019841693508086168417925050509392505050565b6000819050919050565b6000612e9f612e9a612e9584612465565b612e7a565b612465565b9050919050565b6000819050919050565b612eb983612e84565b612ecd612ec582612ea6565b848454612e28565b825550505050565b600090565b612ee2612ed5565b612eed818484612eb0565b505050565b5b81811015612f1157612f06600082612eda565b600181019050612ef3565b5050565b601f821115612f5657612f2781612df6565b612f3084612e0b565b81016020851015612f3f578190505b612f53612f4b85612e0b565b830182612ef2565b50505b505050565b600082821c905092915050565b6000612f7960001984600802612f5b565b1980831691505092915050565b6000612f928383612f68565b9150826002028217905092915050565b612fab826123b3565b67ffffffffffffffff811115612fc457612fc3612644565b5b612fce8254612b48565b612fd9828285612f15565b600060209050601f83116001811461300c5760008415612ffa578287015190505b6130048582612f86565b86555061306c565b601f19841661301a86612df6565b60005b828110156130425784890151825560018201915060208501945060208101905061301d565b8683101561305f578489015161305b601f891682612f68565b8355505b6001600288020188555050505b505050505050565b7f4e487b7100000000000000000000000000000000000000000000000000000000600052603260045260246000fd5b60006130ae82612465565b91507fffffffffffffffffffffffffffffffffffffffffffffffffffffffffffffffff82036130e0576130df612d93565b5b600182019050919050565b600081905092915050565b6000613101826123b3565b61310b81856130eb565b935061311b8185602086016123cf565b80840191505092915050565b600061313382856130f6565b915061313f82846130f6565b91508190509392505050565b600081519050919050565b600082825260208201905092915050565b60006131728261314b565b61317c8185613156565b935061318c8185602086016123cf565b613195816123f9565b840191505092915050565b60006080820190506131b560008301876124fa565b6131c260208301866124fa565b6131cf6040830185612590565b81810360608301526131e18184613167565b905095945050505050565b6000815190506131fb81612324565b92915050565b600060208284031215613217576132166122ee565b5b6000613225848285016131ec565b91505092915050565b600060408201905061324360008301856124fa565b6132506020830184612590565b9392505050565b7f4e487b7100000000000000000000000000000000000000000000000000000000600052601260045260246000fdfea2646970667358221220f1cc5e109d1ca43656b5b55d9eabd8bf1fbec404c6896e6fe6c629d22ddf61b064736f6c634300081c0033",
  "linkReferences": {},
  "deployedLinkReferences": {}
}