{
  "_format": "hh-sol-artifact-1",
  "contractName": "ResourceToken",
  "sourceName": "contracts/RessourceToken.sol",
  "abi": [
    {
      "inputs": [
        {
          "internalType": "address",
          "name": "paymentTokenAddress",
          "type": "address"
        }
      ],
      "stateMutability": "nonpayable",
      "type": "constructor"
    },
    {
      "inputs": [
        {
          "internalType": "address",
          "name": "sender",
          "type": "address"
        },
        {
          "internalType": "uint256",
          "name": "tokenId",
          "type": "uint256"
        },
        {
          "internalType": "address",
          "name": "owner",
          "type": "address"
        }
      ],
      "name": "ERC721IncorrectOwner",
      "type": "error"
    },
    {
      "inputs": [
        {
          "internalType": "address",
          "name": "operator",
          "type": "address"
        },
        {
          "internalType": "uint256",
          "name": "tokenId",
          "type": "uint256"
        }
      ],
      "name": "ERC721InsufficientApproval",
      "type": "error"
    },
    {
      "inputs": [
        {
          "internalType": "address",
          "name": "approver",
          "type": "address"
        }
      ],
      "name": "ERC721InvalidApprover",
      "type": "error"
    },
    {
      "inputs": [
        {
          "internalType": "address",
          "name": "operator",
          "type": "address"
        }
      ],
      "name": "ERC721InvalidOperator",
      "type": "error"
    },
    {
      "inputs": [
        {
          "internalType": "address",
          "name": "owner",
          "type": "address"
        }
      ],
      "name": "ERC721InvalidOwner",
      "type": "error"
    },
    {
      "inputs": [
        {
          "internalType": "address",
          "name": "receiver",
          "type": "address"
        }
      ],
      "name": "ERC721InvalidReceiver",
      "type": "error"
    },
    {
      "inputs": [
        {
          "internalType": "address",
          "name": "sender",
          "type": "address"
        }
      ],
      "name": "ERC721InvalidSender",
      "type": "error"
    },
    {
      "inputs": [
        {
          "internalType": "uint256",
          "name": "tokenId",
          "type": "uint256"
        }
      ],
      "name": "ERC721NonexistentToken",
      "type": "error"
    },
    {
      "anonymous": false,
      "inputs": [
        {
          "indexed": true,
          "internalType": "address",
          "name": "owner",
          "type": "address"
        },
        {
          "indexed": true,
          "internalType": "address",
          "name": "approved",
          "type": "address"
        },
        {
          "indexed": true,
          "internalType": "uint256",
          "name": "tokenId",
          "type": "uint256"
        }
      ],
      "name": "Approval",
      "type": "event"
    },
    {
      "anonymous": false,
      "inputs": [
        {
          "indexed": true,
          "internalType": "address",
          "name": "owner",
          "type": "address"
        },
        {
          "indexed": true,
          "internalType": "address",
          "name": "operator",
          "type": "address"
        },
        {
          "indexed": false,
          "internalType": "bool",
          "name": "approved",
          "type": "bool"
        }
      ],
      "name": "ApprovalForAll",
      "type": "event"
    },
    {
      "anonymous": false,
      "inputs": [
        {
          "indexed": false,
          "internalType": "uint256",
          "name": "_fromTokenId",
          "type": "uint256"
        },
        {
          "indexed": false,
          "internalType": "uint256",
          "name": "_toTokenId",
          "type": "uint256"
        }
      ],
      "name": "BatchMetadataUpdate",
      "type": "event"
    },
    {
      "anonymous": false,
      "inputs": [
        {
          "indexed": true,
          "internalType": "uint256",
          "name": "tokenId",
          "type": "uint256"
        },
        {
          "indexed": false,
          "internalType": "uint256",
          "name": "value",
          "type": "uint256"
        }
      ],
      "name": "HouseListed",
      "type": "event"
    },
    {
      "anonymous": false,
      "inputs": [
        {
          "indexed": true,
          "internalType": "uint256",
          "name": "tokenId",
          "type": "uint256"
        },
        {
          "indexed": true,
          "internalType": "address",
          "name": "owner",
          "type": "address"
        },
        {
          "indexed": false,
          "internalType": "string",
          "name": "name",
          "type": "string"
        },
        {
          "indexed": false,
          "internalType": "enum ResourceToken.ResourceType",
          "name": "resourceType",
          "type": "uint8"
        },
        {
          "indexed": false,
          "internalType": "uint256",
          "name": "value",
          "type": "uint256"
        },
        {
          "indexed": false,
          "internalType": "string",
          "name": "ipfsHash",
          "type": "string"
        }
      ],
      "name": "HouseMinted",
      "type": "event"
    },
    {
      "anonymous": false,
      "inputs": [
        {
          "indexed": true,
          "internalType": "uint256",
          "name": "tokenId",
          "type": "uint256"
        },
        {
          "indexed": true,
          "internalType": "address",
          "name": "buyer",
          "type": "address"
        },
        {
          "indexed": false,
          "internalType": "uint256",
          "name": "value",
          "type": "uint256"
        }
      ],
      "name": "HousePurchased",
      "type": "event"
    },
    {
      "anonymous": false,
      "inputs": [
        {
          "indexed": false,
          "internalType": "uint256",
          "name": "_tokenId",
          "type": "uint256"
        }
      ],
      "name": "MetadataUpdate",
      "type": "event"
    },
    {
      "anonymous": false,
      "inputs": [
        {
          "indexed": true,
          "internalType": "address",
          "name": "from",
          "type": "address"
        },
        {
          "indexed": true,
          "internalType": "address",
          "name": "to",
          "type": "address"
        },
        {
          "indexed": true,
          "internalType": "uint256",
          "name": "tokenId",
          "type": "uint256"
        }
      ],
      "name": "Transfer",
      "type": "event"
    },
    {
      "inputs": [
        {
          "internalType": "address",
          "name": "to",
          "type": "address"
        },
        {
          "internalType": "uint256",
          "name": "tokenId",
          "type": "uint256"
        }
      ],
      "name": "approve",
      "outputs": [],
      "stateMutability": "nonpayable",
      "type": "function"
    },
    {
      "inputs": [
        {
          "internalType": "address",
          "name": "owner",
          "type": "address"
        }
      ],
      "name": "balanceOf",
      "outputs": [
        {
          "internalType": "uint256",
          "name": "",
          "type": "uint256"
        }
      ],
      "stateMutability": "view",
      "type": "function"
    },
    {
      "inputs": [
        {
          "internalType": "uint256",
          "name": "tokenId",
          "type": "uint256"
        }
      ],
      "name": "getApproved",
      "outputs": [
        {
          "internalType": "address",
          "name": "",
          "type": "address"
        }
      ],
      "stateMutability": "view",
      "type": "function"
    },
    {
      "inputs": [],
      "name": "getAvailableHouses",
      "outputs": [
        {
          "internalType": "uint256[]",
          "name": "",
          "type": "uint256[]"
        }
      ],
      "stateMutability": "view",
      "type": "function"
    },
    {
      "inputs": [
        {
          "internalType": "uint256",
          "name": "tokenId",
          "type": "uint256"
        }
      ],
      "name": "getHouse",
      "outputs": [
        {
          "internalType": "string",
          "name": "name",
          "type": "string"
        },
        {
          "internalType": "string",
          "name": "resourceType",
          "type": "string"
        },
        {
          "internalType": "uint256",
          "name": "value",
          "type": "uint256"
        },
        {
          "internalType": "string",
          "name": "ipfsHash",
          "type": "string"
        },
        {
          "internalType": "uint256",
          "name": "createdAt",
          "type": "uint256"
        },
        {
          "internalType": "uint256",
          "name": "lastTransferAt",
          "type": "uint256"
        },
        {
          "internalType": "bool",
          "name": "available",
          "type": "bool"
        }
      ],
      "stateMutability": "view",
      "type": "function"
    },
    {
      "inputs": [],
      "name": "getMyHouses",
      "outputs": [
        {
          "internalType": "uint256[]",
          "name": "",
          "type": "uint256[]"
        }
      ],
      "stateMutability": "view",
      "type": "function"
    },
    {
      "inputs": [],
      "name": "getResourceTypes",
      "outputs": [
        {
          "internalType": "string[]",
          "name": "",
          "type": "string[]"
        }
      ],
      "stateMutability": "pure",
      "type": "function"
    },
    {
      "inputs": [
        {
          "internalType": "uint256",
          "name": "",
          "type": "uint256"
        }
      ],
      "name": "houses",
      "outputs": [
        {
          "internalType": "string",
          "name": "name",
          "type": "string"
        },
        {
          "internalType": "enum ResourceToken.ResourceType",
          "name": "resourceType",
          "type": "uint8"
        },
        {
          "internalType": "uint256",
          "name": "value",
          "type": "uint256"
        },
        {
          "internalType": "string",
          "name": "ipfsHash",
          "type": "string"
        },
        {
          "internalType": "uint256",
          "name": "createdAt",
          "type": "uint256"
        },
        {
          "internalType": "uint256",
          "name": "lastTransferAt",
          "type": "uint256"
        },
        {
          "internalType": "bool",
          "name": "available",
          "type": "bool"
        }
      ],
      "stateMutability": "view",
      "type": "function"
    },
    {
      "inputs": [
        {
          "internalType": "address",
          "name": "owner",
          "type": "address"
        },
        {
          "internalType": "address",
          "name": "operator",
          "type": "address"
        }
      ],
      "name": "isApprovedForAll",
      "outputs": [
        {
          "internalType": "bool",
          "name": "",
          "type": "bool"
        }
      ],
      "stateMutability": "view",
      "type": "function"
    },
    {
      "inputs": [
        {
          "internalType": "address",
          "name": "",
          "type": "address"
        }
      ],
      "name": "lastTransactionTime",
      "outputs": [
        {
          "internalType": "uint256",
          "name": "",
          "type": "uint256"
        }
      ],
      "stateMutability": "view",
      "type": "function"
    },
    {
      "inputs": [
        {
          "internalType": "uint256",
          "name": "tokenId",
          "type": "uint256"
        },
        {
          "internalType": "uint256",
          "name": "value",
          "type": "uint256"
        },
        {
          "internalType": "enum ResourceToken.ResourceType",
          "name": "resourceType",
          "type": "uint8"
        }
      ],
      "name": "listHouseForSale",
      "outputs": [],
      "stateMutability": "nonpayable",
      "type": "function"
    },
    {
      "inputs": [],
      "name": "maxOwnership",
      "outputs": [
        {
          "internalType": "uint256",
          "name": "",
          "type": "uint256"
        }
      ],
      "stateMutability": "view",
      "type": "function"
    },
    {
      "inputs": [
        {
          "internalType": "string",
          "name": "name",
          "type": "string"
        },
        {
          "internalType": "enum ResourceToken.ResourceType",
          "name": "resourceType",
          "type": "uint8"
        },
        {
          "internalType": "uint256",
          "name": "value",
          "type": "uint256"
        },
        {
          "internalType": "string",
          "name": "ipfsHash",
          "type": "string"
        }
      ],
      "name": "mintHouse",
      "outputs": [
        {
          "internalType": "uint256",
          "name": "",
          "type": "uint256"
        }
      ],
      "stateMutability": "nonpayable",
      "type": "function"
    },
    {
      "inputs": [],
      "name": "name",
      "outputs": [
        {
          "internalType": "string",
          "name": "",
          "type": "string"
        }
      ],
      "stateMutability": "view",
      "type": "function"
    },
    {
      "inputs": [
        {
          "internalType": "uint256",
          "name": "tokenId",
          "type": "uint256"
        }
      ],
      "name": "ownerOf",
      "outputs": [
        {
          "internalType": "address",
          "name": "",
          "type": "address"
        }
      ],
      "stateMutability": "view",
      "type": "function"
    },
    {
      "inputs": [
        {
          "internalType": "uint256",
          "name": "tokenId",
          "type": "uint256"
        }
      ],
      "name": "purchaseHouse",
      "outputs": [],
      "stateMutability": "nonpayable",
      "type": "function"
    },
    {
      "inputs": [
        {
          "internalType": "address",
          "name": "from",
          "type": "address"
        },
        {
          "internalType": "address",
          "name": "to",
          "type": "address"
        },
        {
          "internalType": "uint256",
          "name": "tokenId",
          "type": "uint256"
        }
      ],
      "name": "safeTransferFrom",
      "outputs": [],
      "stateMutability": "nonpayable",
      "type": "function"
    },
    {
      "inputs": [
        {
          "internalType": "address",
          "name": "from",
          "type": "address"
        },
        {
          "internalType": "address",
          "name": "to",
          "type": "address"
        },
        {
          "internalType": "uint256",
          "name": "tokenId",
          "type": "uint256"
        },
        {
          "internalType": "bytes",
          "name": "data",
          "type": "bytes"
        }
      ],
      "name": "safeTransferFrom",
      "outputs": [],
      "stateMutability": "nonpayable",
      "type": "function"
    },
    {
      "inputs": [
        {
          "internalType": "address",
          "name": "operator",
          "type": "address"
        },
        {
          "internalType": "bool",
          "name": "approved",
          "type": "bool"
        }
      ],
      "name": "setApprovalForAll",
      "outputs": [],
      "stateMutability": "nonpayable",
      "type": "function"
    },
    {
      "inputs": [
        {
          "internalType": "bytes4",
          "name": "interfaceId",
          "type": "bytes4"
        }
      ],
      "name": "supportsInterface",
      "outputs": [
        {
          "internalType": "bool",
          "name": "",
          "type": "bool"
        }
      ],
      "stateMutability": "view",
      "type": "function"
    },
    {
      "inputs": [],
      "name": "symbol",
      "outputs": [
        {
          "internalType": "string",
          "name": "",
          "type": "string"
        }
      ],
      "stateMutability": "view",
      "type": "function"
    },
    {
      "inputs": [
        {
          "internalType": "uint256",
          "name": "tokenId",
          "type": "uint256"
        }
      ],
      "name": "tokenURI",
      "outputs": [
        {
          "internalType": "string",
          "name": "",
          "type": "string"
        }
      ],
      "stateMutability": "view",
      "type": "function"
    },
    {
      "inputs": [],
      "name": "transactionCooldown",
      "outputs": [
        {
          "internalType": "uint256",
          "name": "",
          "type": "uint256"
        }
      ],
      "stateMutability": "view",
      "type": "function"
    },
    {
      "inputs": [
        {
          "internalType": "address",
          "name": "from",
          "type": "address"
        },
        {
          "internalType": "address",
          "name": "to",
          "type": "address"
        },
        {
          "internalType": "uint256",
          "name": "tokenId",
          "type": "uint256"
        }
      ],
      "name": "transferFrom",
      "outputs": [],
      "stateMutability": "nonpayable",
      "type": "function"
    }
  ],
  "bytecode": "0x6080604052600460095561012c600a5534801561001b57600080fd5b5060405161455e38038061455e833981810160405281019061003d919061017d565b6040518060400160405280600d81526020017f5265736f75726365546f6b656e000000000000000000000000000000000000008152506040518060400160405280600381526020017f52544b000000000000000000000000000000000000000000000000000000000081525081600090816100b891906103fa565b5080600190816100c891906103fa565b505050600060078190555080600860006101000a81548173ffffffffffffffffffffffffffffffffffffffff021916908373ffffffffffffffffffffffffffffffffffffffff160217905550506104cc565b600080fd5b600073ffffffffffffffffffffffffffffffffffffffff82169050919050565b600061014a8261011f565b9050919050565b61015a8161013f565b811461016557600080fd5b50565b60008151905061017781610151565b92915050565b6000602082840312156101935761019261011a565b5b60006101a184828501610168565b91505092915050565b600081519050919050565b7f4e487b7100000000000000000000000000000000000000000000000000000000600052604160045260246000fd5b7f4e487b7100000000000000000000000000000000000000000000000000000000600052602260045260246000fd5b6000600282049050600182168061022b57607f821691505b60208210810361023e5761023d6101e4565b5b50919050565b60008190508160005260206000209050919050565b60006020601f8301049050919050565b600082821b905092915050565b6000600883026102a67fffffffffffffffffffffffffffffffffffffffffffffffffffffffffffffffff82610269565b6102b08683610269565b95508019841693508086168417925050509392505050565b6000819050919050565b6000819050919050565b60006102f76102f26102ed846102c8565b6102d2565b6102c8565b9050919050565b6000819050919050565b610311836102dc565b61032561031d826102fe565b848454610276565b825550505050565b600090565b61033a61032d565b610345818484610308565b505050565b5b818110156103695761035e600082610332565b60018101905061034b565b5050565b601f8211156103ae5761037f81610244565b61038884610259565b81016020851015610397578190505b6103ab6103a385610259565b83018261034a565b50505b505050565b600082821c905092915050565b60006103d1600019846008026103b3565b1980831691505092915050565b60006103ea83836103c0565b9150826002028217905092915050565b610403826101aa565b67ffffffffffffffff81111561041c5761041b6101b5565b5b6104268254610213565b61043182828561036d565b600060209050601f8311600181146104645760008415610452578287015190505b61045c85826103de565b8655506104c4565b601f19841661047286610244565b60005b8281101561049a57848901518255600182019150602085019450602081019050610475565b868310156104b757848901516104b3601f8916826103c0565b8355505b6001600288020188555050505b505050505050565b614083806104db6000396000f3fe608060405234801561001057600080fd5b50600436106101585760003560e01c806370a08231116100c3578063b14f1afd1161007c578063b14f1afd146103f7578063b88d4fde14610415578063c87b56dd14610431578063d3691b0014610461578063e75b20731461047f578063e985e9c5146104af57610158565b806370a08231146103095780637e68384514610339578063923dcb8b1461036957806395d89b4114610387578063a22cb465146103a5578063aeda852f146103c157610158565b80632a6ceeab116101155780632a6ceeab1461022f5780633107c99d1461024b578063395a221e1461028157806342842e0e1461029f5780636352211e146102bb57806365fda1f7146102eb57610158565b806301ffc9a71461015d57806306fdde031461018d578063081812fc146101ab578063095ea7b3146101db5780631775b534146101f757806323b872dd14610213575b600080fd5b61017760048036038101906101729190612c0b565b6104df565b6040516101849190612c53565b60405180910390f35b610195610540565b6040516101a29190612cfe565b60405180910390f35b6101c560048036038101906101c09190612d56565b6105d2565b6040516101d29190612dc4565b60405180910390f35b6101f560048036038101906101f09190612e0b565b6105ee565b005b610211600480360381019061020c9190612d56565b610604565b005b61022d60048036038101906102289190612e4b565b6109c7565b005b61024960048036038101906102449190612ec3565b610ac9565b005b61026560048036038101906102609190612d56565b610cb3565b6040516102789796959493929190612f25565b60405180910390f35b610289610e9b565b6040516102969190612fa9565b60405180910390f35b6102b960048036038101906102b49190612e4b565b610ea1565b005b6102d560048036038101906102d09190612d56565b610ec1565b6040516102e29190612dc4565b60405180910390f35b6102f3610ed3565b6040516103009190612fa9565b60405180910390f35b610323600480360381019061031e9190612fc4565b610ed9565b6040516103309190612fa9565b60405180910390f35b610353600480360381019061034e9190613126565b610f93565b6040516103609190612fa9565b60405180910390f35b6103716111dc565b60405161037e91906132d1565b60405180910390f35b61038f611337565b60405161039c9190612cfe565b60405180910390f35b6103bf60048036038101906103ba919061331f565b6113c9565b005b6103db60048036038101906103d69190612d56565b6113df565b6040516103ee97969594939291906133d6565b60405180910390f35b6103ff61154b565b60405161040c9190613511565b60405180910390f35b61042f600480360381019061042a91906135d4565b61163f565b005b61044b60048036038101906104469190612d56565b611664565b6040516104589190612cfe565b60405180910390f35b610469611777565b6040516104769190613511565b60405180910390f35b61049960048036038101906104949190612fc4565b6118a9565b6040516104a69190612fa9565b60405180910390f35b6104c960048036038101906104c49190613657565b6118c1565b6040516104d69190612c53565b60405180910390f35b6000634906490660e01b7bffffffffffffffffffffffffffffffffffffffffffffffffffffffff1916827bffffffffffffffffffffffffffffffffffffffffffffffffffffffff19161480610539575061053882611955565b5b9050919050565b60606000805461054f906136c6565b80601f016020809104026020016040519081016040528092919081815260200182805461057b906136c6565b80156105c85780601f1061059d576101008083540402835291602001916105c8565b820191906000526020600020905b8154815290600101906020018083116105ab57829003601f168201915b5050505050905090565b60006105dd82611a37565b506105e782611abf565b9050919050565b61060082826105fb611afc565b611b04565b5050565b600b600082815260200190815260200160002060070160009054906101000a900460ff16610667576040517f08c379a000000000000000000000000000000000000000000000000000000000815260040161065e90613743565b60405180910390fd5b600860009054906101000a900473ffffffffffffffffffffffffffffffffffffffff1673ffffffffffffffffffffffffffffffffffffffff166323b872dd336106af84610ec1565b600b6000868152602001908152602001600020600201546040518463ffffffff1660e01b81526004016106e493929190613763565b6020604051808303816000875af1158015610703573d6000803e3d6000fd5b505050506040513d601f19601f8201168201806040525081019061072791906137af565b610766576040517f08c379a000000000000000000000000000000000000000000000000000000000815260040161075d90613828565b60405180910390fd5b60095461077233610ed9565b106107b2576040517f08c379a00000000000000000000000000000000000000000000000000000000081526004016107a990613894565b60405180910390fd5b600a54600c60003373ffffffffffffffffffffffffffffffffffffffff1673ffffffffffffffffffffffffffffffffffffffff168152602001908152602001600020546107ff91906138e3565b421015610841576040517f08c379a000000000000000000000000000000000000000000000000000000000815260040161083890613963565b60405180910390fd5b600061084c82610ec1565b9050610859813384611b16565b600b6000838152602001908152602001600020600401819080600181540180825580915050600190039060005260206000200160009091909190916101000a81548173ffffffffffffffffffffffffffffffffffffffff021916908373ffffffffffffffffffffffffffffffffffffffff16021790555042600b6000848152602001908152602001600020600601819055506000600b600084815260200190815260200160002060070160006101000a81548160ff02191690831515021790555042600c60003373ffffffffffffffffffffffffffffffffffffffff1673ffffffffffffffffffffffffffffffffffffffff168152602001908152602001600020819055503373ffffffffffffffffffffffffffffffffffffffff16827f2ad8a3868f4623be3d61a829e19c896cdf5d7a0c71e4341b4bc1a92e093b5469600b6000868152602001908152602001600020600201546040516109bb9190612fa9565b60405180910390a35050565b600073ffffffffffffffffffffffffffffffffffffffff168273ffffffffffffffffffffffffffffffffffffffff1603610a395760006040517f64a0ae92000000000000000000000000000000000000000000000000000000008152600401610a309190612dc4565b60405180910390fd5b6000610a4d8383610a48611afc565b611c83565b90508373ffffffffffffffffffffffffffffffffffffffff168173ffffffffffffffffffffffffffffffffffffffff1614610ac3578382826040517f64283d7b000000000000000000000000000000000000000000000000000000008152600401610aba93929190613983565b60405180910390fd5b50505050565b3373ffffffffffffffffffffffffffffffffffffffff16610ae984610ec1565b73ffffffffffffffffffffffffffffffffffffffff1614610b3f576040517f08c379a0000000000000000000000000000000000000000000000000000000008152600401610b3690613a06565b60405180910390fd5b600b600084815260200190815260200160002060070160009054906101000a900460ff1615610ba3576040517f08c379a0000000000000000000000000000000000000000000000000000000008152600401610b9a90613a72565b60405180910390fd5b806002811115610bb657610bb561335f565b5b600b600085815260200190815260200160002060010160009054906101000a900460ff166002811115610bec57610beb61335f565b5b14610c2c576040517f08c379a0000000000000000000000000000000000000000000000000000000008152600401610c2390613ade565b60405180910390fd5b81600b6000858152602001908152602001600020600201819055506001600b600085815260200190815260200160002060070160006101000a81548160ff021916908315150217905550827f3f6ac9180cf2abdb472ec4d379a6654a5253af404f295f2e027f63b39c88b3c983604051610ca69190612fa9565b60405180910390a2505050565b6060806000606060008060008088118015610cd057506007548811155b610d0f576040517f08c379a0000000000000000000000000000000000000000000000000000000008152600401610d0690613b4a565b60405180910390fd5b6000600b60008a8152602001908152602001600020905080600001610d448260010160009054906101000a900460ff16611e9d565b826002015483600301846005015485600601548660070160009054906101000a900460ff16868054610d75906136c6565b80601f0160208091040260200160405190810160405280929190818152602001828054610da1906136c6565b8015610dee5780601f10610dc357610100808354040283529160200191610dee565b820191906000526020600020905b815481529060010190602001808311610dd157829003601f168201915b50505050509650838054610e01906136c6565b80601f0160208091040260200160405190810160405280929190818152602001828054610e2d906136c6565b8015610e7a5780601f10610e4f57610100808354040283529160200191610e7a565b820191906000526020600020905b815481529060010190602001808311610e5d57829003601f168201915b50505050509350975097509750975097509750975050919395979092949650565b60095481565b610ebc8383836040518060200160405280600081525061163f565b505050565b6000610ecc82611a37565b9050919050565b600a5481565b60008073ffffffffffffffffffffffffffffffffffffffff168273ffffffffffffffffffffffffffffffffffffffff1603610f4c5760006040517f89c62b64000000000000000000000000000000000000000000000000000000008152600401610f439190612dc4565b60405180910390fd5b600360008373ffffffffffffffffffffffffffffffffffffffff1673ffffffffffffffffffffffffffffffffffffffff168152602001908152602001600020549050919050565b6000600954610fa133610ed9565b10610fe1576040517f08c379a0000000000000000000000000000000000000000000000000000000008152600401610fd890613894565b60405180910390fd5b600160076000828254610ff491906138e3565b925050819055506000600754905061100c3382611ff1565b61101681846120ea565b60405180610100016040528087815260200186600281111561103b5761103a61335f565b5b8152602001858152602001848152602001600067ffffffffffffffff81111561106757611066612ffb565b5b6040519080825280602002602001820160405280156110955781602001602082028036833780820191505090505b50815260200142815260200142815260200160011515815250600b600083815260200190815260200160002060008201518160000190816110d69190613d16565b5060208201518160010160006101000a81548160ff021916908360028111156111025761110161335f565b5b02179055506040820151816002015560608201518160030190816111269190613d16565b506080820151816004019080519060200190611143929190612af8565b5060a0820151816005015560c0820151816006015560e08201518160070160006101000a81548160ff0219169083151502179055509050503373ffffffffffffffffffffffffffffffffffffffff16817fbbee3cf746bddac78ee7bce599c3345323fbade680a8ba314f7374126f6ca812888888886040516111c89493929190613de8565b60405180910390a380915050949350505050565b60606000600367ffffffffffffffff8111156111fb576111fa612ffb565b5b60405190808252806020026020018201604052801561122e57816020015b60608152602001906001900390816112195790505b5090506040518060400160405280600681526020017f4d4149534f4e00000000000000000000000000000000000000000000000000008152508160008151811061127b5761127a613e3b565b5b60200260200101819052506040518060400160405280600581526020017f56494c4c41000000000000000000000000000000000000000000000000000000815250816001815181106112d0576112cf613e3b565b5b60200260200101819052506040518060400160405280600581526020017f484f54454c0000000000000000000000000000000000000000000000000000008152508160028151811061132557611324613e3b565b5b60200260200101819052508091505090565b606060018054611346906136c6565b80601f0160208091040260200160405190810160405280929190818152602001828054611372906136c6565b80156113bf5780601f10611394576101008083540402835291602001916113bf565b820191906000526020600020905b8154815290600101906020018083116113a257829003601f168201915b5050505050905090565b6113db6113d4611afc565b8383612146565b5050565b600b602052806000526040600020600091509050806000018054611402906136c6565b80601f016020809104026020016040519081016040528092919081815260200182805461142e906136c6565b801561147b5780601f106114505761010080835404028352916020019161147b565b820191906000526020600020905b81548152906001019060200180831161145e57829003601f168201915b5050505050908060010160009054906101000a900460ff16908060020154908060030180546114a9906136c6565b80601f01602080910402602001604051908101604052809291908181526020018280546114d5906136c6565b80156115225780601f106114f757610100808354040283529160200191611522565b820191906000526020600020905b81548152906001019060200180831161150557829003601f168201915b5050505050908060050154908060060154908060070160009054906101000a900460ff16905087565b6060600061155833610ed9565b905060008167ffffffffffffffff81111561157657611575612ffb565b5b6040519080825280602002602001820160405280156115a45781602001602082028036833780820191505090505b509050600080600190505b6007548111611635573373ffffffffffffffffffffffffffffffffffffffff166115d882610ec1565b73ffffffffffffffffffffffffffffffffffffffff1603611622578083838151811061160757611606613e3b565b5b602002602001018181525050818061161e90613e6a565b9250505b808061162d90613e6a565b9150506115af565b5081935050505090565b61164a8484846109c7565b61165e611655611afc565b858585856122b5565b50505050565b606061166f82611a37565b506000600660008481526020019081526020016000208054611690906136c6565b80601f01602080910402602001604051908101604052809291908181526020018280546116bc906136c6565b80156117095780601f106116de57610100808354040283529160200191611709565b820191906000526020600020905b8154815290600101906020018083116116ec57829003601f168201915b50505050509050600061171a612466565b9050600081510361172f578192505050611772565b60008251111561176457808260405160200161174c929190613eee565b60405160208183030381529060405292505050611772565b61176d8461247d565b925050505b919050565b6060600080600190505b60075481116117d557600b600082815260200190815260200160002060070160009054906101000a900460ff16156117c25781806117be90613e6a565b9250505b80806117cd90613e6a565b915050611781565b5060008167ffffffffffffffff8111156117f2576117f1612ffb565b5b6040519080825280602002602001820160405280156118205781602001602082028036833780820191505090505b509050600080600190505b600754811161189f57600b600082815260200190815260200160002060070160009054906101000a900460ff161561188c578083838151811061187157611870613e3b565b5b602002602001018181525050818061188890613e6a565b9250505b808061189790613e6a565b91505061182b565b5081935050505090565b600c6020528060005260406000206000915090505481565b6000600560008473ffffffffffffffffffffffffffffffffffffffff1673ffffffffffffffffffffffffffffffffffffffff16815260200190815260200160002060008373ffffffffffffffffffffffffffffffffffffffff1673ffffffffffffffffffffffffffffffffffffffff16815260200190815260200160002060009054906101000a900460ff16905092915050565b60007f80ac58cd000000000000000000000000000000000000000000000000000000007bffffffffffffffffffffffffffffffffffffffffffffffffffffffff1916827bffffffffffffffffffffffffffffffffffffffffffffffffffffffff19161480611a2057507f5b5e139f000000000000000000000000000000000000000000000000000000007bffffffffffffffffffffffffffffffffffffffffffffffffffffffff1916827bffffffffffffffffffffffffffffffffffffffffffffffffffffffff1916145b80611a305750611a2f826124e6565b5b9050919050565b600080611a4383612550565b9050600073ffffffffffffffffffffffffffffffffffffffff168173ffffffffffffffffffffffffffffffffffffffff1603611ab657826040517f7e273289000000000000000000000000000000000000000000000000000000008152600401611aad9190612fa9565b60405180910390fd5b80915050919050565b60006004600083815260200190815260200160002060009054906101000a900473ffffffffffffffffffffffffffffffffffffffff169050919050565b600033905090565b611b11838383600161258d565b505050565b600073ffffffffffffffffffffffffffffffffffffffff168273ffffffffffffffffffffffffffffffffffffffff1603611b885760006040517f64a0ae92000000000000000000000000000000000000000000000000000000008152600401611b7f9190612dc4565b60405180910390fd5b6000611b9683836000611c83565b9050600073ffffffffffffffffffffffffffffffffffffffff168173ffffffffffffffffffffffffffffffffffffffff1603611c0957816040517f7e273289000000000000000000000000000000000000000000000000000000008152600401611c009190612fa9565b60405180910390fd5b8373ffffffffffffffffffffffffffffffffffffffff168173ffffffffffffffffffffffffffffffffffffffff1614611c7d578382826040517f64283d7b000000000000000000000000000000000000000000000000000000008152600401611c7493929190613983565b60405180910390fd5b50505050565b600080611c8f84612550565b9050600073ffffffffffffffffffffffffffffffffffffffff168373ffffffffffffffffffffffffffffffffffffffff1614611cd157611cd0818486612752565b5b600073ffffffffffffffffffffffffffffffffffffffff168173ffffffffffffffffffffffffffffffffffffffff1614611d6257611d1360008560008061258d565b6001600360008373ffffffffffffffffffffffffffffffffffffffff1673ffffffffffffffffffffffffffffffffffffffff168152602001908152602001600020600082825403925050819055505b600073ffffffffffffffffffffffffffffffffffffffff168573ffffffffffffffffffffffffffffffffffffffff1614611de5576001600360008773ffffffffffffffffffffffffffffffffffffffff1673ffffffffffffffffffffffffffffffffffffffff168152602001908152602001600020600082825401925050819055505b846002600086815260200190815260200160002060006101000a81548173ffffffffffffffffffffffffffffffffffffffff021916908373ffffffffffffffffffffffffffffffffffffffff160217905550838573ffffffffffffffffffffffffffffffffffffffff168273ffffffffffffffffffffffffffffffffffffffff167fddf252ad1be2c89b69c2b068fc378daa952ba7f163c4a11628f55a4df523b3ef60405160405180910390a4809150509392505050565b606060006002811115611eb357611eb261335f565b5b826002811115611ec657611ec561335f565b5b03611f08576040518060400160405280600681526020017f4d4149534f4e00000000000000000000000000000000000000000000000000008152509050611fec565b60016002811115611f1c57611f1b61335f565b5b826002811115611f2f57611f2e61335f565b5b03611f71576040518060400160405280600581526020017f56494c4c410000000000000000000000000000000000000000000000000000008152509050611fec565b600280811115611f8457611f8361335f565b5b826002811115611f9757611f9661335f565b5b03611fd9576040518060400160405280600581526020017f484f54454c0000000000000000000000000000000000000000000000000000008152509050611fec565b6040518060200160405280600081525090505b919050565b600073ffffffffffffffffffffffffffffffffffffffff168273ffffffffffffffffffffffffffffffffffffffff16036120635760006040517f64a0ae9200000000000000000000000000000000000000000000000000000000815260040161205a9190612dc4565b60405180910390fd5b600061207183836000611c83565b9050600073ffffffffffffffffffffffffffffffffffffffff168173ffffffffffffffffffffffffffffffffffffffff16146120e55760006040517f73c6ac6e0000000000000000000000000000000000000000000000000000000081526004016120dc9190612dc4565b60405180910390fd5b505050565b8060066000848152602001908152602001600020908161210a9190613d16565b507ff8e1a15aba9398e019f0b49df1a4fde98ee17ae345cb5f6b5e2c27f5033e8ce78260405161213a9190612fa9565b60405180910390a15050565b600073ffffffffffffffffffffffffffffffffffffffff168273ffffffffffffffffffffffffffffffffffffffff16036121b757816040517f5b08ba180000000000000000000000000000000000000000000000000000000081526004016121ae9190612dc4565b60405180910390fd5b80600560008573ffffffffffffffffffffffffffffffffffffffff1673ffffffffffffffffffffffffffffffffffffffff16815260200190815260200160002060008473ffffffffffffffffffffffffffffffffffffffff1673ffffffffffffffffffffffffffffffffffffffff16815260200190815260200160002060006101000a81548160ff0219169083151502179055508173ffffffffffffffffffffffffffffffffffffffff168373ffffffffffffffffffffffffffffffffffffffff167f17307eab39ab6107e8899845ad3d59bd9653f200f220920489ca2b5937696c31836040516122a89190612c53565b60405180910390a3505050565b60008373ffffffffffffffffffffffffffffffffffffffff163b111561245f578273ffffffffffffffffffffffffffffffffffffffff1663150b7a02868685856040518563ffffffff1660e01b81526004016123149493929190613f67565b6020604051808303816000875af192505050801561235057506040513d601f19601f8201168201806040525081019061234d9190613fc8565b60015b6123d4573d8060008114612380576040519150601f19603f3d011682016040523d82523d6000602084013e612385565b606091505b5060008151036123cc57836040517f64a0ae920000000000000000000000000000000000000000000000000000000081526004016123c39190612dc4565b60405180910390fd5b805181602001fd5b63150b7a0260e01b7bffffffffffffffffffffffffffffffffffffffffffffffffffffffff1916817bffffffffffffffffffffffffffffffffffffffffffffffffffffffff19161461245d57836040517f64a0ae920000000000000000000000000000000000000000000000000000000081526004016124549190612dc4565b60405180910390fd5b505b5050505050565b606060405180602001604052806000815250905090565b606061248882611a37565b506000612493612466565b905060008151116124b357604051806020016040528060008152506124de565b806124bd84612816565b6040516020016124ce929190613eee565b6040516020818303038152906040525b915050919050565b60007f01ffc9a7000000000000000000000000000000000000000000000000000000007bffffffffffffffffffffffffffffffffffffffffffffffffffffffff1916827bffffffffffffffffffffffffffffffffffffffffffffffffffffffff1916149050919050565b60006002600083815260200190815260200160002060009054906101000a900473ffffffffffffffffffffffffffffffffffffffff169050919050565b80806125c65750600073ffffffffffffffffffffffffffffffffffffffff168273ffffffffffffffffffffffffffffffffffffffff1614155b156126fa5760006125d684611a37565b9050600073ffffffffffffffffffffffffffffffffffffffff168373ffffffffffffffffffffffffffffffffffffffff161415801561264157508273ffffffffffffffffffffffffffffffffffffffff168173ffffffffffffffffffffffffffffffffffffffff1614155b8015612654575061265281846118c1565b155b1561269657826040517fa9fbf51f00000000000000000000000000000000000000000000000000000000815260040161268d9190612dc4565b60405180910390fd5b81156126f857838573ffffffffffffffffffffffffffffffffffffffff168273ffffffffffffffffffffffffffffffffffffffff167f8c5be1e5ebec7d5bd14f71427d1e84f3dd0314c0f7b2291e5b200ac8c7c3b92560405160405180910390a45b505b836004600085815260200190815260200160002060006101000a81548173ffffffffffffffffffffffffffffffffffffffff021916908373ffffffffffffffffffffffffffffffffffffffff16021790555050505050565b61275d8383836128e4565b61281157600073ffffffffffffffffffffffffffffffffffffffff168373ffffffffffffffffffffffffffffffffffffffff16036127d257806040517f7e2732890000000000000000000000000000000000000000000000000000000081526004016127c99190612fa9565b60405180910390fd5b81816040517f177e802f000000000000000000000000000000000000000000000000000000008152600401612808929190613ff5565b60405180910390fd5b505050565b606060006001612825846129a5565b01905060008167ffffffffffffffff81111561284457612843612ffb565b5b6040519080825280601f01601f1916602001820160405280156128765781602001600182028036833780820191505090505b509050600082602001820190505b6001156128d9578080600190039150507f3031323334353637383961626364656600000000000000000000000000000000600a86061a8153600a85816128cd576128cc61401e565b5b04945060008503612884575b819350505050919050565b60008073ffffffffffffffffffffffffffffffffffffffff168373ffffffffffffffffffffffffffffffffffffffff161415801561299c57508273ffffffffffffffffffffffffffffffffffffffff168473ffffffffffffffffffffffffffffffffffffffff16148061295d575061295c84846118c1565b5b8061299b57508273ffffffffffffffffffffffffffffffffffffffff1661298383611abf565b73ffffffffffffffffffffffffffffffffffffffff16145b5b90509392505050565b600080600090507a184f03e93ff9f4daa797ed6e38ed64bf6a1f0100000000000000008310612a03577a184f03e93ff9f4daa797ed6e38ed64bf6a1f01000000000000000083816129f9576129f861401e565b5b0492506040810190505b6d04ee2d6d415b85acef81000000008310612a40576d04ee2d6d415b85acef81000000008381612a3657612a3561401e565b5b0492506020810190505b662386f26fc100008310612a6f57662386f26fc100008381612a6557612a6461401e565b5b0492506010810190505b6305f5e1008310612a98576305f5e1008381612a8e57612a8d61401e565b5b0492506008810190505b6127108310612abd576127108381612ab357612ab261401e565b5b0492506004810190505b60648310612ae05760648381612ad657612ad561401e565b5b0492506002810190505b600a8310612aef576001810190505b80915050919050565b828054828255906000526020600020908101928215612b71579160200282015b82811115612b705782518260006101000a81548173ffffffffffffffffffffffffffffffffffffffff021916908373ffffffffffffffffffffffffffffffffffffffff16021790555091602001919060010190612b18565b5b509050612b7e9190612b82565b5090565b5b80821115612b9b576000816000905550600101612b83565b5090565b6000604051905090565b600080fd5b600080fd5b60007fffffffff0000000000000000000000000000000000000000000000000000000082169050919050565b612be881612bb3565b8114612bf357600080fd5b50565b600081359050612c0581612bdf565b92915050565b600060208284031215612c2157612c20612ba9565b5b6000612c2f84828501612bf6565b91505092915050565b60008115159050919050565b612c4d81612c38565b82525050565b6000602082019050612c686000830184612c44565b92915050565b600081519050919050565b600082825260208201905092915050565b60005b83811015612ca8578082015181840152602081019050612c8d565b60008484015250505050565b6000601f19601f8301169050919050565b6000612cd082612c6e565b612cda8185612c79565b9350612cea818560208601612c8a565b612cf381612cb4565b840191505092915050565b60006020820190508181036000830152612d188184612cc5565b905092915050565b6000819050919050565b612d3381612d20565b8114612d3e57600080fd5b50565b600081359050612d5081612d2a565b92915050565b600060208284031215612d6c57612d6b612ba9565b5b6000612d7a84828501612d41565b91505092915050565b600073ffffffffffffffffffffffffffffffffffffffff82169050919050565b6000612dae82612d83565b9050919050565b612dbe81612da3565b82525050565b6000602082019050612dd96000830184612db5565b92915050565b612de881612da3565b8114612df357600080fd5b50565b600081359050612e0581612ddf565b92915050565b60008060408385031215612e2257612e21612ba9565b5b6000612e3085828601612df6565b9250506020612e4185828601612d41565b9150509250929050565b600080600060608486031215612e6457612e63612ba9565b5b6000612e7286828701612df6565b9350506020612e8386828701612df6565b9250506040612e9486828701612d41565b9150509250925092565b60038110612eab57600080fd5b50565b600081359050612ebd81612e9e565b92915050565b600080600060608486031215612edc57612edb612ba9565b5b6000612eea86828701612d41565b9350506020612efb86828701612d41565b9250506040612f0c86828701612eae565b9150509250925092565b612f1f81612d20565b82525050565b600060e0820190508181036000830152612f3f818a612cc5565b90508181036020830152612f538189612cc5565b9050612f626040830188612f16565b8181036060830152612f748187612cc5565b9050612f836080830186612f16565b612f9060a0830185612f16565b612f9d60c0830184612c44565b98975050505050505050565b6000602082019050612fbe6000830184612f16565b92915050565b600060208284031215612fda57612fd9612ba9565b5b6000612fe884828501612df6565b91505092915050565b600080fd5b600080fd5b7f4e487b7100000000000000000000000000000000000000000000000000000000600052604160045260246000fd5b61303382612cb4565b810181811067ffffffffffffffff8211171561305257613051612ffb565b5b80604052505050565b6000613065612b9f565b9050613071828261302a565b919050565b600067ffffffffffffffff82111561309157613090612ffb565b5b61309a82612cb4565b9050602081019050919050565b82818337600083830152505050565b60006130c96130c484613076565b61305b565b9050828152602081018484840111156130e5576130e4612ff6565b5b6130f08482856130a7565b509392505050565b600082601f83011261310d5761310c612ff1565b5b813561311d8482602086016130b6565b91505092915050565b600080600080608085870312156131405761313f612ba9565b5b600085013567ffffffffffffffff81111561315e5761315d612bae565b5b61316a878288016130f8565b945050602061317b87828801612eae565b935050604061318c87828801612d41565b925050606085013567ffffffffffffffff8111156131ad576131ac612bae565b5b6131b9878288016130f8565b91505092959194509250565b600081519050919050565b600082825260208201905092915050565b6000819050602082019050919050565b600082825260208201905092915050565b600061320d82612c6e565b61321781856131f1565b9350613227818560208601612c8a565b61323081612cb4565b840191505092915050565b60006132478383613202565b905092915050565b6000602082019050919050565b6000613267826131c5565b61327181856131d0565b935083602082028501613283856131e1565b8060005b858110156132bf57848403895281516132a0858261323b565b94506132ab8361324f565b925060208a01995050600181019050613287565b50829750879550505050505092915050565b600060208201905081810360008301526132eb818461325c565b905092915050565b6132fc81612c38565b811461330757600080fd5b50565b600081359050613319816132f3565b92915050565b6000806040838503121561333657613335612ba9565b5b600061334485828601612df6565b92505060206133558582860161330a565b9150509250929050565b7f4e487b7100000000000000000000000000000000000000000000000000000000600052602160045260246000fd5b6003811061339f5761339e61335f565b5b50565b60008190506133b08261338e565b919050565b60006133c0826133a2565b9050919050565b6133d0816133b5565b82525050565b600060e08201905081810360008301526133f0818a612cc5565b90506133ff60208301896133c7565b61340c6040830188612f16565b818103606083015261341e8187612cc5565b905061342d6080830186612f16565b61343a60a0830185612f16565b61344760c0830184612c44565b98975050505050505050565b600081519050919050565b600082825260208201905092915050565b6000819050602082019050919050565b61348881612d20565b82525050565b600061349a838361347f565b60208301905092915050565b6000602082019050919050565b60006134be82613453565b6134c8818561345e565b93506134d38361346f565b8060005b838110156135045781516134eb888261348e565b97506134f6836134a6565b9250506001810190506134d7565b5085935050505092915050565b6000602082019050818103600083015261352b81846134b3565b905092915050565b600067ffffffffffffffff82111561354e5761354d612ffb565b5b61355782612cb4565b9050602081019050919050565b600061357761357284613533565b61305b565b90508281526020810184848401111561359357613592612ff6565b5b61359e8482856130a7565b509392505050565b600082601f8301126135bb576135ba612ff1565b5b81356135cb848260208601613564565b91505092915050565b600080600080608085870312156135ee576135ed612ba9565b5b60006135fc87828801612df6565b945050602061360d87828801612df6565b935050604061361e87828801612d41565b925050606085013567ffffffffffffffff81111561363f5761363e612bae565b5b61364b878288016135a6565b91505092959194509250565b6000806040838503121561366e5761366d612ba9565b5b600061367c85828601612df6565b925050602061368d85828601612df6565b9150509250929050565b7f4e487b7100000000000000000000000000000000000000000000000000000000600052602260045260246000fd5b600060028204905060018216806136de57607f821691505b6020821081036136f1576136f0613697565b5b50919050565b7f486f757365206e6f7420617661696c61626c6520666f722073616c6500000000600082015250565b600061372d601c83612c79565b9150613738826136f7565b602082019050919050565b6000602082019050818103600083015261375c81613720565b9050919050565b60006060820190506137786000830186612db5565b6137856020830185612db5565b6137926040830184612f16565b949350505050565b6000815190506137a9816132f3565b92915050565b6000602082840312156137c5576137c4612ba9565b5b60006137d38482850161379a565b91505092915050565b7f5061796d656e74206661696c6564000000000000000000000000000000000000600082015250565b6000613812600e83612c79565b915061381d826137dc565b602082019050919050565b6000602082019050818103600083015261384181613805565b9050919050565b7f4f776e657273686970206c696d69742072656163686564000000000000000000600082015250565b600061387e601783612c79565b915061388982613848565b602082019050919050565b600060208201905081810360008301526138ad81613871565b9050919050565b7f4e487b7100000000000000000000000000000000000000000000000000000000600052601160045260246000fd5b60006138ee82612d20565b91506138f983612d20565b9250828201905080821115613911576139106138b4565b5b92915050565b7f436f6f6c646f776e206163746976650000000000000000000000000000000000600082015250565b600061394d600f83612c79565b915061395882613917565b602082019050919050565b6000602082019050818103600083015261397c81613940565b9050919050565b60006060820190506139986000830186612db5565b6139a56020830185612f16565b6139b26040830184612db5565b949350505050565b7f596f7520617265206e6f7420746865206f776e65720000000000000000000000600082015250565b60006139f0601583612c79565b91506139fb826139ba565b602082019050919050565b60006020820190508181036000830152613a1f816139e3565b9050919050565b7f486f75736520697320616c7265616479206f6e2073616c650000000000000000600082015250565b6000613a5c601883612c79565b9150613a6782613a26565b602082019050919050565b60006020820190508181036000830152613a8b81613a4f565b9050919050565b7f496e76616c6964207265736f7572636520747970650000000000000000000000600082015250565b6000613ac8601583612c79565b9150613ad382613a92565b602082019050919050565b60006020820190508181036000830152613af781613abb565b9050919050565b7f496e76616c696420746f6b656e49640000000000000000000000000000000000600082015250565b6000613b34600f83612c79565b9150613b3f82613afe565b602082019050919050565b60006020820190508181036000830152613b6381613b27565b9050919050565b60008190508160005260206000209050919050565b60006020601f8301049050919050565b600082821b905092915050565b600060088302613bcc7fffffffffffffffffffffffffffffffffffffffffffffffffffffffffffffffff82613b8f565b613bd68683613b8f565b95508019841693508086168417925050509392505050565b6000819050919050565b6000613c13613c0e613c0984612d20565b613bee565b612d20565b9050919050565b6000819050919050565b613c2d83613bf8565b613c41613c3982613c1a565b848454613b9c565b825550505050565b600090565b613c56613c49565b613c61818484613c24565b505050565b5b81811015613c8557613c7a600082613c4e565b600181019050613c67565b5050565b601f821115613cca57613c9b81613b6a565b613ca484613b7f565b81016020851015613cb3578190505b613cc7613cbf85613b7f565b830182613c66565b50505b505050565b600082821c905092915050565b6000613ced60001984600802613ccf565b1980831691505092915050565b6000613d068383613cdc565b9150826002028217905092915050565b613d1f82612c6e565b67ffffffffffffffff811115613d3857613d37612ffb565b5b613d4282546136c6565b613d4d828285613c89565b600060209050601f831160018114613d805760008415613d6e578287015190505b613d788582613cfa565b865550613de0565b601f198416613d8e86613b6a565b60005b82811015613db657848901518255600182019150602085019450602081019050613d91565b86831015613dd35784890151613dcf601f891682613cdc565b8355505b6001600288020188555050505b505050505050565b60006080820190508181036000830152613e028187612cc5565b9050613e1160208301866133c7565b613e1e6040830185612f16565b8181036060830152613e308184612cc5565b905095945050505050565b7f4e487b7100000000000000000000000000000000000000000000000000000000600052603260045260246000fd5b6000613e7582612d20565b91507fffffffffffffffffffffffffffffffffffffffffffffffffffffffffffffffff8203613ea757613ea66138b4565b5b600182019050919050565b600081905092915050565b6000613ec882612c6e565b613ed28185613eb2565b9350613ee2818560208601612c8a565b80840191505092915050565b6000613efa8285613ebd565b9150613f068284613ebd565b91508190509392505050565b600081519050919050565b600082825260208201905092915050565b6000613f3982613f12565b613f438185613f1d565b9350613f53818560208601612c8a565b613f5c81612cb4565b840191505092915050565b6000608082019050613f7c6000830187612db5565b613f896020830186612db5565b613f966040830185612f16565b8181036060830152613fa88184613f2e565b905095945050505050565b600081519050613fc281612bdf565b92915050565b600060208284031215613fde57613fdd612ba9565b5b6000613fec84828501613fb3565b91505092915050565b600060408201905061400a6000830185612db5565b6140176020830184612f16565b9392505050565b7f4e487b7100000000000000000000000000000000000000000000000000000000600052601260045260246000fdfea2646970667358221220449c6d1212860693bf825426ddbfcbb0a5247d1fbea0cb738012fecee17d56ad64736f6c634300081c0033",
  "linkReferences": {},
  "deployedLinkReferences": {}
}